:020000040800F2
:1000000000C00020F952000805130008071300087B
:10001000091300080B1300080D130008000000006E
:100020000000000000000000000000000F130008A6
:100030001113000800000000131300081513000836
:100040004153000841530008415300084153000840
:100050004153000841530008415300084153000830
:100060004153000841530008415300084153000820
:100070004153000841530008415300084153000810
:100080004153000841530008415300084153000800
:1000900041530008415300084153000841530008F0
:1000A00041530008415300084153000841530008E0
:1000B00041530008415300084153000841530008D0
:1000C00041530008415300084153000841530008C0
:1000D00041530008415300084153000841530008B0
:1000E00041530008415300084153000841530008A0
:1000F0004153000841530008415300084153000890
:10010000415300084153000841530008415300087F
:10011000415300084153000841530008415300086F
:10012000415300084153000841530008415300085F
:1001300000000000000000000000000000000000BF
:1001400000000000000000000000000000000000AF
:10015000000000000000000000000000000000009F
:10016000000000000000000000000000000000008F
:10017000000000000000000000000000000000007F
:10018000000000000000000000000000000000006F
:10019000000000000000000000000000000000005F
:1001A000000000000000000000000000000000004F
:1001B000000000000000000000000000000000003F
:1001C000000000000000000000000000000000002F
:1001D000000000000000000000000000000000001F
:0401E0005FF8E0F1F3
:1001E80010B5054C237833B9044B13B10448AFF369
:1001F80000800123237010BDC0090020000000000A
:100208003CD2000808B5034B1BB103490348AFF3C0
:10021800008008BD00000000C40900203CD200088E
:1002280081F0004102E000BF83F0004330B54FEA9F
:1002380041044FEA430594EA050F08BF90EA020F0C
:100248001FBF54EA000C55EA020C7FEA645C7FEA9F
:10025800655C00F0E2804FEA5454D4EB5555B8BFC2
:100268006D420CDD2C4480EA020281EA030382EA33
:10027800000083EA010180EA020281EA0303362DC5
:1002880088BF30BD11F0004F4FEA01314FF4801C98
:100298004CEA113102D0404261EB410113F0004FAA
:1002A8004FEA03334CEA133302D0524263EB430361
:1002B80094EA050F00F0A780A4F10104D5F1200EFF
:1002C8000DDB02FA0EFC22FA05F2801841F100015A
:1002D80003FA0EF2801843FA05F359410EE0A5F12E
:1002E80020050EF1200E012A03FA0EFC28BF4CF05F
:1002F800020C43FA05F3C01851EBE37101F0004515
:1003080007D54FF0000EDCF1000C7EEB00006EEB21
:100318000101B1F5801F1BD3B1F5001F0CD34908AB
:100328005FEA30004FEA3C0C04F101044FEA445202
:1003380012F5800F80F09A80BCF1004F08BF5FEA89
:10034800500C50F1000041EB045141EA050130BD69
:100358005FEA4C0C404141EB0101013C28BFB1F57B
:10036800801FE9D291F0000F04BF01460020B1FAC6
:1003780081F308BF2033A3F10B03B3F120020CDA99
:100388000C3208DD02F1140CC2F10C0201FA0CF077
:1003980021FA02F10CE002F11402D8BFC2F1200CDC
:1003A80001FA02F120FA0CFCDCBF41EA0C01904092
:1003B800E41AA2BF01EB0451294330BD6FEA0404DB
:1003C8001F3C1CDA0C340EDC04F11404C4F12002C6
:1003D80020FA04F001FA02F340EA030021FA04F3D8
:1003E80045EA030130BDC4F10C04C4F1200220FA2F
:1003F80002F001FA04F340EA0300294630BD21FA6D
:1004080004F0294630BD94F0000F83F4801306BF32
:1004180081F480110134013D4EE77FEA645C18BF26
:100428007FEA655C29D094EA050F08BF90EA020FBD
:1004380005D054EA000C04BF1946104630BD91EAB5
:10044800030F1EBF0021002030BD5FEA545C05D1B8
:100458004000494128BF41F0004130BD14F58004F7
:100468003CBF01F5801130BD01F0004545F0FE416B
:1004780041F470014FF0000030BD7FEA645C1ABFA0
:10048800194610467FEA655C1CBF0B46024650EAD7
:10049800013406BF52EA033591EA030F41F4002103
:1004A80030BD00BF90F0000F04BF0021704730B589
:1004B8004FF4806404F132044FF000054FF000015E
:1004C80050E700BF90F0000F04BF0021704730B51F
:1004D8004FF4806404F1320410F0004548BF4042F4
:1004E8004FF000013EE700BF42004FEAE2014FEA49
:1004F80031014FEA02701FBF12F07F4393F07F4F24
:1005080081F06051704732F07F4208BF704793F026
:100518007F4F04BF41F40021704730B54FF4607439
:1005280001F0004521F000411CE700BF50EA01023C
:1005380008BF704730B54FF000050AE050EA0102E5
:1005480008BF704730B511F0004502D5404261EB55
:1005580041014FF4806404F132045FEA915C3FF496
:10056800D8AE4FF003025FEADC0C18BF03325FEA33
:10057800DC0C18BF033202EBDC02C2F1200300FAE4
:1005880003FC20FA02F001FA03FE40EA0E0021FA09
:1005980002F11444BDE600BF4A0011D212F5001260
:1005A80011D20DD56FF47873B3EB62520ED44FEAC3
:1005B800C12343F0004343EA505323FA02F0704743
:1005C8004FF00000704750EA013002D14FF0FF3081
:1005D80070474FF000007047844641EA000313F06B
:1005E800030349D1403A23D30B6803604B68436047
:1005F8008B688360CB68C3600B6903614B69436197
:100608008B698361CB69C3610B6A03624B6A43627E
:100618008B6A8362CB6AC3620B6B03634B6B436366
:100628008B6B8363CB6BC36340304031403ADBD282
:1006380030320BD30B6803604B6843608B68836070
:10064800CB68C36010301031103AF3D20C3205D3A6
:1006580051F8043B40F8043B043AF9D2043208D07C
:10066800D2071CBF11F8013B00F8013B01D30B88EE
:1006780003806046704700BF082A13D38B07B1D0A8
:1006880010F00303AED0C3F10403D21ADB071CBF7A
:1006980011F8013B00F8013BA4D331F8023B20F8E4
:1006A800023B9FE7043AD9D3013A11F8013B00F81D
:1006B800013BF9D20B7803704B7843708B788370C9
:1006C8006046704770B54FF0FF0C4CF4E06C1CEAC4
:1006D80011541DBF1CEA135594EA0C0F95EA0C0F30
:1006E80000F0DEF82C4481EA030621EA4C5123EAA3
:1006F8004C5350EA013518BF52EA033541F48011D2
:1007080043F4801338D0A0FB02CE4FF00005E1FB84
:1007180002E506F00042E0FB03E54FF00006E1FBCE
:1007280003569CF0000F18BF4EF0010EA4F1FF0411
:10073800B6F5007F64F5407404D25FEA4E0E6D4151
:1007480046EB060642EAC62141EA55514FEAC52062
:1007580040EA5E504FEACE2EB4F1FD0C88BFBCF5DE
:10076800E06F1ED8BEF1004F08BF5FEA500E50F18F
:10077800000041EB045170BD06F0004646EA010155
:1007880040EA020081EA0301B4EB5C04C2BFD4EB87
:100798000C0541EA045170BD41F480114FF0000E80
:1007A800013C00F3AB8014F1360FDEBF002001F0EE
:1007B800004170BDC4F10004203C35DA0C341BDC68
:1007C80004F11404C4F1200500FA05F320FA04F03A
:1007D80001FA05F240EA020001F0004221F000416E
:1007E80010EBD37021FA04F642EB06015EEA430EE1
:1007F80008BF20EAD37070BDC4F10C04C4F1200511
:1008080000FA04F320FA05F001FA04F240EA0200C3
:1008180001F0004110EBD37041F100015EEA430E94
:1008280008BF20EAD37070BDC4F1200500FA05F2B4
:100838004EEA020E20FA04F301FA05F243EA020333
:1008480021FA04F001F0004121FA04F220EA020042
:1008580000EBD3705EEA430E08BF20EAD37070BD88
:1008680094F0000F0FD101F00046400041EB010168
:1008780011F4801F08BF013CF7D041EA060195F04A
:10088800000F18BF704703F00046520043EB030304
:1008980013F4801F08BF013DF7D043EA06037047F1
:1008A80094EA0C0F0CEA135518BF95EA0C0F0CD0FC
:1008B80050EA410618BF52EA4306D1D181EA030142
:1008C80001F000414FF0000070BD50EA410606BF3C
:1008D8001046194652EA430619D094EA0C0F02D181
:1008E80050EA013613D195EA0C0F05D152EA0336C6
:1008F8001CBF104619460AD181EA030101F00041E4
:1009080041F0FE4141F470014FF0000070BD41F02C
:10091800FE4141F4780170BD70B54FF0FF0C4CF406
:10092800E06C1CEA11541DBF1CEA135594EA0C0F25
:1009380095EA0C0F00F0A7F8A4EB050481EA030E72
:1009480052EA03354FEA013100F088804FEA033359
:100958004FF0805545EA131343EA12634FEA022227
:1009680045EA111545EA10654FEA00260EF00041E8
:100978009D4208BF964244F1FD0404F5407402D23A
:100988005B084FEA3202B61A65EB03055B084FEACB
:1009980032024FF480104FF4002CB6EB020E75EBC8
:1009A800030E22BFB61A754640EA0C005B084FEAF0
:1009B8003202B6EB020E75EB030E22BFB61A75466D
:1009C80040EA5C005B084FEA3202B6EB020E75EBB8
:1009D800030E22BFB61A754640EA9C005B084FEA30
:1009E8003202B6EB020E75EB030E22BFB61A75463D
:1009F80040EADC0055EA060E18D04FEA051545EA2C
:100A080016754FEA06164FEAC30343EA52734FEAD4
:100A1800C2025FEA1C1CC0D111F4801F0BD141EA4D
:100A280000014FF000004FF0004CB6E711F4801FB2
:100A380004BF01430020B4F1FD0C88BFBCF5E06F92
:100A48003FF6AFAEB5EB030C04BFB6EB020C5FEAA2
:100A5800500C50F1000041EB045170BD0EF0004EF7
:100A68004EEA113114EB5C04C2BFD4EB0C0541EA29
:100A7800045170BD41F480114FF0000E013C90E626
:100A880045EA060E8DE60CEA135594EA0C0F08BFEA
:100A980095EA0C0F3FF43BAF94EA0C0F0AD150EAE9
:100AA80001347FF434AF95EA0C0F7FF425AF10467C
:100AB80019462CE795EA0C0F06D152EA03353FF4A4
:100AC800FDAE1046194622E750EA410618BF52EA21
:100AD80043067FF4C5AE50EA41047FF40DAF52EAF5
:100AE80043057FF4EBAE12E74FF0FF3C06E000BF92
:100AF8004FF0010C02E000BF4FF0010C4DF804CD9F
:100B08004FEA410C7FEA6C5C4FEA430C18BF7FEA5E
:100B18006C5C1BD001B050EA410C0CBF52EA430C8C
:100B280091EA030F02BF90EA020F0020704710F10C
:100B3800000F91EA030F58BF994208BF90422CBF9B
:100B4800D8176FEAE37040F0010070474FEA410C94
:100B58007FEA6C5C02D150EA013C07D14FEA430CB2
:100B68007FEA6C5CD6D152EA033CD3D05DF8040B23
:100B7800704700BF8446104662468C461946634655
:100B880000E000BF01B5FFF7B7FF002848BF10F12C
:100B9800000F01BD4DF808EDFFF7F4FF0CBF012071
:100BA80000205DF808FB00BF4DF808EDFFF7EAFFED
:100BB80034BF012000205DF808FB00BF4DF808EDA8
:100BC800FFF7E0FF94BF012000205DF808FB00BF9D
:100BD8004DF808EDFFF7CEFF94BF012000205DF827
:100BE80008FB00BF4DF808EDFFF7C4FF34BF012034
:100BF80000205DF808FB00BF4FEA410C7FEA6C5CFF
:100C080002D150EA013C0AD14FEA430C7FEA6C5CFE
:100C180002D152EA033C02D14FF0000070474FF076
:100C2800010070474FEA410212F5001215D211D5A2
:100C38006FF47873B3EB625212D94FEAC12343F0D1
:100C4800004343EA505311F0004F23FA02F018BF53
:100C5800404270474FF00000704750EA013005D11C
:100C680011F0004008BF6FF0004070474FF00000DF
:100C7800704700BF53B94AB9002908BF00281CBFF4
:100C88004FF0FF314FF0FF3000F076B9ADF1080CAE
:100C98006DE904CE00F006F8DDF804E0DDE9022392
:100CA80004B070472DE9F047089E0D460446884673
:100CB800002B4DD18A42944668D9B2FA82F252B1D9
:100CC80001FA02F3C2F1200120FA01F10CFA02FC48
:100CD80041EA030894404FEA1C41B8FBF1F71FFAB8
:100CE8008CFE01FB178807FB0EF0230C43EA084330
:100CF80098420AD91CEB030307F1FF3580F01E81E7
:100D0800984240F21B81023F63441B1AB3FBF1F087
:100D180001FB103300FB0EFEA4B244EA0344A645CF
:100D28000AD91CEB040400F1FF3380F00981A645C1
:100D380040F20681644402380021A4EB0E0440EA24
:100D480007401EB10023D440C6E90043BDE8F08740
:100D58008B4208D9002E00F0EE800021C6E900057C
:100D68000846BDE8F087B3FA83F100294AD1AB42BF
:100D780002D3824200F2FC80841A65EB030301204F
:100D88009846002EE2D0C6E90048DFE702B9FFDE48
:100D9800B2FA82F2002A40F09180A1EB0C00012106
:100DA8004FEA1C471FFA8CFEB0FBF7F307FB130052
:100DB800250C45EA00450EFB03F0A84208D91CEBB8
:100DC800050503F1FF3802D2A84200F2CE8043465F
:100DD8002D1AB5FBF7F007FB10550EFB00FEA4B269
:100DE80044EA0544A64508D91CEB040400F1FF3584
:100DF80002D2A64500F2B6802846A4EB0E0440EACB
:100E080003409EE7C1F120078B4022FA07FC4CEA19
:100E1800030C25FA07FA4FEA1C49BAFBF9F820FA3D
:100E280007F309FB18AA8D401FFA8CFE1D4300FA30
:100E380001F308FB0EF02C0C44EA0A44A04202FA23
:100E480001F20BD91CEB040408F1FF3A80F088800A
:100E5800A04240F28580A8F102086444241AB4FB39
:100E6800F9F009FB104400FB0EFEADB245EA04445C
:100E7800A64508D91CEB040400F1FF356CD2A64541
:100E88006AD90238644440EA0840A0FB0295A4EB02
:100E98000E04AC42C846AE4656D353D0002E69D095
:100EA800B3EB080264EB0E0422FA01F304FA07F725
:100EB8001F43CC40C6E90074002147E70CFA02FC46
:100EC800C2F1200125FA01F34FEA1C4720FA01F18B
:100ED80095400D43B3FBF7F107FB11331FFA8CFE66
:100EE800280C40EA034001FB0EF3834204FA02F4A3
:100EF80008D91CEB000001F1FF382FD283422DD90D
:100F080002396044C01AB0FBF7F307FB1300ADB217
:100F180045EA004503FB0EF0A84208D91CEB05057D
:100F280003F1FF3816D2A84214D9023B6544281AA7
:100F380043EA014138E73146304607E72F46E4E601
:100F48001846F9E64B45A9D2B9EB020865EB0C0E39
:100F58000138A3E74346EAE7284694E74146D1E744
:100F6800D0467BE76444023847E7023B65442FE7F5
:100F7800084606E73146E9E6704700BF30B587B056
:100F880000240294039404940594134B9A6942F044
:100F980020029A619A6902F020020092009A9A69E6
:100FA80042F004029A619B6903F004030193019BD8
:100FB8000A4D22460421284600F00AFC0423029325
:100FC8000123039304940223059302A9284600F001
:100FD800DFFA07B030BD00BF001002400014014026
:100FE80072B6FEE700B591B02822002106A804F0E9
:100FF800CFF90023019302930393049305930122ED
:1010080006924FF4803307930A9202220D920E93B0
:101018004FF4E0130F9306A800F000FC80B90F23EB
:10102800019302210291002303934FF480620492FA
:10103800059301A800F032FE20B911B05DF804FB59
:10104800FFF7CEFFFFF7CCFF70B588B000F00EFABF
:10105800574800F0C1F8FFF7C5FFFFF78FFF00F012
:1010680089F9482001F084F801F074FD514B4FF4E0
:1010780078421A60504CA288504905A804F01CFB1D
:10108800A1884F4804F0D6F94E4804F035FA0024F8
:101098003BE04FF6FF7001F02FFD4FF478460296C3
:1010A800494B019320230093F02228210A2001F0C4
:1010B80055FF0296454B019318230093F0225021C7
:1010C8000A2001F04BFF0296414B01931025009531
:1010D8002B46F0226E210A2001F040FF029605AB54
:1010E800019300952B46F02282210A2001F036FF59
:1010F8000134E4B20C2C00D100240421354800F05E
:101108006DFB4FF47A7001F061F80B2CC5D801A380
:1011180053F824F09B1000084D11000855110008E1
:101128005D11000867110008711100087B110008A3
:10113800851100088F11000899110008A3110008F3
:10114800AD110008002001F0D7FCA6E71F2001F030
:10115800D3FCA2E74FF4784001F0CEFC9DE74FF6B0
:101168001F0001F0C9FC98E74FF4FC6001F0C4FCD3
:1011780093E740F2FF7001F0BFFC8EE74FF6E07096
:1011880001F0BAFC89E74FF6074001F0B5FC84E7A7
:1011980048F2304001F0B0FC7FE74CF2186001F0F3
:1011A800ABFC7AE74BF6404001F0A6FC75E700BFC0
:1011B800E409002010000020300A002058D200085E
:1011C80064D200086CD2000880D2000888D20008D7
:1011D80094D200080014014008B5054B1860054B6F
:1011E8001868002302221946806804F08DF908BDAA
:1011F800DC09002014000020022801D801207047D3
:1012080008B504F09BF809230360002008BD00001E
:1012180010B5013801280AD814464FF0FF3392B2AE
:101228000748006800F0C5FE40B9204610BD04F02C
:1012380085F8092303604FF0FF30F7E70520F5E74D
:10124800DC090020022801D80020704708B504F006
:1012580075F8092303604FF0FF3008BD08B504F0A6
:101268006DF8092303604FF0FF3008BD08B548B991
:101278004FF0FF3301220848006800F006FF40B92C
:10128800012008BD04F05AF8092303604FF0FF302D
:10129800F7E70520F5E700BFDC09002008B50228BC
:1012A80004D84FF400534B60002008BD04F046F802
:1012B80009230360F8E7000082B00E4B9A6942F0F8
:1012C80001029A619A6902F001020092009ADA69B1
:1012D80042F08052DA61DB6903F080530193019B8D
:1012E800054A536823F0E06343F00073536002B08B
:1012F800704700BF0010024000000140FEE7FEE713
:10130800FEE7FEE7FEE770477047704708B500F054
:10131800BFF808BD0120704708B504F00FF8162380
:1013280003604FF0FF3008BD08B54FF0FF31FFF7FD
:10133800F3FFFEE708B503460B4A126842B10A4AB2
:10134800106803446A46934206D8074A136008BDEA
:10135800054A06491160F2E703F0F0FF0C23036029
:101368004FF0FF30F3E700BFE0090020880A0020B3
:101378007047000008B50A480A4B03604FF4E13390
:10138800436000238360C36003610C224261836170
:10139800C36100F0DFFD00B908BDFFF721FEFBE7E0
:1013A800E40900200038014010B586B000230293FC
:1013B8000393049305930268174B9A4201D006B031
:1013C80010BD03F558439A6942F480429A619A69BC
:1013D80002F480420092009A9A6942F004029A61EB
:1013E8009B6903F004030193019B4FF4007302937C
:1013F8000223039303230593084C02A9204600F017
:10140800C7F84FF48063029300230393049302A95F
:10141800204600F0BDF8D2E700380140000801403E
:1014280010B504460E4B18784FF47A73B3FBF0F3FB
:101438000C4A1068B0FBF3F000F086F868B90F2C7E
:1014480001D901200AE0002221464FF0FF3000F0C8
:1014580043F8054B1C60002000E0012010BD00BFD0
:1014680004000020000000200800002008B5074AFA
:10147800136843F010031360032000F01BF80F20DB
:10148800FFF7CEFFFFF718FF002008BD002002403D
:10149800034A1168034B1B780B441360704700BF65
:1014A800280A002004000020014B1868704700BF7C
:1014B800280A0020074AD36823F4E0631B041B0CA6
:1014C800000200F4E060034343F0BF6343F40033D9
:1014D800D360704700ED00E000B5194BDB68C3F33B
:1014E8000223C3F1070CBCF1040F28BF4FF0040C12
:1014F80003F1040EBEF1060F18D9033B4FF0FF3E6F
:101508000EFA0CFC21EA0C0199400EFA03F322EAC8
:101518000303194300280BDB0901C9B200F160403D
:1015280000F5614080F800135DF804FB0023E5E74F
:1015380000F00F000901C9B2024B1954F4E700BFCB
:1015480000ED00E014ED00E00138B0F1807F0BD22F
:101558004FF0E0235861054AF02182F8231000205B
:10156800986107221A6170470120704700ED00E07A
:10157800042806D04FF0E022136923F00403136116
:1015880070474FF0E022136943F00403136170477A
:1015980070B582B00024A446B0E0874DAA4210D0AE
:1015A80007D9864DAA420CD005F58035AA4208D045
:1015B80013E0A5F58015AA4203D005F57025AA42C7
:1015C80007D18A68002A62D0012A5BD043610824C7
:1015D80003E0A5F58015AA42F3D0BEF1FF0F58D855
:1015E8000646BEF1FF0F56D84FEA8C0233680F2526
:1015F800954023EA050304FA02F2134333604B686B
:1016080013F0805F78D06E4B9A6942F001029A61BC
:101618009B6903F001030193019B4FEA9C02951C0F
:10162800684B53F825600CF003039D000F23AB4073
:1016380026EA0306644B984233D003F58063984248
:1016480000F0988003F58063984200F0958003F5D8
:101658008063984200F0928003F58063984200F01E
:101668008F8003F58063984219D006231AE0CC686E
:10167800B3E7CC680434B0E7CC680834ADE7CC688D
:101688000C34AAE703610824A7E70024A5E704248B
:10169800A3E7061DA5E7ACF108029200A6E705231B
:1016A80000E00023AB4033430232464D45F8223078
:1016B8004B6813F4803F65D0444A136843EA0E032D
:1016C80013604B6813F4003F62D0404A536843EA02
:1016D8000E0353604B6813F4801F5FD03B4A936836
:1016E80043EA0E0393604B6813F4001F5CD0374A3B
:1016F800D36843EA0E03D3600CF1010C0A6832FA8E
:101708000CF357D0012303FA0CF302EA030E33EA71
:101718000202F1D14A68122A3FF63FAF122A3FF679
:101728005CAF01A555F822F0CB1500087716000824
:101738008116000893160008E3150008E315000851
:10174800E3150008E3150008E3150008E315000891
:10175800E3150008E3150008E3150008E315000881
:10176800E3150008E3150008E31500087B160008D8
:1017780087160008012395E7022393E7032391E7DF
:1017880004238FE7114A136823EA0E03136098E7CE
:101798000E4A536823EA0E0353609BE70B4A93688B
:1017A80023EA0E0393609EE7084AD36823EA0E03F0
:1017B800D360A1E702B070BD000022100000311014
:1017C80000100240000001400008014000040140F0
:1017D8000AB101617047090401617047C36801EAF1
:1017E800030221EA030141EA024101617047000056
:1017F80082B0084B1B68084AA2FB03235B0A00FB64
:1018080003F3019300BF019B5A1E0192002BF9D1EB
:1018180002B0704700000020D34D6210002800F08D
:10182800F18170B582B00446036813F0010F2CD023
:10183800994B5B6803F00C03042B1DD0964B5B6837
:1018480003F00C03082B12D06368B3F5803F41D036
:10185800002B55D103F1804303F504331A6822F4B1
:1018680080321A601A6822F480221A6037E08A4BA4
:101878005B6813F4803FE7D0874B1B6813F4003F85
:1018880003D06368002B00F0BF81236813F0020FB8
:1018980075D0814B5B6813F00C0F5FD07E4B5B6893
:1018A80003F00C03082B54D02369002B00F08A8026
:1018B8007A4B01221A60FFF7F7FD0546764B1B6845
:1018C80013F0020F75D1FFF7EFFD401B0228F5D981
:1018D80003209EE1704A136843F480331360636801
:1018E80043B3FFF7E1FD05466B4B1B6813F4003F5C
:1018F800CBD1FFF7D9FD401B6428F5D9032088E137
:10190800B3F5A02F09D0644B1A6822F480321A600C
:101918001A6822F480221A60E1E703F18043A3F5F4
:101928003C331A6842F480221A601A6842F4803202
:101938001A60D4E7FFF7B8FD0546574B1B6813F448
:10194800003FA2D0FFF7B0FD401B6428F5D9032063
:101958005FE1514B5B6813F4803FA5D14E4B1B6888
:1019680013F0020F03D02369012B40F04F814A4A3C
:10197800136823F0F803616943EAC103136023681D
:1019880013F0080F33D0A369002B5CD0434B01221E
:10199800C3F88024FFF788FD05463F4B5B6A13F0C8
:1019A800020F21D1FFF780FD401B0228F5D9032043
:1019B8002FE1394A136823F0F803616943EAC10348
:1019C8001360DCE7354B00221A60FFF76DFD054612
:1019D800314B1B6813F0020FD1D0FFF765FD401B98
:1019E8000228F5D9032014E10120FFF701FF23683D
:1019F80013F0040F00F09680274BDB6913F0805F2B
:101A080034D1254BDA6942F08052DA61DB6903F0A0
:101A180080530193019B0125214B1B6813F4807FA0
:101A280026D0E368012B3DD0002B53D103F180432E
:101A380003F504331A6A22F001021A621A6A22F0C4
:101A480004021A6233E0154B0022C3F88024FFF722
:101A58002BFD0546104B5B6A13F0020FC7D0FFF74A
:101A680023FD401B0228F5D90320D2E00025D3E747
:101A78000B4A136843F480731360FFF715FD06469D
:101A8800074B1B6813F4807FCBD1FFF70DFD801B3C
:101A98006428F5D90320BCE000100240000042424F
:101AA800007000405F4A136A43F001031362E36861
:101AB80033B3FFF7F9FC06465A4B1B6A13F0020FC3
:101AC8002FD1FFF7F1FC801B41F288339842F3D9FC
:101AD80003209EE0052B09D0524B1A6A22F001021E
:101AE8001A621A6A22F004021A62E0E74D4B1A6A77
:101AF80042F004021A621A6A42F001021A62D6E738
:101B0800FFF7D2FC0646474B1B6A13F0020F08D0BA
:101B1800FFF7CAFC801B41F288339842F3D90320AF
:101B280077E0E5B9E369002B72D03E4A526802F0CB
:101B38000C02082A56D0022B17D03B4B00221A66FB
:101B4800FFF7B2FC0446374B1B6813F0007F47D001
:101B5800FFF7AAFC001B0228F5D9032059E0314AF7
:101B6800D36923F08053D361DCE72F4B00221A6638
:101B7800FFF79AFC05462B4B1B6813F0007F06D035
:101B8800FFF792FC401B0228F5D9032041E0236AA5
:101B9800B3F5803F1AD023494B6823F47413226AA3
:101BA800606A024313434B601F4B01221A66FFF71A
:101BB8007BFC04461B4B1B6813F0007F0ED1FFF71C
:101BC80073FC001B0228F5D9032022E0154A53684C
:101BD80023F40033A1680B435360DCE7002018E0CE
:101BE800002016E0012B16D00E4B5B6803F4803101
:101BF800226A914211D103F47013626A93420ED1A2
:101C0800002006E001207047012002E0012000E0EA
:101C1800002002B070BD0120FBE70120F9E7012098
:101C2800F7E700BF001002400000424286B0174BA1
:101C38000FCB0DF1180C0CE90F0040F20123ADF8A1
:101C48000430134B5B6803F00C02082A02D01148D9
:101C580006B07047C3F3834218326A4412F8100C76
:101C680013F4803F0DD00A4B5B68C3F3404318332D
:101C78006B4413F8143C074A02FB00F0B0FBF3F086
:101C8800E6E7054B03FB00F0E2E700BFBCD2000823
:101C98000010024000127A0000093D00002800F000
:101CA800A08070B50D460446524B1B6803F007032D
:101CB8008B420BD24F4A136823F007030B43136080
:101CC800136803F007038B4240F08D80236813F0FC
:101CD800020F17D013F0040F04D0474A536843F497
:101CE800E0635360236813F0080F04D0424A536836
:101CF80043F460535360404A536823F0F003A168EB
:101D08000B435360236813F0010F31D06368012B34
:101D180020D0022B25D0384A126812F0020F64D066
:101D280035494A6822F0030213434B60FFF7BCFBB6
:101D38000646314B5B6803F00C036268B3EB820F15
:101D480016D0FFF7B1FB801B41F288339842F0D9D7
:101D5800032045E0284A126812F4003FE0D1012030
:101D68003EE0254A126812F0007FD9D1012037E001
:101D7800204B1B6803F00703AB420AD91D4A1368BE
:101D880023F007032B431360136803F00703AB42E8
:101D98002DD1236813F0040F06D0174A536823F493
:101DA800E063E1680B435360236813F0080F07D022
:101DB800114A536823F46053216943EAC10353600D
:101DC800FFF734FF0C4B5B68C3F303130B4AD35C78
:101DD800D8400B4B18600B4B1868FFF721FB00200D
:101DE80070BD012070470120FAE70120F8E70120C3
:101DF800F6E700BF0020024000100240A4D200080D
:101E08000000002008000020014B1868704700BF40
:101E18000000002008B5FFF7F7FF044B5B68C3F329
:101E28000223034AD35CD84008BD00BF001002401B
:101E3800B4D2000808B5FFF7E7FF044B5B68C3F3AB
:101E4800C223034AD35CD84008BD00BF001002403B
:101E5800B4D2000810B504460268136923F440534D
:101E6800C1680B43136183680269134342691A43CB
:101E78000168CB6823F4B05323F00C031343CB6001
:101E88000268536923F4407381690B435361026804
:101E9800134B9A4220D0FFF7BDFF024602EB8202A5
:101EA80002EB820263689B00B2FBF3F20D48A0FBD1
:101EB80002314909642303FB11231B013233A0FBC0
:101EC80003235B0903F0F00202EB011203F00F0396
:101ED800216813448B6010BDFFF7ACFF0246DDE7B5
:101EE800003801401F85EB512DE9F84305460F46A0
:101EF80016469946DDF820802C68246837EA0403E2
:101F08000CBF4FF0010C4FF0000CB4451FD1B8F1D5
:101F1800FF3FF1D0B8F1000F05D0FFF7C5FAA0EBED
:101F280009004045E8D92A68D36823F4D073D36000
:101F38002A68536923F001035361202385F83D3053
:101F480085F83E30002385F83C30032000E000206F
:101F5800BDE8F88358B310B5044690F83D300BB38C
:101F6800242384F83D302268D36823F40053D360D7
:101F78002046FFF76FFF2268136923F4904313612B
:101F88002268536923F02A0353612268D36843F413
:101F98000053D36000202064202384F83D3084F867
:101FA8003E3010BD80F83C30FFF7FEF9D8E701203D
:101FB80070472DE9F04182B01E4690F83D30DBB203
:101FC800202B54D104460D469046002953D0002AB0
:101FD80053D090F83C30012B51D0012380F83C308D
:101FE80000230364212380F83D30FFF75DFA07469C
:101FF800A4F82480A4F82680A368B3F5805F05D0F0
:102008004FF00008002384F83C3012E0236913B134
:102018004FF00008F6E7A8460025F3E738F8023B3A
:102028002268C3F308035360E28C92B2013A92B279
:10203800E284E38C9BB273B100963B460022802178
:102048002046FFF751FFE0B9002DE7D015F8012B26
:1020580023685A60E8E700963B4600224021204664
:10206800FFF742FF78B9202384F83D3000E00220D2
:1020780002B0BDE8F0810120FAE70120F8E702206C
:10208800F6E70320F4E70320F2E72DE9F04182B0F8
:102098001E4690F83E30DBB2202B5CD104460D463C
:1020A800904600295BD0002A5BD090F83C30012B89
:1020B80059D0012380F83C3000230364222280F8A1
:1020C8003E200363FFF7F0F90746A4F82C80A4F834
:1020D8002E80A368B3F5805F05D04FF00008002379
:1020E80084F83C3017E0236913B14FF00008F6E795
:1020F800A8460025F3E723685B68C3F3080328F8BC
:10210800023B03E023685B682B700135E28D92B2D5
:10211800013A92B2E285E38D9BB2BBB100963B4691
:10212800002220212046FFF7DFFEF0B9002DE2D083
:10213800A368B3F5805FE5D013B92369002BE1D01C
:1021480023685B6803F07F032B70DEE7202384F8A5
:102158003E30002000E0022002B0BDE8F0810120FE
:10216800FAE70120F8E70220F6E70320F4E7000089
:1021780010B5044600204FF0E0231861FFF7F8F986
:10218800E408014B1C8010BD2C0A00200E4B1B8854
:1021980003FB00F04FF0E023586100229A611A69AE
:1021A80042F001021A614FF0E0231B6903F00113AA
:1021B800012BF8D04FF0E0231A6922F001021A61CE
:1021C80000229A61704700BF2C0A002038B50D4CD8
:1021D800A4FB0034A5092C464FF47A7303FB1500C1
:1021E80085B203E00848FFF7D1FF013C002CF9D184
:1021F80005B938BD4FF47A7005FB00F0FFF7C6FF4C
:10220800F7E700BFD34D621040420F00F0B587B02A
:102218004FF6FF77019700230293012503950326C4
:102228000496144C01A92046FFF7B2F9124B4FF45B
:1022380080721A614FF000721A614FF480021A61BD
:10224800A26892B2ADF81620A26892B2ADF8162034
:1022580040221A614FF400721A61019702950395A2
:10226800049601A92046FFF793F9BDF8160080B23D
:1022780007B0F0BD000C014000100140084B4FF4BE
:1022880080721A614FF000721A61064AD0604FF4EA
:1022980000021A6180221A614FF400721A617047B5
:1022A80000100140000C014082B0ADF806000B4B55
:1022B8004FF080721A614FF000721A61BDF8062063
:1022C80092B20749CA604FF400021A6180221A616B
:1022D8004FF400721A6102B0704700BF001001404D
:1022E800000C014010B50C46FFF7DEFF084B4FF419
:1022F80080721A614FF000721A61064AD4604FF476
:1023080000021A6180221A614FF400721A6110BD2E
:1023180000100140000C014008B5024B1889FFF776
:10232800C3FF08BD300A00202DE9F04F83B00190AB
:102338000D46A64B9B8841F66312934248D045F25E
:102348001052934200F0EE80A04B5889FFF7ACFF83
:102358009F4C4FF4807BC4F810B04FF0007AC4F85B
:1023680010A0019A130ADFF86C92C9F80C304FF4E8
:102378000008C4F81080802727614FF40076266192
:10238800C4F810B0C4F810A0D0B2C9F80C00C4F852
:102398001080276126618D4B9889FFF785FFC4F867
:1023A80010B0C4F810A02B0AC9F80C30C4F810807B
:1023B80027612661C4F810B0C4F810A0EDB2C9F8BE
:1023C8000C50C4F810802761266103B0BDE8F08F77
:1023D8007E4B9B79002B6CD17C4B1C88241AA4B2B1
:1023E800013CA4B25889FFF75FFF794B4FF4807C1A
:1023F800C3F810C04FF000771F61764E4FF0000E03
:10240800C6F80CE04FF400001861802119614FF400
:1024180000721A61C3F810C01F61C6F80CE0186199
:1024280019611A61C3F810C01F614FEA142EC6F86B
:102438000CE0186119611A61C3F810C01F61E4B299
:10244800F460186119611A61DFF88081B8F80C002E
:10245800FFF72AFF5E4B4FF4807CC3F810C04FF0A3
:10246800007119612A0A5B4FFA604FF400061E6179
:1024780080241C614FF400701861C3F810C0196102
:10248800EDB2FD601E611C611861C3F810C01961CE
:10249800B8F80220013A1512FD601E611C6118612E
:1024A800C3F810C01961D2B2FA601E611C611861CC
:1024B8008BE7DFF81881B8F80A00FFF7F5FE444B00
:1024C8004FF4807CC3F810C04FF000701861019A77
:1024D800120A404FFA604FF400061E6180241C6106
:1024E8004FF400711961C3F810C018619DF80420F9
:1024F800FA601E611C611961C3F810C01861B8F850
:102508000020013A4FEA222EC7F80CE01E611C6138
:102518001961C3F810C01861D2B2FA601E611C615B
:10252800196191E7DFF8A4A0BAF80A00FFF7BCFE2A
:10253800274C4FF48079C4F810904FF00078C4F815
:102548001080019B1B0A234FFB604FF40006266195
:102558004FF0800BC4F810B04FF400722261BAF843
:102568000A00013080B2FFF79FFEC4F81090C4F84B
:1025780010809DF80400F8602661C4F810B04FF48C
:1025880000722261BAF80C00FFF78EFEC4F81090B2
:10259800C4F810802B0AFB602661C4F810B04FF411
:1025A80000722261BAF80C00013080B2FFF77CFE9D
:1025B800C4F81090C4F81080EDB2FD602661C4F82C
:1025C80010B04FF400722261FFE600BF300A00200D
:1025D80000100140000C01402DE9F84F734B9B7926
:1025E800012B10D02BB9714B9A8841F663139A428C
:1025F8000FD00138062800F2C980DFE800F0B9B72B
:10260800B5B3B1AF1600694A918841F66312914299
:10261800E8D00728EDD8DFE800F0B7B5B1B3060475
:10262800AFAD002402E0802400E0E0245F4B9B88EB
:1026380045F21052934200F0AB80362049F2413205
:10264800934203D047F28972934201D144F00804BF
:102658002146FFF747FE554B9B8841F6631293428C
:102668000BD014F0200F00F09680504A1188528841
:10267800914202D24D480280418045F21052934265
:1026880000F09A80DFF824B1BBF80A00FFF70CFECF
:10269800474C4FF4807AC4F810A04FF00079C4F882
:1026A8001090DFF810810023C8F80C304FF40007B1
:1026B8002761802626614FF400752561C4F810A0B3
:1026C800C4F81090C8F80C30276126612561C4F859
:1026D80010A0C4F81090BBF80030013B1A12C8F8DB
:1026E8000C20276126612561C4F810A0C4F8109059
:1026F800DBB2C8F80C30276126612561BBF80C00F5
:10270800FFF7D2FDC4F810A0C4F810900023C8F851
:102718000C30276126612561C4F810A0C4F8109018
:10272800C8F80C30276126612561C4F810A0C4F8E8
:102738001090BBF80230013B1A12C8F80C20276130
:1027480026612561C4F810A0C4F81090DBB2C8F85F
:102758000C30276126612561BDE8F88FA02465E764
:10276800602463E7202461E7C0245FE740245DE735
:1027780080245BE7402459E7C02457E7202455E725
:10278800602453E7E02451E7A0244FE700244DE7F5
:102798004FF4585052E7054A1188528891427FF603
:1027A8006CAF02480280418067E700BF300A002012
:1027B80000100140000C0140484D6889FFF774FD86
:1027C800474C4FF4807BC4F810B04FF0007AC4F83F
:1027D80010A0DFF810910023C9F80C304FF400085E
:1027E800C4F81080802727614FF400762661688935
:1027F800013080B2FFF758FDC4F810B0C4F810A03B
:102808000023C9F80C30C4F8108027612661688954
:10281800023080B2FFF748FDC4F810B0C4F810A029
:102828002B88013B1B12C9F80C30C4F810802761B3
:1028380026616889033080B2FFF736FDC4F810B00E
:10284800C4F810A02B88013BDBB2C9F80C30C4F8DF
:10285800108027612661A889FFF726FDC4F810B00B
:10286800C4F810A00023C9F80C30C4F81080276100
:102878002661A889013080B2FFF716FDC4F810B0B0
:10288800C4F810A00023C9F80C30C4F810802761E0
:102898002661A889023080B2FFF706FDC4F810B09F
:1028A800C4F810A06B88013B1B12C9F80C30C4F89F
:1028B800108027612661A889033080B2FFF7F4FCF5
:1028C800C4F810B0C4F810A06B88013BDBB2C9F89B
:1028D8000C30C4F81080276126613DE7300A0020DB
:1028E80000100140000C014010B51446FFF71CFD14
:1028F800FFF712FD084B4FF480721A614FF0007217
:102908001A61064AD4604FF400021A6180221A61E3
:102918004FF400721A6110BD00100140000C014014
:102928002DE9F84F8346BE20FFF7BEFC2A4C4FF432
:10293800807AC4F810A04FF00079C4F81090DFF83E
:102948009C800523C8F80C304FF4000727618026C7
:1029580026614FF400752561C4F810A0C4F81090E2
:102968005846FDF7AFFD1AA3D3E90023FDF7AAFEE9
:10297800FDF712FEC8F80C00276126612561C4F82E
:1029880010A0C4F810900123C8F80C302761266104
:102998002561C4F810A0C4F81090FF23C8F80C30C3
:1029A800276126612561C4F810A0C4F8109000239F
:1029B800C8F80C30276126612561C4F810A0C4F856
:1029C8001090C8F80C30276126612561BDE8F88FA2
:1029D800666666666666044000100140000C0140A9
:1029E80008B5444B9871002843D1F0221A804FF45F
:1029F800A0725A809B8845F21052934212D041F639
:102A0800631293421FD03B4A2C2111812A21518104
:102A18002B21918145F21032934222D00020FFF7FA
:102A2800DBFD08BD334A4FF4305111814FF4285172
:102A380051814FF42C5191814FF4F07111804FF472
:102A480048715180E6E72B4A2C2111812B215181B5
:102A58002A2191814FF4F07111804FF4487151800F
:102A6800D8E7244B4FF4A0721A804FF4F0725A80C2
:102A7800D4E7204B4FF4A0721A80F0225A809B882A
:102A880045F21052934216D041F66312934223D076
:102A9800184A2C2111812A2151812B21918145F23B
:102AA80010329342BAD1134B4FF4F0721A804FF49C
:102AB800A0725A80B2E70F4A4FF4305111814FF497
:102AC800285151814FF42C5191814FF44871118054
:102AD8004FF4F0715180E2E7064A2C2111812A2136
:102AE80051812B2191814FF4487111804FF4F0717D
:102AF8005180D4E7300A002038B50546124B1A88B1
:102B08005C8802FB04F400210846FFF70DFCFFF780
:102B180003FC0E4B4FF480721A614FF000721A6179
:102B2800002309E00A4AD56002F580624FF40001EB
:102B38001161802111610133A342F3D3034B4FF498
:102B480000721A6138BD00BF300A00200010014031
:102B5800000C01402DE9F0478CB0B44B9A6942F063
:102B680010029A619A6902F010020192019A9A6918
:102B780042F010029A619A6902F010020292029AD7
:102B88009A6942F010029A619A6902F0100203925F
:102B9800039A9A6942F010029A619A6902F0100247
:102BA8000492049A9A6942F010029A619A6902F0B2
:102BB80010020592059A9A6942F008029A619A6988
:102BC80002F008020692069A9A6942F001029A6196
:102BD8009B6903F001030793079B954A536823F009
:102BE800E06343F0007353604FF48063089301255A
:102BF80009950A9503260B968E4C08A92046FEF7E0
:102C0800C7FC4FF40078CDF8208009950A950B96FB
:102C180008A92046FEF7BCFC4FF0800ACDF820A09A
:102C280008A92046FEF7B4FC4FF04009CDF82090E3
:102C380008A92046FEF7ACFC4FF48077089708A94E
:102C48002046FEF7A5FC4FF6FF76089609957A4DC3
:102C580008A92846FEF79CFCC4F810A0C4F81090F8
:102C6800C4F810802761EE60D320FFF71DFBFFF743
:102C7800CDFA724CA080FFF7C9FAA080FFF7C6FA18
:102C8800A0800002A080FFF7C1FAA388184380B291
:102C9800A08049F2413398422CD1684CA1886848F9
:102CA80002F0C8FBA38847F28972934200F0AB8018
:102CB80049F24132934200F0A98045F21032934222
:102CC80000F0A78045F21052934200F0A58041F62B
:102CD8006312934200F0A3800020FFF781FE554B5A
:102CE8004FF480621A614FF6FF70FFF705FF0CB0D2
:102CF800BDE8F0870420FFF7D7FAFFF787FAA0802E
:102D0800FFF784FAA080FFF781FAA0800002A08074
:102D1800FFF77CFAA388184380B2A08048F2525388
:102D280098426CD0454B9A8847F289739A42B4D03E
:102D3800D420FFF7B9FAFFF769FA404CA080FFF7F3
:102D480065FAA080FFF762FAA0800002A080FFF772
:102D58005DFAA388184380B2A08045F210339842E8
:102D68009BD055214FF47040FFF7BCFAAA214FF2CF
:102D78000100FFF7B7FA52214FF20200FFF7B2FA4B
:102D880008214FF20300FFF7ADFA01214FF20400CA
:102D9800FFF7A8FA4FF44540FFF786FAFFF736FA2F
:102DA800A0800002A0804CF20150FFF77DFAFFF7E7
:102DB8002DFAA3881843A0800520FFF707FAA288F8
:102DC80045F210539A423FF468AFA120FFF76CFA1E
:102DD800FFF71CFAA080FFF719FAA0800002A08074
:102DE800FFF714FAA38803439BB2A38045F26172EC
:102DF80093427FF452AF41F66312A2804DE747F247
:102E08008972A2808EE700F0DAF865E700F0ABF986
:102E180062E700F0BEFA5FE701F034FA5CE702F01F
:102E2800AFF96420FFF77CFD56E700BF00100240B1
:102E38000000014000100140000C0140300A002051
:102E4800D0D200082DE9F04F85B0824688461F464B
:102E58009DF838B0BDF83C30019317F0070318BF50
:102E6800012303EBD703790801FB03F3DBB20293D9
:102E7800A2F12003DBB2A7F10C02142A5ED8DFE826
:102E880002F00B5D5D5D155D5D5D5D5D5D5D1A5D0F
:102E98005D5D5D5D5D5D210003EB4303294A02EB47
:102EA8008303039344464FF000093FE0264A02EBB0
:102EB80003130393F6E703EBC303244A02EB8303EC
:102EC8000393EFE7224A02EB83130393EAE7019A9D
:102ED80021465046FFF708FD6D00EDB20134A4B25B
:102EE8001C4B5B88A34229D9A4EB08039F4210D04E
:102EF8000136F6B2072E15D815F0800FE7D1BBF1D1
:102F0800000FE9D1144B1A6821465046FFF7ECFC34
:102F1800E2E70AF1010A1FFA8AFA0E4B1B885345A9
:102F28000CD9444609F101095FFA89F9029B9945D0
:102F380004D2039B13F809500026DBE705B0BDE86F
:102F4800F08F00BFDCD2000850D7000840DD000831
:102F58009CEA0008300A00200C0000202DE9F04F00
:102F680083B082460D469DF830700D9EBDF838B08E
:102F780002441FFA82F90B441FFA83F804460EE054
:102F8800454519D2CDF804B0002300933B462946A5
:102F98002046FFF757FF04EB5704A4B201363278F6
:102FA800A2F12003DBB25E2B06D84C45E8D35FFACA
:102FB8008AF43D44ADB2E3E703B0BDE8F08F08B54D
:102FC8001120FFF771F97820FFF700F93620FFF795
:102FD8006BF90020FFF752F93A20FFF765F9052051
:102FE800FFF74CF9B220FFF75FF90C20FFF746F91D
:102FF8000C20FFF743F90020FFF740F93320FFF7D3
:103008003DF93320FFF73AF9B720FFF74DF935209E
:10301800FFF734F9BB20FFF747F93220FFF72EF905
:10302800C020FFF741F90C20FFF728F9C220FFF76D
:103038003BF90120FFF722F9C320FFF735F91020EB
:10304800FFF71CF9C420FFF72FF92020FFF716F926
:10305800C620FFF729F90F20FFF710F9D020FFF756
:1030680023F9A420FFF70AF9A120FFF707F9E020C8
:10307800FFF71AF9D020FFF701F90020FFF7FEF853
:103088000220FFF7FBF80720FFF7F8F80A20FFF700
:10309800F5F82820FFF7F2F83220FFF7EFF8442080
:1030A800FFF7ECF84220FFF7E9F80620FFF7E6F80B
:1030B8000E20FFF7E3F81220FFF7E0F81420FFF7DF
:1030C800DDF81720FFF7DAF8E120FFF7EDF8D02058
:1030D800FFF7D4F80020FFF7D1F80220FFF7CEF869
:1030E8000720FFF7CBF80A20FFF7C8F82820FFF7DA
:1030F800C5F83120FFF7C2F85420FFF7BFF8472082
:10310800FFF7BCF80E20FFF7B9F81C20FFF7B6F858
:103118001720FFF7B3F81B20FFF7B0F81E20FFF7C2
:10312800ADF82A20FFF7C0F80020FFF7A7F8002025
:10313800FFF7A4F80020FFF7A1F8EF20FFF79EF8AB
:103148002B20FFF7B1F80020FFF798F80020FFF7D1
:1031580095F80120FFF792F83F20FFF78FF8292014
:10316800FFF7A2F808BD08B5CF20FFF79DF80020AB
:10317800FFF784F8C120FFF781F83020FFF77EF8C9
:10318800ED20FFF791F86420FFF778F80320FFF7A8
:1031980075F81220FFF772F88120FFF76FF8E82022
:1031A800FFF782F88520FFF769F81020FFF766F827
:1031B8007A20FFF763F8CB20FFF776F83920FFF77E
:1031C8005DF82C20FFF75AF80020FFF757F8342055
:1031D800FFF754F80220FFF751F8F720FFF764F8DB
:1031E8002020FFF74BF8EA20FFF75EF80020FFF7F2
:1031F80045F80020FFF742F8C020FFF755F81B20DC
:10320800FFF73CF8C120FFF74FF80120FFF736F829
:10321800C520FFF749F83020FFF730F83020FFF7D6
:103228002DF8C720FFF740F8B720FFF727F836201A
:10323800FFF73AF84820FFF721F83A20FFF734F86B
:103248005520FFF71BF8B120FFF72EF80020FFF7F5
:1032580015F81A20FFF712F8B620FFF725F80A200C
:10326800FFF70CF8A220FFF709F8F220FFF71CF887
:103278000020FFF703F82620FFF716F80120FEF7D5
:10328800FDFFE020FFF710F80F20FEF7F7FF2A20D8
:10329800FEF7F4FF2820FEF7F1FF0820FEF7EEFF07
:1032A8000E20FEF7EBFF0820FEF7E8FF5420FEF79C
:1032B800E5FFA920FEF7E2FF4320FEF7DFFF0A2023
:1032C800FEF7DCFF0F20FEF7D9FF0020FEF7D6FF40
:1032D8000020FEF7D3FF0020FEF7D0FF0020FEF706
:1032E800CDFFE120FEF7E0FF0020FEF7C7FF152025
:1032F800FEF7C4FF1720FEF7C1FF0720FEF7BEFF49
:103308001120FEF7BBFF0620FEF7B8FF2B20FEF7C3
:10331800B5FF5620FEF7B2FF3C20FEF7AFFF0520B1
:10332800FEF7ACFF1020FEF7A9FF0F20FEF7A6FF5F
:103338003F20FEF7A3FF3F20FEF7A0FF0F20FEF778
:103348009DFF2B20FEF7B0FF0020FEF797FF00201F
:10335800FEF794FF0120FEF791FF3F20FEF78EFF56
:103368002A20FEF7A1FF0020FEF788FF0020FEF7C5
:1033780085FF0020FEF782FFEF20FEF77FFF112078
:10338800FEF792FF7820FEF721FF2920FEF78CFF39
:1033980008BD08B5ED20FEF787FF0120FEF76EFF98
:1033A800FE20FEF76BFFEE20FEF77EFFDE20FEF725
:1033B80065FF2120FEF762FFF120FEF775FF01206F
:1033C800FEF75CFFDF20FEF76FFF1020FEF756FFC9
:1033D800C420FEF769FF8F20FEF750FFC620FEF7D6
:1033E80063FF0020FEF74AFFE220FEF747FFE220D6
:1033F800FEF744FFE220FEF741FFBF20FEF754FF2F
:10340800AA20FEF73BFFB020FEF74EFF0D20FEF787
:1034180035FF0020FEF732FF0D20FEF72FFF0020BA
:10342800FEF72CFF1120FEF729FF0020FEF726FFEC
:103438001920FEF723FF0020FEF720FF2120FEF7CA
:103448001DFF0020FEF71AFF2D20FEF717FF0020B2
:10345800FEF714FF3D20FEF711FF0020FEF70EFFD8
:103468005D20FEF70BFF0020FEF708FF5D20FEF74A
:1034780005FF0020FEF702FFB120FEF715FF8020B0
:10348800FEF7FCFE0020FEF7F9FE8B20FEF7F6FEA5
:103498000020FEF7F3FE9620FEF7F0FE0020FEF770
:1034A800EDFEB220FEF700FF0020FEF7E7FE002049
:1034B800FEF7E4FE0220FEF7E1FE0020FEF7DEFE46
:1034C8000320FEF7DBFE0020FEF7D8FEB320FEF750
:1034D800EBFE0020FEF7D2FE0020FEF7CFFE002014
:1034E800FEF7CCFE0020FEF7C9FE0020FEF7C6FE60
:1034F8000020FEF7C3FE0020FEF7C0FE0020FEF706
:10350800BDFE0020FEF7BAFE0020FEF7B7FE002041
:10351800FEF7B4FE0020FEF7B1FE0020FEF7AEFE77
:103528000020FEF7ABFE0020FEF7A8FE0020FEF705
:10353800A5FE0020FEF7A2FE0020FEF79FFE002059
:10354800FEF79CFE0020FEF799FE0020FEF796FE8F
:103558000020FEF793FE0020FEF790FE0020FEF705
:103568008DFEB420FEF7A0FE8B20FEF787FE00201C
:10357800FEF784FE9620FEF781FE0020FEF77EFE11
:10358800A120FEF77BFE0020FEF778FEB520FEF7AF
:103598008BFE0220FEF772FE0020FEF76FFE03206E
:1035A800FEF76CFE0020FEF769FE0420FEF766FEBB
:1035B8000020FEF763FEB620FEF776FE0020FEF739
:1035C8005DFE0020FEF75AFEB720FEF76DFE0020D4
:1035D800FEF754FE0020FEF751FE3F20FEF74EFE98
:1035E8000020FEF74BFE5E20FEF748FE0020FEF7A7
:1035F80045FE6420FEF742FE0020FEF73FFE8C20C9
:10360800FEF73CFE0020FEF739FEAC20FEF736FE42
:103618000020FEF733FEDC20FEF730FE0020FEF728
:103628002DFE7020FEF72AFE0020FEF727FE9020D0
:10363800FEF724FE0020FEF721FEEB20FEF71EFE1B
:103648000020FEF71BFEDC20FEF718FE0020FEF728
:1036580015FEB820FEF728FE0020FEF70FFE00201A
:10366800FEF70CFE0020FEF709FE0020FEF706FE1E
:103678000020FEF703FE0020FEF700FE0020FEF704
:10368800FDFD0020FEF7FAFDBA20FEF70DFE24200E
:10369800FEF7F4FD0020FEF7F1FD0020FEF7EEFD39
:1036A8000020FEF7EBFDC120FEF7FEFD2020FEF70F
:1036B800E5FD0020FEF7E2FD5420FEF7DFFD0020C7
:1036C800FEF7DCFDFF20FEF7D9FD0020FEF7D6FD52
:1036D800C220FEF7E9FD0A20FEF7D0FD0020FEF724
:1036E800CDFD0420FEF7CAFD0020FEF7C7FDC3206C
:1036F800FEF7DAFD3C20FEF7C1FD0020FEF7BEFD17
:103708003A20FEF7BBFD0020FEF7B8FD3920FEF792
:10371800B5FD0020FEF7B2FD3720FEF7AFFD002013
:10372800FEF7ACFD3C20FEF7A9FD0020FEF7A6FD44
:103738003620FEF7A3FD0020FEF7A0FD3220FEF79D
:103748009DFD0020FEF79AFD2F20FEF797FD002033
:10375800FEF794FD2C20FEF791FD0020FEF78EFD6C
:103768002920FEF78BFD0020FEF788FD2620FEF7B6
:1037780085FD0020FEF782FD2420FEF77FFD002056
:10378800FEF77CFD2420FEF779FD0020FEF776FD8C
:103798002320FEF773FD0020FEF770FD3C20FEF7A6
:1037A8006DFD0020FEF76AFD3620FEF767FD00205C
:1037B800FEF764FD3220FEF761FD0020FEF75EFD96
:1037C8002F20FEF75BFD0020FEF758FD2C20FEF7AA
:1037D80055FD0020FEF752FD2920FEF74FFD002081
:1037E800FEF74CFD2620FEF749FD0020FEF746FDBA
:1037F8002420FEF743FD0020FEF740FD2420FEF7BD
:103808003DFD0020FEF73AFD2320FEF737FD00209E
:10381800FEF734FDC420FEF747FD6220FEF72EFDBB
:103828000020FEF72BFD0520FEF728FD0020FEF7FF
:1038380025FD8420FEF722FD0020FEF71FFDF02065
:10384800FEF71CFD0020FEF719FD1820FEF716FDF7
:103858000020FEF713FDA420FEF710FD0020FEF760
:103868000DFD1820FEF70AFD0020FEF707FD502089
:10387800FEF704FD0020FEF701FD0C20FEF7FEFC1C
:103888000020FEF7FBFC1720FEF7F8FC0020FEF7EF
:10389800F5FC9520FEF7F2FC0020FEF7EFFCF32084
:1038A800FEF7ECFC0020FEF7E9FCE620FEF7E6FC5C
:1038B8000020FEF7E3FCC520FEF7F6FC3220FEF7F9
:1038C800DDFC0020FEF7DAFC4420FEF7D7FC0020E0
:1038D800FEF7D4FC6520FEF7D1FC0020FEF7CEFCF5
:1038E8007620FEF7CBFC0020FEF7C8FC8820FEF708
:1038F800C5FC0020FEF7C2FCC620FEF7D5FC202040
:10390800FEF7BCFC0020FEF7B9FC1720FEF7B6FC5A
:103918000020FEF7B3FC0120FEF7B0FC0020FEF704
:10392800ADFCC720FEF7C0FC0020FEF7A7FC002076
:10393800FEF7A4FC0020FEF7A1FC0020FEF79EFC89
:10394800C820FEF7B1FC0020FEF798FC0020FEF727
:1039580095FC0020FEF792FC0020FEF78FFCC920A2
:10396800FEF7A2FC0020FEF789FC0020FEF786FC8B
:103978000020FEF783FC0020FEF780FC0020FEF705
:103988007DFC0020FEF77AFC0020FEF777FC002083
:10399800FEF774FC0020FEF771FC0020FEF76EFCB9
:1039A8000020FEF76BFC0020FEF768FC0020FEF705
:1039B80065FC0020FEF762FC0020FEF75FFC00209B
:1039C800FEF75CFCE020FEF76FFC1620FEF756FCC5
:1039D8000020FEF753FC1C20FEF750FC0020FEF7E9
:1039E8004DFC2120FEF74AFC0020FEF747FC36205C
:1039F800FEF744FC0020FEF741FC4620FEF73EFCA3
:103A08000020FEF73BFC5220FEF738FC0020FEF7B2
:103A180035FC6420FEF732FC0020FEF72FFC7A20EC
:103A2800FEF72CFC0020FEF729FC8B20FEF726FC75
:103A38000020FEF723FC9920FEF720FC0020FEF76B
:103A48001DFCA820FEF71AFC0020FEF717FCB92081
:103A5800FEF714FC0020FEF711FCC420FEF70EFC54
:103A68000020FEF70BFCCA20FEF708FC0020FEF73A
:103A780005FCD220FEF702FC0020FEF7FFFBD92050
:103A8800FEF7FCFB0020FEF7F9FBE020FEF7F6FB53
:103A98000020FEF7F3FBF320FEF7F0FB0020FEF713
:103AA800EDFBE120FEF700FC1620FEF7E7FB002007
:103AB800FEF7E4FB1C20FEF7E1FB0020FEF7DEFB2F
:103AC8002220FEF7DBFB0020FEF7D8FB3620FEF7AE
:103AD800D5FB0020FEF7D2FB4520FEF7CFFB0020E8
:103AE800FEF7CCFB5220FEF7C9FB0020FEF7C6FB11
:103AF8006420FEF7C3FB0020FEF7C0FB7A20FEF728
:103B0800BDFB0020FEF7BAFB8B20FEF7B7FB0020B9
:103B1800FEF7B4FB9920FEF7B1FB0020FEF7AEFBE1
:103B2800A820FEF7ABFB0020FEF7A8FBB920FEF7A4
:103B3800A5FB0020FEF7A2FBC420FEF79FFB002098
:103B4800FEF79CFBCA20FEF799FB0020FEF796FBC8
:103B5800D220FEF793FB0020FEF790FBD820FEF75B
:103B68008DFB0020FEF78AFBE020FEF787FB002094
:103B7800FEF784FBF320FEF781FB0020FEF77EFBB7
:103B8800E220FEF791FB0520FEF778FB0020FEF708
:103B980075FB0B20FEF772FB0020FEF76FFB1B2066
:103BA800FEF76CFB0020FEF769FB3420FEF766FB8E
:103BB8000020FEF763FB4420FEF760FB0020FEF7C1
:103BC8005DFB4F20FEF75AFB0020FEF757FB6120F4
:103BD800FEF754FB0020FEF751FB7920FEF74EFB61
:103BE8000020FEF74BFB8820FEF748FB0020FEF77D
:103BF80045FB9720FEF742FB0020FEF73FFBA6207F
:103C0800FEF73CFB0020FEF739FBB720FEF736FB3A
:103C18000020FEF733FBC220FEF730FB0020FEF742
:103C28002DFBC720FEF72AFB0020FEF727FBD1203B
:103C3800FEF724FB0020FEF721FBD620FEF71EFB33
:103C48000020FEF71BFBDD20FEF718FB0020FEF727
:103C580015FBF320FEF712FB0020FEF70FFBE32015
:103C6800FEF722FB0520FEF709FB0020FEF706FB06
:103C78000A20FEF703FB0020FEF700FB1C20FEF7DE
:103C8800FDFA0020FEF7FAFA3320FEF7F7FA0020D3
:103C9800FEF7F4FA4420FEF7F1FA0020FEF7EEFAF8
:103CA8005020FEF7EBFA0020FEF7E8FA6220FEF754
:103CB800E5FA0020FEF7E2FA7820FEF7DFFA0020A6
:103CC800FEF7DCFA8820FEF7D9FA0020FEF7D6FACC
:103CD8009720FEF7D3FA0020FEF7D0FAA620FEF7C9
:103CE800CDFA0020FEF7CAFAB720FEF7C7FA00207F
:103CF800FEF7C4FAC220FEF7C1FA0020FEF7BEFAAA
:103D0800C720FEF7BBFA0020FEF7B8FAD120FEF76D
:103D1800B5FA0020FEF7B2FAD520FEF7AFFA002078
:103D2800FEF7ACFADD20FEF7A9FA0020FEF7A6FAA6
:103D3800F320FEF7A3FA0020FEF7A0FAE420FEF72E
:103D4800B3FA0120FEF79AFA0020FEF797FA01204D
:103D5800FEF794FA0020FEF791FA0220FEF78EFA99
:103D68000020FEF78BFA2A20FEF788FA0020FEF7DB
:103D780085FA3C20FEF782FA0020FEF77FFA4B20F6
:103D8800FEF77CFA0020FEF779FA5D20FEF776FA56
:103D98000020FEF773FA7420FEF770FA0020FEF791
:103DA8006DFA8420FEF76AFA0020FEF767FA93207E
:103DB800FEF764FA0020FEF761FAA220FEF75EFA29
:103DC8000020FEF75BFAB320FEF758FA0020FEF752
:103DD80055FABE20FEF752FA0020FEF74FFAC4202B
:103DE800FEF74CFA0020FEF749FACD20FEF746FA16
:103DF8000020FEF743FAD320FEF740FA0020FEF732
:103E08003DFADD20FEF73AFA0020FEF737FAF320F4
:103E1800FEF734FA0020FEF731FAE520FEF744FAFF
:103E28000020FEF72BFA0020FEF728FA0020FEF704
:103E380025FA0020FEF722FA0220FEF71FFA0020DA
:103E4800FEF71CFA2920FEF719FA0020FEF716FAE9
:103E58003C20FEF713FA0020FEF710FA4B20FEF77D
:103E68000DFA0020FEF70AFA5D20FEF707FA002097
:103E7800FEF704FA7420FEF701FA0020FEF7FEF9B7
:103E88008420FEF7FBF90020FEF7F8F99320FEF7EF
:103E9800F5F90020FEF7F2F9A220FEF7EFF900206D
:103EA800FEF7ECF9B320FEF7E9F90020FEF7E6F992
:103EB800BE20FEF7E3F90020FEF7E0F9C420FEF784
:103EC800DDF90020FEF7DAF9CD20FEF7D7F900205A
:103ED800FEF7D4F9D320FEF7D1F90020FEF7CEF98A
:103EE800DC20FEF7CBF90020FEF7C8F9F320FEF737
:103EF800C5F90020FEF7C2F9E620FEF7D5F9112032
:103F0800FEF7BCF90020FEF7B9F93420FEF7B6F940
:103F18000020FEF7B3F95620FEF7B0F90020FEF7AF
:103F2800ADF97620FEF7AAF90020FEF7A7F9772069
:103F3800FEF7A4F90020FEF7A1F96620FEF79EF926
:103F48000020FEF79BF98820FEF798F90020FEF77D
:103F580095F99920FEF792F90020FEF78FF9BB201A
:103F6800FEF78CF90020FEF789F99920FEF786F90B
:103F78000020FEF783F96620FEF780F90020FEF79F
:103F88007DF95520FEF77AF90020FEF777F95520DC
:103F9800FEF774F90020FEF771F94520FEF76EF977
:103FA8000020FEF76BF94320FEF768F90020FEF7C2
:103FB80065F94420FEF762F90020FEF75FF9E72073
:103FC800FEF772F93220FEF759F90020FEF756F98C
:103FD8005520FEF753F90020FEF750F97620FEF73A
:103FE8004DF90020FEF74AF96620FEF747F9002050
:103FF800FEF744F96720FEF741F90020FEF73EF985
:104008006720FEF73BF90020FEF738F98720FEF716
:1040180035F90020FEF732F99920FEF72FF9002034
:10402800FEF72CF9BB20FEF729F90020FEF726F948
:104038009920FEF723F90020FEF720F97720FEF7F4
:104048001DF90020FEF71AF94420FEF717F90020A1
:10405800FEF714F95620FEF711F90020FEF70EF9C5
:104068002320FEF70BF90020FEF708F93320FEF7AE
:1040780005F90020FEF702F94520FEF7FFF80020B9
:10408800FEF7FCF8E820FEF70FF90020FEF7F6F837
:104098000020FEF7F3F89920FEF7F0F80020FEF76D
:1040A800EDF88720FEF7EAF80020FEF7E7F8882009
:1040B800FEF7E4F80020FEF7E1F87720FEF7DEF8D7
:1040C8000020FEF7DBF86620FEF7D8F80020FEF7A0
:1040D800D5F88820FEF7D2F80020FEF7CFF8AA20FE
:1040E800FEF7CCF80020FEF7C9F8BB20FEF7C6F8AB
:1040F8000020FEF7C3F89920FEF7C0F80020FEF76D
:10410800BDF86620FEF7BAF80020FEF7B7F855208C
:10411800FEF7B4F80020FEF7B1F85520FEF7AEF828
:104128000020FEF7ABF84420FEF7A8F80020FEF7C1
:10413800A5F84420FEF7A2F80020FEF79FF85520C6
:10414800FEF79CF80020FEF799F8E920FEF7ACF896
:10415800AA20FEF793F80020FEF790F80020FEF75B
:104168008DF80020FEF78AF80020FEF79DF8AA20B7
:10417800FEF784F8CF20FEF797F80020FEF77EF8C8
:104188000020FEF77BF80020FEF778F80020FEF705
:1041980075F80020FEF772F80020FEF76FF800208F
:1041A800FEF76CF80020FEF769F80020FEF766F8C5
:1041B8000020FEF763F80020FEF760F80020FEF705
:1041C8005DF80020FEF75AF80020FEF757F80020A7
:1041D800FEF754F80020FEF751F80020FEF74EF8DD
:1041E800F020FEF761F80020FEF748F85020FEF7AF
:1041F80045F80020FEF742F80020FEF73FF80020BF
:10420800FEF73CF8F320FEF74FF80020FEF736F8EB
:10421800F920FEF749F80620FEF730F81020FEF7DF
:104228002DF82920FEF72AF80020FEF727F83A2073
:10423800FEF73AF85520FEF721F81120FEF734F87A
:104248006420FDF7C3FF2920FEF72EF83520FEF77E
:104258002BF80020FEF712F85120FEF725F8FF2072
:10426800FEF70CF85320FEF71FF82C20FEF706F88F
:104278005520FEF719F88220FEF700F82C20FEF7EB
:1042880013F808BD08B555214FF47040FEF72AF819
:10429800AA214FF20100FEF725F852214FF2020041
:1042A800FEF720F808214FF20300FEF71BF8012162
:1042B8004FF20400FEF716F80D214FF43040FEF7D8
:1042C80011F80D214BF20100FEF70CF80D214BF20D
:1042D8000200FEF707F834214FF43640FEF702F8E3
:1042E80034214BF20160FDF7FDFF34214BF20260EF
:1042F800FDF7F8FF0D214FF43140FDF7F3FF0D21D5
:104308004BF20110FDF7EEFF0D214BF20210FDF705
:10431800E9FF34214FF43740FDF7E4FF34214BF235
:104328000170FDF7DFFF34214BF20270FDF7DAFF71
:1043380000214FF43240FDF7D5FF00214BF2012058
:10434800FDF7D0FF00214BF20220FDF7CBFF24211F
:104358004FF43840FDF7C6FF24214BF60100FDF766
:10436800C1FF24214BF60200FDF7BCFF01214FF4E9
:104378003F40FDF7B7FF0F214FF43340FDF7B2FF81
:104388000F214BF20130FDF7ADFF0F214BF2023048
:10439800FDF7A8FF34214FF43940FDF7A3FF34217E
:1043A8004BF60110FDF79EFF34214BF60210FDF786
:1043B80099FF08214FF43540FDF794FF08214BF28F
:1043C8000150FDF78FFF08214BF20250FDF78AFFDD
:1043D80003214FF44240FDF785FF24214FF43A4072
:1043E800FDF780FF24214BF60120FDF77BFF2421F8
:1043F8004BF60220FDF776FF00214FF43C40FDF715
:1044080071FF78214BF60140FDF76CFF00214BF658
:104418000240FDF767FF00214FF43D40FDF762FFC2
:1044280078214BF60150FDF75DFF00214BF6025055
:10443800FDF758FF00214FF43E40FDF753FF64217C
:104448004BF60160FDF74EFF00214FF45140FDF798
:1044580049FF33214DF20110FDF744FF00214DF2D1
:104468000210FDF73FFF34214DF20310FDF73AFF2C
:1044780000214DF20410FDF735FF3A214DF20510E9
:10448800FDF730FF00214DF20610FDF72BFF4A2102
:104498004DF20710FDF726FF00214DF20810FDF739
:1044A80021FF5C214DF20910FDF71CFF00214DF2A0
:1044B8000A10FDF717FF81214DF20B10FDF712FFCF
:1044C80000214DF20C10FDF70DFFA6214DF20D1045
:1044D800FDF708FF00214DF20E10FDF703FFE5215F
:1044E8004DF20F10FDF7FEFE01214DF21010FDF701
:1044F800F9FE13214DF21110FDF7F4FE01214DF2E2
:104508001210FDF7EFFE54214DF21310FDF7EAFEED
:1045180001214DF21410FDF7E5FE82214DF2151030
:10452800FDF7E0FE01214DF21610FDF7DBFECA2172
:104538004DF21710FDF7D6FE02214DF21810FDF7C7
:10454800D1FE00214DF21910FDF7CCFE02214DF2EB
:104558001A10FDF7C7FE01214DF21B10FDF7C2FE30
:1045680002214DF21C10FDF7BDFE34214DF21D1045
:10457800FDF7B8FE02214DF21E10FDF7B3FE6721CC
:104588004DF21F10FDF7AEFE02214DF22010FDF78F
:10459800A9FE84214DF22110FDF7A4FE02214DF25F
:1045A8002210FDF79FFEA4214DF22310FDF79AFE7D
:1045B80002214DF22410FDF795FEB7214DF225108A
:1045C800FDF790FE02214DF22610FDF78BFECF215C
:1045D8004DF22710FDF786FE02214DF22810FDF757
:1045E80081FEDE214DF22910FDF77CFE02214DF2FD
:1045F8002A10FDF777FEF2214DF22B10FDF772FE1F
:1046080002214DF22C10FDF76DFEFE214DF22D100A
:10461800FDF768FE03214DF22E10FDF763FE102111
:104628004DF22F10FDF75EFE03214DF23010FDF71D
:1046380059FE33214DF23110FDF754FE03214DF29E
:104648003210FDF74FFE6D214DF23310FDF74AFE93
:1046580000214FF45240FDF745FE33214DF2012071
:10466800FDF740FE00214DF20220FDF73BFE34210C
:104678004DF20320FDF736FE00214DF20420FDF730
:1046880031FE3A214DF20520FDF72CFE00214DF2B6
:104698000620FDF727FE4A214DF20720FDF722FEEE
:1046A80000214DF20820FDF71DFE5C214DF2092086
:1046B800FDF718FE00214DF20A20FDF713FE8121B7
:1046C8004DF20B20FDF70EFE00214DF20C20FDF7F8
:1046D80009FEA6214DF20D20FDF704FE00214DF242
:1046E8000E20FDF7FFFDE5214DF20F20FDF7FAFD45
:1046F80001214DF21020FDF7F5FD13214DF2112097
:10470800FDF7F0FD01214DF21220FDF7EBFD5421DC
:104718004DF21320FDF7E6FD01214DF21420FDF7BF
:10472800E1FD82214DF21520FDF7DCFD01214DF25E
:104738001620FDF7D7FDCA214DF21720FDF7D2FD4F
:1047480002214DF21820FDF7CDFD00214DF2192070
:10475800FDF7C8FD02214DF21A20FDF7C3FD012126
:104768004DF21B20FDF7BEFD02214DF21C20FDF786
:10477800B9FD34214DF21D20FDF7B4FD02214DF2A3
:104788001E20FDF7AFFD67214DF21F20FDF7AAFDA2
:1047980002214DF22020FDF7A5FD84214DF22120B4
:1047A800FDF7A0FD02214DF22220FDF79BFDA4217B
:1047B8004DF22320FDF796FD02214DF22420FDF74E
:1047C80091FDB7214DF22520FDF78CFD02214DF218
:1047D8002620FDF787FDCF214DF22720FDF782FD2A
:1047E80002214DF22820FDF77DFDDE214DF2292022
:1047F800FDF778FD02214DF22A20FDF773FDF22125
:104808004DF22B20FDF76EFD02214DF22C20FDF715
:1048180069FDFE214DF22D20FDF764FD03214DF2C7
:104828002E20FDF75FFD10214DF22F20FDF75AFDD8
:1048380003214DF23020FDF755FD33214DF2312093
:10484800FDF750FD03214DF23220FDF74BFD6D21A0
:104858004DF23320FDF746FD00214FF45340FDF79C
:1048680041FD33214DF20130FDF73CFD00214DF2B1
:104878000230FDF737FD34214DF20330FDF732FDEC
:1048880000214DF20430FDF72DFD3A214DF205309F
:10489800FDF728FD00214DF20630FDF723FD4A21E2
:1048A8004DF20730FDF71EFD00214DF20830FDF7EF
:1048B80019FD5C214DF20930FDF714FD00214DF280
:1048C8000A30FDF70FFD81214DF20B30FDF70AFD8F
:1048D80000214DF20C30FDF705FDA6214DF20D30FB
:1048E800FDF700FD00214DF20E30FDF7FBFCE52140
:1048F8004DF20F30FDF7F6FC01214DF21030FDF7B7
:10490800F1FC13214DF21130FDF7ECFC01214DF2C1
:104918001230FDF7E7FC54214DF21330FDF7E2FCAD
:1049280001214DF21430FDF7DDFC82214DF21530E6
:10493800FDF7D8FC01214DF21630FDF7D3FCCA2152
:104948004DF21730FDF7CEFC02214DF21830FDF77D
:10495800C9FC00214DF21930FDF7C4FC02214DF2CB
:104968001A30FDF7BFFC01214DF21B30FDF7BAFCF0
:1049780002214DF21C30FDF7B5FC34214DF21D30FB
:10498800FDF7B0FC02214DF21E30FDF7ABFC6721AC
:104998004DF21F30FDF7A6FC02214DF22030FDF745
:1049A800A1FC84214DF22130FDF79CFC02214DF23F
:1049B8002230FDF797FCA4214DF22330FDF792FC3D
:1049C80002214DF22430FDF78DFCB7214DF2253040
:1049D800FDF788FC02214DF22630FDF783FCCF213C
:1049E8004DF22730FDF77EFC02214DF22830FDF70D
:1049F80079FCDE214DF22930FDF774FC02214DF2DD
:104A08002A30FDF76FFCF2214DF22B30FDF76AFCDE
:104A180002214DF22C30FDF765FCFE214DF22D30C0
:104A2800FDF760FC03214DF22E30FDF75BFC1021F1
:104A38004DF22F30FDF756FC03214DF23030FDF7D3
:104A480051FC33214DF23130FDF74CFC03214DF27E
:104A58003230FDF747FC6D214DF23330FDF742FC53
:104A680000214FF45440FDF73DFC33214DF2014045
:104A7800FDF738FC00214DF20240FDF733FC3421EC
:104A88004DF20340FDF72EFC00214DF20440FDF7E6
:104A980029FC3A214DF20540FDF724FC00214DF296
:104AA8000640FDF71FFC4A214DF20740FDF71AFCAE
:104AB80000214DF20840FDF715FC5C214DF209403C
:104AC800FDF710FC00214DF20A40FDF70BFC812197
:104AD8004DF20B40FDF706FC00214DF20C40FDF7AE
:104AE80001FCA6214DF20D40FDF7FCFB00214DF223
:104AF8000E40FDF7F7FBE5214DF20F40FDF7F2FB05
:104B080001214DF21040FDF7EDFB13214DF211404C
:104B1800FDF7E8FB01214DF21240FDF7E3FB5421BC
:104B28004DF21340FDF7DEFB01214DF21440FDF775
:104B3800D9FB82214DF21540FDF7D4FB01214DF23E
:104B48001640FDF7CFFBCA214DF21740FDF7CAFB0F
:104B580002214DF21840FDF7C5FB00214DF2194026
:104B6800FDF7C0FB02214DF21A40FDF7BBFB012106
:104B78004DF21B40FDF7B6FB02214DF21C40FDF73C
:104B8800B1FB34214DF21D40FDF7ACFB02214DF283
:104B98001E40FDF7A7FB67214DF21F40FDF7A2FB62
:104BA80002214DF22040FDF79DFB84214DF221406A
:104BB800FDF798FB02214DF22240FDF793FBA4215B
:104BC8004DF22340FDF78EFB02214DF22440FDF704
:104BD80089FBB7214DF22540FDF784FB02214DF2F8
:104BE8002640FDF77FFBCF214DF22740FDF77AFBEA
:104BF80002214DF22840FDF775FBDE214DF22940D8
:104C0800FDF770FB02214DF22A40FDF76BFBF22104
:104C18004DF22B40FDF766FB02214DF22C40FDF7CB
:104C280061FBFE214DF22D40FDF75CFB03214DF2A7
:104C38002E40FDF757FB10214DF22F40FDF752FB98
:104C480003214DF23040FDF74DFB33214DF2314049
:104C5800FDF748FB03214DF23240FDF743FB6D2180
:104C68004DF23340FDF73EFB00214FF45540FDF770
:104C780039FB33214DF20150FDF734FB00214DF291
:104C88000250FDF72FFB34214DF20350FDF72AFBAC
:104C980000214DF20450FDF725FB3A214DF2055055
:104CA800FDF720FB00214DF20650FDF71BFB4A21C2
:104CB8004DF20750FDF716FB00214DF20850FDF7A5
:104CC80011FB5C214DF20950FDF70CFB00214DF260
:104CD8000A50FDF707FB81214DF20B50FDF702FB4F
:104CE80000214DF20C50FDF7FDFAA6214DF20D50B2
:104CF800FDF7F8FA00214DF20E50FDF7F3FAE52121
:104D08004DF20F50FDF7EEFA01214DF21050FDF76C
:104D1800E9FA13214DF21150FDF7E4FA01214DF2A1
:104D28001250FDF7DFFA54214DF21350FDF7DAFA6D
:104D380001214DF21450FDF7D5FA82214DF215509C
:104D4800FDF7D0FA01214DF21650FDF7CBFACA2132
:104D58004DF21750FDF7C6FA02214DF21850FDF733
:104D6800C1FA00214DF21950FDF7BCFA02214DF2AB
:104D78001A50FDF7B7FA01214DF21B50FDF7B2FAB0
:104D880002214DF21C50FDF7ADFA34214DF21D50B1
:104D9800FDF7A8FA02214DF21E50FDF7A3FA67218C
:104DA8004DF21F50FDF79EFA02214DF22050FDF7FB
:104DB80099FA84214DF22150FDF794FA02214DF21F
:104DC8002250FDF78FFAA4214DF22350FDF78AFAFD
:104DD80002214DF22450FDF785FAB7214DF22550F6
:104DE800FDF780FA02214DF22650FDF77BFACF211C
:104DF8004DF22750FDF776FA02214DF22850FDF7C3
:104E080071FADE214DF22950FDF76CFA02214DF2BC
:104E18002A50FDF767FAF2214DF22B50FDF762FA9E
:104E280002214DF22C50FDF75DFAFE214DF22D5076
:104E3800FDF758FA03214DF22E50FDF753FA1021D1
:104E48004DF22F50FDF74EFA03214DF23050FDF789
:104E580049FA33214DF23150FDF744FA03214DF25E
:104E68003250FDF73FFA6D214DF23350FDF73AFA13
:104E780000214FF45640FDF735FA33214DF2016019
:104E8800FDF730FA00214DF20260FDF72BFA3421CC
:104E98004DF20360FDF726FA00214DF20460FDF79C
:104EA80021FA3A214DF20560FDF71CFA00214DF276
:104EB8000660FDF717FA4A214DF20760FDF712FA6E
:104EC80000214DF20860FDF70DFA5C214DF20960F2
:104ED800FDF708FA00214DF20A60FDF703FA812177
:104EE8004DF20B60FDF7FEF900214DF20C60FDF765
:104EF800F9F9A6214DF20D60FDF7F4F900214DF204
:104F08000E60FDF7EFF9E5214DF20F60FDF7EAF9C4
:104F180001214DF21060FDF7E5F913214DF2116002
:104F2800FDF7E0F901214DF21260FDF7DBF954219C
:104F38004DF21360FDF7D6F901214DF21460FDF72B
:104F4800D1F982214DF21560FDF7CCF901214DF21E
:104F58001660FDF7C7F9CA214DF21760FDF7C2F9CF
:104F680002214DF21860FDF7BDF900214DF21960DC
:104F7800FDF7B8F902214DF21A60FDF7B3F90121E6
:104F88004DF21B60FDF7AEF902214DF21C60FDF7F2
:104F9800A9F934214DF21D60FDF7A4F902214DF263
:104FA8001E60FDF79FF967214DF21F60FDF79AF922
:104FB80002214DF22060FDF795F984214DF2216020
:104FC800FDF790F902214DF22260FDF78BF9A4213B
:104FD8004DF22360FDF786F902214DF22460FDF7BA
:104FE80081F9B7214DF22560FDF77CF902214DF2D8
:104FF8002660FDF777F9CF214DF22760FDF772F9AA
:1050080002214DF22860FDF76DF9DE214DF229608D
:10501800FDF768F902214DF22A60FDF763F9F221E4
:105028004DF22B60FDF75EF902214DF22C60FDF781
:1050380059F9FE214DF22D60FDF754F903214DF287
:105048002E60FDF74FF910214DF22F60FDF74AF958
:1050580003214DF23060FDF745F933214DF23160FF
:10506800FDF740F903214DF23260FDF73BF96D2160
:105078004DF23360FDF736F955214FF47040FDF7D6
:1050880031F9AA214FF20100FDF72CF952214FF214
:105098000200FDF727F908214FF20300FDF722F976
:1050A80000214FF20400FDF71DF9CC214FF43140E7
:1050B800FDF718F900214BF20110FDF713F905214E
:1050C8004FF43640FDF70EF970214FF43740FDF7E5
:1050D80009F970214BF20170FDF704F901214FF431
:1050E8003840FDF7FFF803214BF60100FDF7FAF809
:1050F80003214BF60200FDF7F5F803214BF60300F8
:10510800FDF7F0F802214FF43C40FDF7EBF80021E1
:105118004BF60140FDF7E6F800214BF60240FDF79B
:10512800E1F8D0214FF44940FDF7DCF802214CF6B4
:105138000110FDF7D7F850214CF60210FDF7D2F810
:1051480050214CF60310FDF7CDF850214CF6041011
:10515800FDF7C8F800214FF45450FDF7C3F8552166
:105168004FF46850FDF7BEF84FF48850FDF79CF8EF
:105178007820FDF70BF84FF42450FDF795F808BD9B
:1051880008B5E220FDF790F81D20FDF777F802201A
:10519800FDF774F80420FDF771F86420FCF7F6FFBA
:1051A800E020FDF781F80120FDF768F80A20FDF7F7
:1051B8000DF8E020FDF778F80320FDF75FF80C20E4
:1051C800FDF704F80120FDF76FF80A20FCF7FEFF51
:1051D800E620FDF769F82F20FDF750F8FF20FDF7CE
:1051E8004DF8FF20FDF74AF8B020FDF75DF82020C4
:1051F800FDF744F80020FDF741F80320FDF73EF8DD
:1052080040F21F30FDF73AF80120FDF737F840F279
:10521800DF10FDF733F80020FDF730F8B420FDF774
:1052280043F80420FDF72AF840F21F40FDF726F85E
:105238000020FDF723F82E20FDF720F80020FDF7C9
:105248001DF80020FDF71AF80020FDF717F80020D8
:10525800FDF714F8B620FDF727F80220FDF70EF841
:105268004FF40370FDF70AF80020FDF707F8172040
:10527800FDF704F81520FDF701F80020FCF7FEFF04
:105288000020FCF7FBFFF020FDF70EF80320FCF7E9
:10529800F5FF2920FDF708F8D020FDF705F80020D4
:1052A800FCF7ECFFBE20FCF7FFFF0520FCF7E6FF4C
:1052B800FE20FCF7E3FF0120FCF7E0FF0020FCF7ED
:1052C800DDFF0020FCF7DAFF0020FCF7D7FFB8204D
:1052D800FCF7EAFF0320FCF7D1FF0120FCF7CEFF23
:1052E800BA20FCF7E1FF0120FCF7C8FF08BD000069
:1052F8000C480D490D4A002302E0D458C450043329
:10530800C4188C42F9D30A4A0A4C002301E01360FE
:105318000432A242FBD3FCF72BF800F015F8FBF798
:1053280093FE704700000020C00900209406010881
:10533800C0090020880A0020FEE70000014B186819
:10534800704700BF1400002070B50D4E0D4D761B40
:10535800B61006D0002455F8043B01349847A642FD
:10536800F9D1094E094D07F065FF761BB61006D036
:10537800002455F8043B01349847A642F9D170BD82
:1053880088060108880601089006010888060108B1
:10539800830730B548D0541E002A3FD00346CAB20E
:1053A80001E0013C3AD303F8012B9D07F9D1032C06
:1053B8002DD9CDB245EA05250F2C45EA054536D944
:1053C800A4F1100222F00F0C03F1200EE6444FEA7C
:1053D800121C03F1100242E9045542E90255103249
:1053E8007245F8D10CF1010214F00C0F03EB021214
:1053F80004F00F0C13D0ACF1040323F003030433BF
:10540800134442F8045B9342FBD10CF003042CB123
:10541800CAB21C4403F8012B9C42FBD130BD644640
:105428001346002CF4D1F9E703461446BFE71A46A1
:10543800A446E0E70FB400B5074A83B004AB106890
:1054480053F8042B8168019301F0D8FE03B05DF88E
:1054580004EB04B0704700BF1400002030B50546C7
:1054680089B008460C4600F049F901210223214A77
:1054780004940692AA6B04AC059008440194079121
:10548800AC680293039022B3636E13F0010FB4F972
:105498000C309AB201D1980525D5910406D4626ED4
:1054A80043F4005322F40052A3816266284601AAFD
:1054B800214604F0C5FF636E002814BF4FF0FF3586
:1054C8000A25DA0702D4A3899B0506D5284609B020
:1054D80030BD284604F0BCFDD6E7A06D05F056F9AE
:1054E800284609B030BDA06D05F04EF9B4F90C306E
:1054F8009AB2D2E760020108024B01461868FFF72A
:10550800ADBF00BF140000202DE9F043694C0E46E2
:10551800D4F80080174604461D4683B0B8F1000F42
:1055280003D0D8F83830002B77D0022F05D0012FC0
:1055380000F2AC80002DC0F2A980636EDA0752D564
:105548002146404604F050FD216B41B104F140036F
:10555800994202D0404604F073FE002323630023DF
:10556800B4F90CC0A3611CF0800F636064D12CF403
:105578004A6C2CF0030C022FA4F80CC06AD001ABC3
:10558800214640466A4605F073F9A3891843A0816D
:10559800002D2FD0002E2ED0D8F83830002B38D040
:1055A800009BC4E90465AB42B4F90C3026601CBF0B
:1055B80043F40063A381012F04BF43F00103A381D7
:1055C8009AB213F008032CD0D1075DD500216D42A3
:1055D800A561656EA16015F0010527D00025284654
:1055E80003B0BDE8F083A3899B05A9D4A06D05F09D
:1055F800CBF8A5E7009D284605F06AF9064600287D
:1056080047D0A38943F08003A381D8F83830002B12
:10561800C6D1404604F01CFDC2E7404604F018FD20
:1056280083E7A360656E15F00105D7D1930524D5EE
:10563800284603B0BDE8F0834046216904F000FE27
:10564800B4F90CC0022F2CF44A6C2CF0030CA4F80B
:105658000CC094D100250021012204F143032360EA
:105668002361636E4CF0020CD807A4F80CC0A1604B
:105678006261DDD41CF4007FDAD1A06D05F086F8F4
:10568800284603B0BDE8F083A560CBE74FF0FF35AF
:10569800CEE7DDF80090A94504D0484605F018F992
:1056A800064620B94FF0FF35B4F90CC0D3E74D4694
:1056B800A7E700BF140000200EB430B504466FF011
:1056C80000459CB00B4A1FAB0B49059253F8042BBD
:1056D800086802A9CDE9013407950495069400F0FD
:1056E8003BF80022029B1A701CB0BDE8304003B0A2
:1056F800704700BF0802FFFF1400002020F00301DC
:1057080010F00300C0F1000051F8043B00F1040C54
:105718004FEACC0C6FF000021CBF22FA0CF21343C4
:105728004FF0010C4CEA0C2C4CEA0C4CA3EB0C028D
:1057380022EA030212EACC1204BF51F8043B0430F7
:10574800F4D0C2F1000102EA0102B2FA82F2C2F117
:105758001F0200EBD20070472DE9F04FD5B00C4680
:105768000C9191460E930A9005F006F803681846C6
:105778001793FFF7C3FFA3891690190603D523696A
:10578800002B00F08F8700242BAB224698464D460D
:10579800CDE929442893129400230024CDE9143438
:1057A8002B78CDE91922CDE91B2218920892002BFB
:1057B80000F0CE81AA4604E01AF8013F002B00F061
:1057C8000981252BF8D1BAEB050640F007819AF834
:1057D8000030002B00F0BC8100234FF0FF324FF067
:1057E8002B0920241F469AF8016007920AF1010A42
:1057F8008DF8833009930AF1010AA6F120035A2B88
:1058080000F22081DFE813F0CA021E011E01C50262
:105818001E011E011E01A3021E011E016A00F302E1
:105828001E014702D9021E01D4025B005B005B0027
:105838005B005B005B005B005B005B001E011E0100
:105848001E011E011E011E011E01B0011E010B02D8
:105858007A00B001B001B0011E011E011E011E0137
:105868009E021E011E01B6001E011E011E01190224
:105878001E014C021E011E013F071E011E011E01D2
:105888001E011E011E011E011E01B0011E010B0298
:105898007C00B001B001B00191027C0075001E01CE
:1058A80084021E017002B8005E0275001E01190212
:1058B80072001C071E011E011F071E017200002234
:1058C800A6F130031AF8016B02EB820203EB4202E5
:1058D800A6F13003092BF5D909928EE70E9B53F8F0
:1058E800042B002A09920E93C0F2D2819AF8006024
:1058F80081E79AF8006047F020077CE747F0100737
:10590800BA060E9B40F17D81073323F007031A4640
:105918005B6852F8084B99460E92002BC0F27F85BF
:10592800079B013301F0398054EA090327F0800B03
:1059380000F005850A2C79F1000380F09387012394
:105948005F4630348DF84F410B930DF24F15079A8F
:105958000B9900238A42B8BF0A4606929DF8832015
:105968000D930F9313931093002A7CD0069B013359
:10597800069378E047F0100717F0200900F032810D
:105988000E9B073323F00703D3F8049053F8084B12
:105998000E93002327F4806B00228DF88320079A4A
:1059A800511C00F02A8254EA09012BF0800740F0CC
:1059B8002382002A41F02B80002B40F0C5841BF085
:1059C80001030B9300F0548530230DF24F158DF829
:1059D8004F31BCE7BAEB050600F0BA802A9BC8E94C
:1059E800005633442A93299B0133072B299305DC5E
:1059F80008F10808089B33440893E8E60C990A98CC
:105A080028AA06F03FF980B90DF1AC08F2E70C9925
:105A18000A9828AA06F036F9002800F08A800D9B1B
:105A28001BB10D990A9804F00BFC0C9B9B8913F091
:105A3800400F089B18BF4FF0FF330893089855B0E4
:105A4800BDE8F08F002E00F08380012300228DF83E
:105A5800EC6006933BAD8DF883200B930D92079273
:105A68000F921392109217F0020302D00699023196
:105A7800069117F0840B07D109990698A1EB000944
:105A8800B9F1000F00F336832A9C82B10122C8F8CD
:105A98000420299A013401320DF18301072A2A943E
:105AA8002992C8F8001000F3698308F108087BB14F
:105AB8000223C8F80430299B0234013321AA072B9A
:105AC8002A942993C8F8002000F36C8308F1080889
