:020000040800F2
:1000000000C00020D93E00086D2200086F220008C1
:100010007122000873220008752200080000000009
:10002000000000000000000000000000772200082F
:1000300079220008000000007B2200087D220008D1
:10004000213F0008213F0008213F0008213F000810
:10005000213F0008213F0008213F0008213F000800
:10006000213F0008213F0008213F0008213F0008F0
:10007000213F0008213F000885220008213F000899
:10008000213F0008213F0008213F0008213F0008D0
:10009000213F0008213F0008213F0008213F0008C0
:1000A000213F000895220008213F0008213F000859
:1000B000213F0008213F0008213F0008213F0008A0
:1000C000213F0008213F0008213F0008213F000890
:1000D000213F0008A5220008213F0008213F000819
:1000E000213F0008213F0008213F0008213F000870
:1000F000213F0008213F0008213F0008213F000860
:10010000213F0008213F0008213F0008213F00084F
:10011000213F0008213F0008213F0008213F00083F
:10012000213F0008213F0008213F0008213F00082F
:1001300000000000000000000000000000000000BF
:1001400000000000000000000000000000000000AF
:10015000000000000000000000000000000000009F
:10016000000000000000000000000000000000008F
:10017000000000000000000000000000000000007F
:10018000000000000000000000000000000000006F
:10019000000000000000000000000000000000005F
:1001A000000000000000000000000000000000004F
:1001B000000000000000000000000000000000003F
:1001C000000000000000000000000000000000002F
:1001D000000000000000000000000000000000001F
:0401E0005FF8E0F1F3
:1001E80010B5054C237833B9044B13B10448AFF369
:1001F80000800123237010BDB80900200000000012
:100208008CA1000808B5034B1BB103490348AFF3A1
:10021800008008BD00000000BC0900208CA1000877
:1002280003685A004CBF43F0004323F000431844CE
:10023800704700BF2DE9F84339B34F1E04461546F1
:100248003E464FF0000808EB060101EBD17149105A
:1002580004EBC1094846FFF7E3FF0346C80008302E
:100268008F4220440BD0AB420BD8FFF7D9FF01389F
:10027800A84201F10108E6D34846BDE8F883AB423D
:10028800FAD9884501D04E1EDDE74FF000094846EF
:10029800BDE8F883012807D0022807D0044B0028BE
:1002A8000CBF184600207047024870470248704744
:1002B8008D090008910900089509000830B5244BFC
:1002C800044683B08D1E3BB3284601A9AFF30080D6
:1002D800E8B101992A46FFF7ADFF0146B8B1FFF72B
:1002E8009FFF4B68A064012B2ED0002B27DB081D35
:1002F800FFF796FF0023C4E913030368002B12DB02
:10030800FFF78EFF03460020236103B030BD0023B2
:100318000920236103B030BD0E4B0F491846C91A96
:10032800C9100191D6E7C3F30360FFF7B3FF0028B4
:10033800034614BF00200920236103B030BD012308
:10034800081DC4E91303D8E7002305202361DCE76F
:100358000000000004A60008DCA60008036810B529
:10036800DA07044606D49B0700F1480009D500F0D7
:100378005DFC2368590709D51A070ED5DB0613D586
:1003880010BD00F04BFC23685907F5D404F1D000E8
:1003980000F054FC23681A07F0D404F5A87000F0A4
:1003A80055FC2368DB06EBD404F5E870BDE8104083
:1003B80000F090BC092070470346006800B118445B
:1003C800704700BF704700BF70B504460E46204610
:1003D800316CFFF773FF054698B9D6F840C032462E
:1003E800214601202369C4F814C098470828EED094
:1003F800072806D12846316CFFF7E4FF301D00F0CE
:1004080001FC03F08BFD00BF2DE9F0474FF0000A17
:10041800ADF5727D0DF10C0E01F1040CC768D0F832
:10042800188006461446BCE80F00AEE80F00BCE88A
:100438000F00AEE80F00BCE80F00AEE80F009CE824
:100448000F0002AD8EE80F00C5F800A021E02B6C6C
:100458004FF4F072294673617AA800F06FFE3146B6
:10046800504633697AAA9847889C82466C6433461A
:10047800324649460120CDE90058B8470446F0B94C
:100488004FF4F07228467AA900F058FEBAF1080F26
:100498001BD13046296CFFF711FF04F109095FFAF7
:1004A80089FA04460028D2D0A96B334669643246DB
:1004B8000120CDE900584AF01001B84700B10924DD
:1004C80020460DF5727DBDE8F087BAF1070FF6D129
:1004D8002046296CFFF776FF03A800F093FB00BFC6
:1004E800406C7047F0B54FF0FF37CB6BF9B00B6439
:1004F80001AC01F1040C0E460546BCE80F000FC420
:10050800BCE80F000FC4BCE80F000FC49CE80F0044
:1005180084E80F00009706E06A4629462B69984749
:100528000828044608D128461099FFF7C7FE002876
:10053800F2D0092079B0F0BD6846FFF70FFF062C0E
:10054800F7D131462846FFF73FFF00BF10B41446E5
:100558008461DC6BC16000221C64194610BC53E73F
:1005680070B54369C6680B64AEB90A4603690446A8
:100578000D46014602209847072805D008280FD1C4
:1005880029462046FFF720FF3046296CFFF71AFF5F
:10059800281D00F037FB0122FFF736FF03F0BEFCF1
:1005A80003F0BCFCC2682AB1D1F83CC00022C1F8F3
:1005B80040C029E796E700BF704700BF836801463F
:1005C8000BB1012018477047012912D009D873B917
:1005D8000F2A0CD800EB820042681846009B1A606C
:1005E80070470339012994BF012002207047022077
:1005F80070470846704700BF002300B585B00A461B
:1006080003A900911946FFF7DFFF039805B05DF8CD
:1006180004FB00BF012912D009D873B90F2A0CD8DE
:10062800009900EB82020968184651607047033947
:10063800012994BF01200220704702207047084614
:10064800704700BF002310B584B003AC0392009438
:100658000A461946FFF7DEFF04B010BD70B54FF02B
:10066800FF36D36BADF50E7D13640DF15C0E02F110
:10067800040C05460C46BCE80F00AEE80F00BCE8C9
:100688000F00AEE80F00BCE80F00AEE80F009CE8D2
:100698000F008EE80F00169612E00C2116A86A4685
:1006A800FFF7D0FF214616A8A84778B96946082061
:1006B800049B16AA98470528064608D0092805D09D
:1006C80068462699FFF7FAFD0028E6D0092616A8FD
:1006D800FFF744FE30460DF50E7D70BD2DE9F04F55
:1006E8001E46CC6C89B054F8043B0D46174600F002
:1006F80003080694002E79D002228DF81C201A0CCB
:100708008DF81D201B04D2B2059304EB82042B6DD7
:10071800B8F1020F08BFAC6B13F001030CD03846D8
:1007280005A900F071FB18B9082009B0BDE8F08FE1
:10073800092009B0BDE8F08FD4F800A0BAF1000F85
:10074800EDD0019300F008030293022E4AD0B4F8CA
:1007580000A0B4F802900434AA6C0F21384629F09E
:10076800010B9344FFF748FF834539D82AF001026B
:100778005A44824294BF002001204FEA490303F003
:1007880002030AF0010A43EA0A03012B49D0022BAB
:1007980032D0002BCCD1B8F1000F02D0002840F0A5
:1007A800CE800434D4F800A0BAF1000FCDD1384679
:1007B80005A900F029FB0028BAD1019B002BB3D072
:1007C8000F213846FFF718FF0E2102463846FFF77B
:1007D80039FF38460F216A4AFFF734FF0720A8E798
:1007E8000020CAE7D4F804900834B5E71B02059343
:1007F8000323ADF81C308AE7236823F0004BB8F1D7
:10080800000F45D128B1029A002A5CD0BBF1000F35
:1008180074D0002B00DA04340BF1010B04EB8B04C9
:10082800C0E7B8F1000F19D1B0B163682268991C0C
:100838004FEAD2723FF47CAF05F1580101330491BD
:1008480000F09180201DFFF7B7FD04AB0146284654
:10085800AFF3008000285CD10834A3E70D213846A7
:10086800D5F82090FFF7C8FE8145F5D1AB6A9C42C8
:10087800F2D12046FFF7D4FC0F2102463846FFF795
:10088800E1FE38462A460021FFF7DCFE072050E744
:100898000D213846D5F82090FFF7AEFE814501D0EE
:1008A8002368B6E7AB6A9C42FAD104230022C5E963
:1008B8000B23E318C5F828B06B632368002B5ADBB9
:1008C80001230193A8E705F15803CDF80C80914660
:1008D800B04604F1040A1E460EE050460496FFF79F
:1008E8006BFD0022014604AB284609F101090AF113
:1008F800040AAFF30080E8B9D945EED10D21384696
:10090800FFF77AFE0346049A0620C5E909242B62FC
:100918000FE781460D213846FFF76EFEB9F1020F49
:10092800286225D12B46049A43F82C2F6B620620A7
:10093800AC62FEE646462368DDF80C8069E720468F
:10094800FFF76EFC02460434AC6328461446AFF346
:10095800008000283FF4ECAE384622460F21FFF70E
:1009680071FE0720E5E60D213846FFF745FE2862AF
:10097800049B6B62DBE70BF1010004EB800079E775
:10098800000000000023A9E60123A7E60223A5E64C
:100998002DE9F043064615461C46C3B0042900F26B
:1009A800B880DFE801F09C56B62D0300002C40F01B
:1009B800B080102A00F2AD800368D80600F1F180FB
:1009C80020AF384600F090F9012438460023B16B77
:1009D80004FA03F22A4203F1010305D00A4652F849
:1009E80004CB1146C0F800C0042B00F10400EFD17D
:1009F8003846B16300F06EF9002043B0BDE8F083DB
:100A0800032C40F0868094B204EB1243102B4FEA7B
:100A180012457ED803681F0700F1CB8020AF384607
:100A280000F036F9B26B07EBC50154B10B4601EB88
:100A3800C401D01AE4001D5843F8045B8B42FAD174
:100A480022443846B26300F001F9002043B0BDE803
:100A5800F083012C4FEA124895B256D0052C58D194
:100A680008EB0509B9F1200F53D8B8F10F0F73D966
:100A7800A946002D40F08480B36B65B320AF4FF0DA
:100A8800000907EBC807043F03EBC50553F8041B2F
:100A9800AB4247F8041FF9D1B9F1000F0FD06F46E8
:100AA8004146102938BF102107EBC101843903EBF7
:100AB800C90553F8040BAB4241F8040FF9D1012CD6
:100AC8007FD0B8F10F0FB56342D9B9F1000F02D04A
:100AD800684600F0B3F8002043B0BDE8F083C4B91D
:100AE80023460124826B371DA8B204FA03F10142A0
:100AF8001CBF52F8041B47F823100133102BF4D104
:100B080015F40050E7D1B26304E008EB0503102B9D
:100B180003D9022043B0BDE8F083B8F10F0FF8D82D
:100B28003368DA0706D5304623F0030340F8483B1C
:100B380000F078F820AF384600F074F8B36B002D59
:100B48009DD11D4604353846B56300F067F8C2E705
:100B580020A800F06BF8B8E7B9F1100F3FD9A9F158
:100B680010093368D90708D5304623F0010343F04C
:100B7800020340F8483B00F05DF8B9F1000F31D0AE
:100B880033685A071FD4B8F10F0F24D96F46C8F13C
:100B98001005384600F056F8002DB36B80DD20AF05
:100BA8006FE723F01003336006F5E87000F09CF857
:100BB80006E723F00803036000F5A87000F068F862
:100BC8002CE720AFBEE7304623F0040340F8D03BC3
:100BD80000F038F8D7E720A800F02CF8D6E74FF057
:100BE8000009BEE7B8F10F0F3FF646AF20AF384611
:100BF80000F020F8B36B002D7FF441AF384600F0C9
:100C080015F868E700F1340191E838009C46A646DB
:100C18004CF8045D90E8FF0FE54600BD90EC210B11
:100C2800704700BF80EC210B704700BF90EC200B91
:100C3800704700BF80EC200B704700BFD0EC200B42
:100C4800704700BFC0EC200B704700BFF0EC0201FA
:100C5800F0EC0211F0EC0221F0EC0231F0EC024170
:100C6800F0EC0251F0EC0261F0EC0271F0EC028160
:100C7800F0EC0291F0EC02A1F0EC02B1F0EC02C150
:100C8800F0EC02D1F0EC02E1F0EC02F1704700BFA9
:100C9800E0EC0201E0EC0211E0EC0221E0EC0231B0
:100CA800E0EC0241E0EC0251E0EC0261E0EC0271A0
:100CB800E0EC0281E0EC0291E0EC02A1E0EC02B190
:100CC800E0EC02C1E0EC02D1E0EC02E1E0EC02F180
:100CD800704700BFB0FC0181B0FC0191B0FC01A1DC
:100CE800B0FC01B1704700BFA0FC0181A0FC0191DC
:100CF800A0FC01A1A0FC01B1704700BFEC4600B503
:100D08002DE900502DE9FF1F4FF000032DE90C00DD
:100D180001A9FFF7E7FBDDF840E012B0704700BF1C
:100D2800EC4600B52DE900502DE9FF1F4FF00003F8
:100D38002DE90C0001A9FFF713FCDDF840E012B023
:100D4800704700BFEC4600B52DE900502DE9FF1FA4
:100D58004FF000032DE90C0001A9FFF723FCDDF893
:100D680040E012B0704700BFEC4600B52DE90050D6
:100D78002DE9FF1F4FF000032DE90C0001ABFFF731
:100D8800E5FBDDF840E012B0704700BFEC4600B567
:100D98002DE900502DE9FF1F4FF000032DE90C004D
:100DA80001AAFFF75BFCDDF840E012B0704700BF16
:100DB800027A03467AB9427AA2B14FF0030C41682D
:100DC800013A427208680A1D5A60020283F808C094
:100DD800000E1A6070470068013A1A7202021A601F
:100DE800000E7047B0207047002300B585B003A9F6
:100DF80000910C221946FFF7E7FB039805B05DF850
:100E080004FB00BFF0E700BF2DE9F0434FF00008F6
:100E180005460E4685B03046FFF7CAFFB02804469F
:100E280000F0BA80070620D500F0F003802B4DD0E3
:100E3800902B36D0A02B60D0B02B73D0C02B00F0F5
:100E48008A8000F0F803D02B0BD100F007020132A2
:100E580005230121284642F40022FFF799FD0028C6
:100E6800D9D0092005B0BDE8F0838300DBB21F1D8F
:100E780000230DF10C0919460D222846CDF80090E3
:100E8800FFF7A2FB039B60064CBFDF1BFF18002384
:100E98000D2228461946CDF800900397FFF7BAFBB4
:100EA800B9E700F00D030D2BDBD0002303AF194683
:100EB80000F00F0200972846FFF786FB00230D225B
:100EC800284619460097FFF7A5FBA4E73046FFF729
:100ED8006FFF24022043B0F5004FC2D00023040165
:100EE80019462846A2B2FFF753FD0028B9D114F4D9
:100EF800004F18BF4FF001088DE7C3434FF47F62DE
:100F080003F007031A410023010702F47F6248BF78
:100F180042F4804228461946FFF73AFD00283FF47C
:100F28007AAF9EE7B1283CD0B22800F0B080B32851
:100F38004AD000F0FC03B42B93D0012300F0070241
:100F48001A442846194642F40022FFF721FD0028DA
:100F58003FF461AF85E7C6284FD0C72861D000F0BD
:100F6800F803C02B70D0C8287CD0C9287FF479AF8B
:100F78003046FFF71DFF05230246012128461403CA
:100F880002F00F0204F470240A442243FFF700FD24
:100F980000283FF440AF64E7B8F1000F1CD00020F0
:100FA80060E73046FFF704FF024600283FF459AFD8
:100FB80010F0F0037FF455AF19462846FFF7E8FC18
:100FC80000283FF428AF4CE73046FFF7F1FE012335
:100FD800024619462846D2E703AC43460E2241464C
:100FE80028460094FFF7F0FA43460F222846414668
:100FF8000094FFF70FFB404634E73046FFF7D8FE72
:1010080002460323140302F00F0204F47024013291
:10101800284619462243FFF7BBFC00283FF4FBAEE5
:101028001FE73046FFF7C4FE024600283FF419AF19
:1010380010F0F0037FF415AF04212846FFF7A8FC51
:1010480000283FF4E8AE0CE7032300F00F0201325A
:101058002846194642F42022FFF79AFC00283FF45C
:10106800DAAEFEE63046FFF7A3FE0246012102F0A3
:10107800F00402F00F0210340A440523284642EA1D
:101088000432FFF785FC00283FF4C5AEE9E60023EB
:101098000DF10C090D2219462846CDF80090FFF7EE
:1010A80093FA3046FFF784FE02064FF002040CD58F
:1010B800039B00F07F00A040184403903046FFF7E0
:1010C80077FE030604F10704F2D4039B00F07F02C5
:1010D800A24003F501731A440023039228460D2207
:1010E8001946CDF80090FFF795FA94E60B464FF0B5
:1010F800030C00B5C26C1846536885B008320292DA
:1011080001A91A0E1B028DF80CC001938DF80D2051
:10111800FFF77AFE05B05DF804FB00BF08B5FFF7DE
:1011280071FE806C08BD00BF08B5FFF76BFEC06C90
:10113800C379023300EB830008BD00BF844641EA4F
:10114800000313F0030349D1403A23D30B6803602B
:101158004B6843608B688360CB68C3600B6903612D
:101168004B6943618B698361CB69C3610B6A036215
:101178004B6A43628B6A8362CB6AC3620B6B0363FD
:101188004B6B43638B6B8363CB6BC36340304031E2
:10119800403ADBD230320BD30B6803604B684360B4
:1011A8008B688360CB68C36010301031103AF3D27B
:1011B8000C3205D351F8043B40F8043B043AF9D209
:1011C800043208D0D2071CBF11F8013B00F8013BDC
:1011D80001D30B8803806046704700BF082A13D3E9
:1011E8008B07B1D010F00303AED0C3F10403D21AB9
:1011F800DB071CBF11F8013B00F8013BA4D331F811
:10120800023B20F8023B9FE7043AD9D3013A11F890
:10121800013B00F8013BF9D20B7803704B7843701F
:101228008B7883706046704781F0004102E000BF10
:1012380083F0004330B54FEA41044FEA430594EA8E
:10124800050F08BF90EA020F1FBF54EA000C55EAC9
:10125800020C7FEA645C7FEA655C00F0E2804FEA9A
:101268005454D4EB5555B8BF6D420CDD2C4480EA7C
:10127800020281EA030382EA000083EA010180EAAC
:10128800020281EA0303362D88BF30BD11F0004FFA
:101298004FEA01314FF4801C4CEA113102D0404230
:1012A80061EB410113F0004F4FEA03334CEA13336B
:1012B80002D0524263EB430394EA050F00F0A78083
:1012C800A4F10104D5F1200E0DDB02FA0EFC22FA7E
:1012D80005F2801841F1000103FA0EF2801843FA72
:1012E80005F359410EE0A5F120050EF1200E012A63
:1012F80003FA0EFC28BF4CF0020C43FA05F3C018A1
:1013080051EBE37101F0004507D54FF0000EDCF119
:10131800000C7EEB00006EEB0101B1F5801F1BD3C2
:10132800B1F5001F0CD349085FEA30004FEA3C0CC6
:1013380004F101044FEA445212F5800F80F09A80BC
:10134800BCF1004F08BF5FEA500C50F1000041EBC0
:10135800045141EA050130BD5FEA4C0C404141EBC4
:101368000101013C28BFB1F5801FE9D291F0000FBF
:1013780004BF01460020B1FA81F308BF2033A3F16E
:101388000B03B3F120020CDA0C3208DD02F1140C65
:10139800C2F10C0201FA0CF021FA02F10CE002F1A0
:1013A8001402D8BFC2F1200C01FA02F120FA0CFC99
:1013B800DCBF41EA0C019040E41AA2BF01EB0451E2
:1013C800294330BD6FEA04041F3C1CDA0C340EDCE0
:1013D80004F11404C4F1200220FA04F001FA02F323
:1013E80040EA030021FA04F345EA030130BDC4F1E1
:1013F8000C04C4F1200220FA02F001FA04F340EAD6
:101408000300294630BD21FA04F0294630BD94F086
:10141800000F83F4801306BF81F480110134013D6D
:101428004EE77FEA645C18BF7FEA655C29D094EADE
:10143800050F08BF90EA020F05D054EA000C04BF5C
:101448001946104630BD91EA030F1EBF0021002047
:1014580030BD5FEA545C05D14000494128BF41F0E6
:10146800004130BD14F580043CBF01F5801130BD4A
:1014780001F0004545F0FE4141F470014FF00000D5
:1014880030BD7FEA645C1ABF194610467FEA655C86
:101498001CBF0B46024650EA013406BF52EA033528
:1014A80091EA030F41F4002130BD00BF90F0000F16
:1014B80004BF0021704730B54FF4806404F1320452
:1014C8004FF000054FF0000150E700BF90F0000F0B
:1014D80004BF0021704730B54FF4806404F1320432
:1014E80010F0004548BF40424FF000013EE700BF02
:1014F80042004FEAE2014FEA31014FEA02701FBF92
:1015080012F07F4393F07F4F81F06051704732F0C3
:101518007F4208BF704793F07F4F04BF41F400211A
:10152800704730B54FF4607401F0004521F0004178
:101538001CE700BF50EA010208BF704730B54FF002
:1015480000050AE050EA010208BF704730B511F003
:10155800004502D5404261EB41014FF4806404F13B
:1015680032045FEA915C3FF4D8AE4FF003025FEAC1
:10157800DC0C18BF03325FEADC0C18BF033202EB45
:10158800DC02C2F1200300FA03FC20FA02F001FA9F
:1015980003FE40EA0E0021FA02F11444BDE600BF42
:1015A80070B54FF0FF0C4CF4E06C1CEA11541DBFF1
:1015B8001CEA135594EA0C0F95EA0C0F00F0DEF8BC
:1015C8002C4481EA030621EA4C5123EA4C5350EAA1
:1015D800013518BF52EA033541F4801143F48013F2
:1015E80038D0A0FB02CE4FF00005E1FB02E506F083
:1015F8000042E0FB03E54FF00006E1FB03569CF0D8
:10160800000F18BF4EF0010EA4F1FF04B6F5007FDD
:1016180064F5407404D25FEA4E0E6D4146EB06064F
:1016280042EAC62141EA55514FEAC52040EA5E50D8
:101638004FEACE2EB4F1FD0C88BFBCF5E06F1ED882
:10164800BEF1004F08BF5FEA500E50F1000041EBB9
:10165800045170BD06F0004646EA010140EA020066
:1016680081EA0301B4EB5C04C2BFD4EB0C0541EA88
:10167800045170BD41F480114FF0000E013C00F39D
:10168800AB8014F1360FDEBF002001F0004170BDC1
:10169800C4F10004203C35DA0C341BDC04F11404DA
:1016A800C4F1200500FA05F320FA04F001FA05F266
:1016B80040EA020001F0004221F0004110EBD37033
:1016C80021FA04F642EB06015EEA430E08BF20EA5F
:1016D800D37070BDC4F10C04C4F1200500FA04F302
:1016E80020FA05F001FA04F240EA020001F0004194
:1016F80010EBD37041F100015EEA430E08BF20EA07
:10170800D37070BDC4F1200500FA05F24EEA020E4E
:1017180020FA04F301FA05F243EA020321FA04F07D
:1017280001F0004121FA04F220EA020000EBD37034
:101738005EEA430E08BF20EAD37070BD94F0000F34
:101748000FD101F00046400041EB010111F4801F68
:1017580008BF013CF7D041EA060195F0000F18BF19
:10176800704703F00046520043EB030313F4801F55
:1017780008BF013DF7D043EA0603704794EA0C0F0F
:101788000CEA135518BF95EA0C0F0CD050EA410625
:1017980018BF52EA4306D1D181EA030101F00041A2
:1017A8004FF0000070BD50EA410606BF10461946CA
:1017B80052EA430619D094EA0C0F02D150EA0136D6
:1017C80013D195EA0C0F05D152EA03361CBF104617
:1017D80019460AD181EA030101F0004141F0FE41B6
:1017E80041F470014FF0000070BD41F0FE4141F43A
:1017F800780170BD70B54FF0FF0C4CF4E06C1CEA3A
:1018080011541DBF1CEA135594EA0C0F95EA0C0FEE
:1018180000F0A7F8A4EB050481EA030E52EA0335A9
:101828004FEA013100F088804FEA03334FF08055CA
:1018380045EA131343EA12634FEA022245EA1115F7
:1018480045EA10654FEA00260EF000419D4208BFA8
:10185800964244F1FD0404F5407402D25B084FEA55
:101868003202B61A65EB03055B084FEA32024FF401
:1018780080104FF4002CB6EB020E75EB030E22BF5E
:10188800B61A754640EA0C005B084FEA3202B6EB1E
:10189800020E75EB030E22BFB61A754640EA5C00CD
:1018A8005B084FEA3202B6EB020E75EB030E22BF5D
:1018B800B61A754640EA9C005B084FEA3202B6EB5E
:1018C800020E75EB030E22BFB61A754640EADC001D
:1018D80055EA060E18D04FEA051545EA16754FEA7F
:1018E80006164FEAC30343EA52734FEAC2025FEA9D
:1018F8001C1CC0D111F4801F0BD141EA00014FF02C
:1019080000004FF0004CB6E711F4801F04BF0143FC
:101918000020B4F1FD0C88BFBCF5E06F3FF6AFAE18
:10192800B5EB030C04BFB6EB020C5FEA500C50F1A8
:10193800000041EB045170BD0EF0004E4EEA11312B
:1019480014EB5C04C2BFD4EB0C0541EA045170BD32
:1019580041F480114FF0000E013C90E645EA060E76
:101968008DE60CEA135594EA0C0F08BF95EA0C0FA4
:101978003FF43BAF94EA0C0F0AD150EA01347FF4EC
:1019880034AF95EA0C0F7FF425AF104619462CE7C3
:1019980095EA0C0F06D152EA03353FF4FDAE104626
:1019A800194622E750EA410618BF52EA43067FF477
:1019B800C5AE50EA41047FF40DAF52EA43057FF407
:1019C800EBAE12E74FF0FF3C06E000BF4FF0010C12
:1019D80002E000BF4FF0010C4DF804CD4FEA410C76
:1019E8007FEA6C5C4FEA430C18BF7FEA6C5C1BD043
:1019F80001B050EA410C0CBF52EA430C91EA030FC4
:101A080002BF90EA020F0020704710F1000F91EA20
:101A1800030F58BF994208BF90422CBFD8176FEAEE
:101A2800E37040F0010070474FEA410C7FEA6C5CBC
:101A380002D150EA013C07D14FEA430C7FEA6C5CC3
:101A4800D6D152EA033CD3D05DF8040B704700BFEF
:101A58008446104662468C461946634600E000BF3D
:101A680001B5FFF7B7FF002848BF10F1000F01BD0F
:101A78004DF808EDFFF7F4FF0CBF012000205DF8DA
:101A880008FB00BF4DF808EDFFF7EAFF34BF01205F
:101A980000205DF808FB00BF4DF808EDFFF7E0FFF8
:101AA80094BF012000205DF808FB00BF4DF808ED49
:101AB800FFF7CEFF94BF012000205DF808FB00BFB0
:101AC8004DF808EDFFF7C4FF34BF012000205DF892
:101AD80008FB00BF4FEA410C7FEA6C5C02D150EA78
:101AE800013C0AD14FEA430C7FEA6C5C02D152EA0E
:101AF800033C02D14FF0000070474FF001007047DF
:101B08004FEA410212F5001215D211D56FF478731D
:101B1800B3EB625212D94FEAC12343F0004343EAC0
:101B2800505311F0004F23FA02F018BF404270479B
:101B38004FF00000704750EA013005D111F0004025
:101B480008BF6FF0004070474FF00000704700BFBB
:101B580053B94AB9002908BF00281CBF4FF0FF310C
:101B68004FF0FF3000F076B9ADF1080C6DE904CE06
:101B780000F006F8DDF804E0DDE9022304B0704760
:101B88002DE9F047089E0D4604468846002B4DD1A6
:101B98008A42944668D9B2FA82F252B101FA02F343
:101BA800C2F1200120FA01F10CFA02FC41EA030813
:101BB80094404FEA1C41B8FBF1F71FFA8CFE01FB79
:101BC800178807FB0EF0230C43EA084398420AD90A
:101BD8001CEB030307F1FF3580F01E81984240F2A9
:101BE8001B81023F63441B1AB3FBF1F001FB103366
:101BF80000FB0EFEA4B244EA0344A6450AD91CEB36
:101C0800040400F1FF3380F00981A64540F2068103
:101C1800644402380021A4EB0E0440EA07401EB1D8
:101C28000023D440C6E90043BDE8F0878B4208D9B9
:101C3800002E00F0EE800021C6E900050846BDE848
:101C4800F087B3FA83F100294AD1AB4202D382422A
:101C580000F2FC80841A65EB030301209846002EED
:101C6800E2D0C6E90048DFE702B9FFDEB2FA82F245
:101C7800002A40F09180A1EB0C0001214FEA1C479B
:101C88001FFA8CFEB0FBF7F307FB1300250C45EA9F
:101C980000450EFB03F0A84208D91CEB050503F12B
:101CA800FF3802D2A84200F2CE8043462D1AB5FB77
:101CB800F7F007FB10550EFB00FEA4B244EA0544FA
:101CC800A64508D91CEB040400F1FF3502D2A6454D
:101CD80000F2B6802846A4EB0E0440EA03409EE7D3
:101CE800C1F120078B4022FA07FC4CEA030C25FAC5
:101CF80007FA4FEA1C49BAFBF9F820FA07F309FB7F
:101D080018AA8D401FFA8CFE1D4300FA01F308FB48
:101D18000EF02C0C44EA0A44A04202FA01F20BD954
:101D28001CEB040408F1FF3A80F08880A04240F2DE
:101D38008580A8F102086444241AB4FBF9F009FB71
:101D4800104400FB0EFEADB245EA0444A64508D98E
:101D58001CEB040400F1FF356CD2A6456AD90238A1
:101D6800644440EA0840A0FB0295A4EB0E04AC4290
:101D7800C846AE4656D353D0002E69D0B3EB0802FE
:101D880064EB0E0422FA01F304FA07F71F43CC4070
:101D9800C6E90074002147E70CFA02FCC2F12001F1
:101DA80025FA01F34FEA1C4720FA01F195400D434B
:101DB800B3FBF7F107FB11331FFA8CFE280C40EA3E
:101DC800034001FB0EF3834204FA02F408D91CEB2A
:101DD800000001F1FF382FD283422DD90239604427
:101DE800C01AB0FBF7F307FB1300ADB245EA004594
:101DF80003FB0EF0A84208D91CEB050503F1FF38D8
:101E080016D2A84214D9023B6544281A43EA014174
:101E180038E73146304607E72F46E4E61846F9E644
:101E28004B45A9D2B9EB020865EB0C0E0138A3E7C4
:101E38004346EAE7284694E74146D1E7D0467BE7A0
:101E48006444023847E7023B65442FE7084606E743
:101E58003146E9E6704700BF30B589B000240494E4
:101E6800059406940794174B9A6942F020029A61E8
:101E78009A6902F020020192019A9A6942F01002CE
:101E88009A619A6902F010020292029A9A6942F0E3
:101E980004029A619B6903F004030393039B0A4DB0
:101EA80022460C21284600F0BBFE0C230493012394
:101EB800059306940223079304A9284600F090FD91
:101EC80009B030BD001002400010014000B583B0D9
:101ED8000A4B5A6942F001025A615B6903F0010337
:101EE8000193019B002211460E2000F087FA0E2074
:101EF80000F0BCFA03B05DF804FB00BF001002401C
:101F080072B6FEE708B50D480D4B03604FF4E13398
:101F1800436000238360C36003610C2242618361D4
:101F2800C36101F0ABFC30B9044B1A68D36843F0C5
:101F38002003D36008BDFFF7E3FF00BF600A00205D
:101F48000038014000B587B000230293039304933F
:101F58000593009301931548154A026041F61F4204
:101F68004260836042F20F72C26003614361802362
:101F7800836101F0D3FA90B94FF48053029302A918
:101F88000A4801F003FB60B90023009301936946F6
:101F9800064801F069FB30B907B05DF804FBFFF7AC
:101FA800AFFFFFF7ADFFFFF7ABFF00BF180A002038
:101FB800002C014000B591B02822002106A801F0AC
:101FC800DFFF0023019302930393049305930122F7
:101FD80006924FF4803307930A9202220D920E93D1
:101FE8004FF4E0130F9306A800F040FE80B90F23CA
:101FF800019302210291002303934FF4806204921B
:10200800059301A801F072F820B911B05DF804FB3E
:10201800FFF776FFFFF774FF08B500F0A5F9084849
:1020280000F010F8FFF7C6FFFFF716FFFFF76AFF8B
:10203800FFF74CFFFFF786FF01F01CFFFEE700BF2C
:10204800600A002008B5054B1860054B1868002386
:1020580002221946806801F0F9FF08BDA40A002091
:102068000C000020022801D80120704708B501F0B3
:102078005DFF09230360002008BD000010B501388A
:1020880001280AD814464FF0FF3392B20748006877
:1020980001F023FC40B9204610BD01F047FF092399
:1020A80003604FF0FF30F7E70520F5E7A40A0020AA
:1020B800022801D80020704708B501F037FF09232E
:1020C80003604FF0FF3008BD08B501F02FFF09236A
:1020D80003604FF0FF3008BD08B548B94FF0FF3333
:1020E80001220848006801F064FC40B9012008BDDD
:1020F80001F01CFF092303604FF0FF30F7E70520CC
:10210800F5E700BFA40A002008B5022804D84FF458
:1021180000534B60002008BD01F008FF092303604D
:10212800F8E7000082B00E4B9A6942F001029A610A
:102138009A6902F001020092009ADA6942F080522C
:10214800DA61DB6903F080530193019B054A536808
:1021580023F0E06343F00073536002B0704700BFA0
:10216800001002400000014002680E4B9A4200D065
:10217800704700B583B003F564439A6942F400627E
:102188009A619B6903F400630193019B0022114645
:10219800192000F033F9192000F068F903B05DF850
:1021A80004FB00BF002C014070B586B000230293E9
:1021B8000393049305930268264B9A4201D006B014
:1021C80070BD044603F558439A6942F480429A6107
:1021D8009A6902F480420092009A9A6942F00402D5
:1021E8009A619B6903F004030193019B4FF4007308
:1021F80002930223039303230593174E02A9304643
:1022080000F0EEFB4FF480630293002503950495DC
:1022180002A9304600F0E4FB1048114B036010237C
:10222800436085608023C360056145618561C56140
:1022380000F03EF958B9094B63635C62002211460D
:10224800252000F0DBF8252000F010F9B7E7FFF7AC
:1022580057FEF0E70038014000080140D40900208B
:1022680044000240FEE7FEE7FEE7FEE7FEE77047B0
:102278007047704708B500F089F808BD08B50248EE
:1022880000F038FA08BD00BFD409002008B502489C
:1022980001F03AF808BD00BF180A002008B5064B3F
:1022A8001B681A6812F0200F02D05A68D2B25A601E
:1022B800014801F073FC08BD600A00200120704746
:1022C80008B501F033FE162303604FF0FF3008BD58
:1022D80008B54FF0FF31FFF7F3FFFEE708B50346F7
:1022E8000B4A126842B10A4A106803446A4693428C
:1022F80006D8074A136008BD054A06491160F2E787
:1023080001F014FE0C2303604FF0FF30F3E700BF29
:10231800A80A0020F80A00207047000010B50446FB
:102328000E4B18784FF47A73B3FBF0F30C4A10682D
:10233800B0FBF3F000F0A8F868B90F2C01D9012020
:102348000AE0002221464FF0FF3000F057F8054B15
:102358001C60002000E0012010BD00BF0400002028
:10236800000000200800002008B5074A136843F061
:1023780010031360032000F02FF80F20FFF7CEFFA3
:10238800FFF7D0FE002008BD00200240034A116874
:10239800034B1B780B441360704700BFAC0A002046
:1023A80004000020014B1868704700BFAC0A0020E9
:1023B80038B50446FFF7F6FF0546B4F1FF3F02D0F3
:1023C800044B1B781C44FFF7EDFF401BA042FAD3D7
:1023D80038BD00BF04000020074AD36823F4E06337
:1023E8001B041B0C000200F4E060034343F0BF63CE
:1023F80043F40033D360704700ED00E000B5194B9B
:10240800DB68C3F30223C3F1070CBCF1040F28BF38
:102418004FF0040C03F1040EBEF1060F18D9033B6C
:102428004FF0FF3E0EFA0CFC21EA0C0199400EFA1F
:1024380003F322EA0303194300280BDB0901C9B29D
:1024480000F1604000F5614080F800135DF804FB7E
:102458000023E5E700F00F000901C9B2024B195447
:10246800F4E700BF00ED00E014ED00E0002807DB12
:1024780000F01F02400901239340024A42F820302D
:10248800704700BF00E100E00138B0F1807F0BD257
:102498004FF0E0235861054AF02182F8231000200C
:1024A800986107221A6170470120704700ED00E02B
:1024B80000283AD010B4024600681D4B984229D82B
:1024C8001C4B03441C49A1FB03131B099B00136409
:1024D8001A4BD363022382F82130016821F47F511B
:1024E80021F03001536894682343D4682343146966
:1024F80023435469234394692343D46923430B43F7
:10250800036000209063012382F8213082F82000C4
:1025180010BC70470A4B03440749A1FB03131B096E
:102528009B001364074BD363D4E70120704700BFB7
:1025380007040240F8FFFDBFCDCCCCCC0000024020
:10254800F8FBFDBF0004024090F82130022B06D0B2
:1025580004238363002380F8203001207047026839
:10256800136823F00E0313600268136823F0010355
:102578001360036CC16B012202FA03F34B6080F80D
:102588002120002380F820301846704708B590F8BD
:102598002130022B03D004238363012008BD026885
:1025A800136823F00E0313600268136823F0010315
:1025B800136003684B4A93424ED9783A934224D029
:1025C8001432934230D0143293422FD014329342B3
:1025D8002FD0143293422FD0143293422FD014327A
:1025E80093422FD002F5627293422ED01432934256
:1025F8002DD0143293422CD01432934202D04FF48F
:10260800803203E04FF4805200E00122364B5A60DA
:10261800012380F82130002380F82030436B002B01
:102628005ED098470020B9E71022EFE74FF4807298
:10263800ECE74FF48052E9E74FF48032E6E74FF4D5
:102648008012E3E74FF08072E0E70122DEE7102214
:10265800DCE74FF48072D9E7244A934224D014323D
:10266800934225D01432934224D01432934224D07A
:102678001432934224D01432934224D01432934219
:1026880024D002F56272934223D01432934222D0AE
:102698001432934221D01432934202D04FF4803244
:1026A80003E04FF4805200E00122114B5A60AFE77B
:1026B8001022FAE74FF48072F7E74FF48052F4E7FC
:1026C8004FF48032F1E74FF48012EEE74FF080725A
:1026D800EBE70122E9E71022E7E74FF48072E4E72D
:1026E80000205BE78000024000040240080002402E
:1026F8000000024038B5C36B1A6804682568016C8D
:1027080004238B40134200F09B8015F0040F00F067
:102718009780236813F0200F03D1236823F0040364
:10272800236003689A4A934246D9783A934224D060
:102738001432934228D01432934227D01432934251
:1027480027D01432934227D01432934227D0143220
:10275800934227D002F56272934226D014329342F4
:1027680025D01432934224D01432934202D04FF42D
:10277800802203E04FF4804200E00422854B5A6037
:10278800C36A03B1984738BD4022F7E74FF4806227
:10279800F4E74FF48042F1E74FF48022EEE74FF47C
:1027A8008002EBE74FF08062E8E70422E6E7402288
:1027B800E4E74FF48062E1E7774A934224D0143289
:1027C800934225D01432934224D01432934224D019
:1027D8001432934224D01432934224D014329342B8
:1027E80024D002F56272934223D01432934222D04D
:1027F8001432934221D01432934202D04FF48022F3
:1028080003E04FF4804200E00422644B5A60B7E7CB
:102818004022FAE74FF48062F7E74FF48042F4E78A
:102828004FF48022F1E74FF48002EEE74FF0806228
:10283800EBE70422E9E74022E7E74FF48062E4E7A8
:1028480002238B40134200F0AB8015F0020F00F01A
:10285800A780236813F0200F06D1236823F00A030A
:102868002360012380F821300368494A93424BD9F9
:10287800783A934224D0143293422DD014329342A2
:102888002CD0143293422CD0143293422CD01432D0
:1028980093422CD0143293422CD002F562729342A8
:1028A8002BD0143293422AD01432934229D01432B6
:1028B800934202D04FF4003203E04FF4005200E09C
:1028C8000222344B5A60002380F82030836A002BA0
:1028D8003FF459AF984756E72022F2E74FF40072C9
:1028E800EFE74FF40052ECE74FF40032E9E74FF41A
:1028F8000012E6E74FF00072E3E70222E1E7202248
:10290800DFE74FF40072DCE7234A934224D0143205
:10291800934225D01432934224D01432934224D0C7
:102928001432934224D01432934224D01432934266
:1029380024D002F56272934223D01432934222D0FB
:102948001432934221D01432934202D04FF4003211
:1029580003E04FF4005200E00222104B5A60B2E745
:102968002022FAE74FF40072F7E74FF40052F4E739
:102978004FF40032F1E74FF40012EEE74FF0007227
:10298800EBE70222E9E72022E7E74FF40072E4E7E9
:10299800800002400004024008000240000002409B
:1029A800082303FA01F111423FF4EDAE15F0080FC8
:1029B8003FF4E9AE236823F00E032360026CC16B79
:1029C800012303FA02F24A60836380F8213000236E
:1029D80080F82030036B002B3FF4D5AE9847D2E641
:1029E80070B582B00024A446B0E0874DAA4210D04A
:1029F80007D9864DAA420CD005F58035AA4208D0E1
:102A080013E0A5F58015AA4203D005F57025AA4262
:102A180007D18A68002A62D0012A5BD04361082462
:102A280003E0A5F58015AA42F3D0BEF1FF0F58D8F0
:102A38000646BEF1FF0F56D84FEA8C0233680F25C1
:102A4800954023EA050304FA02F2134333604B6806
:102A580013F0805F78D06E4B9A6942F001029A6158
:102A68009B6903F001030193019B4FEA9C02951CAB
:102A7800684B53F825600CF003039D000F23AB400F
:102A880026EA0306644B984233D003F580639842E4
:102A980000F0988003F58063984200F0958003F574
:102AA8008063984200F0928003F58063984200F0BA
:102AB8008F8003F58063984219D006231AE0CC680A
:102AC800B3E7CC680434B0E7CC680834ADE7CC6829
:102AD8000C34AAE703610824A7E70024A5E7042427
:102AE800A3E7061DA5E7ACF108029200A6E70523B7
:102AF80000E00023AB4033430232464D45F8223014
:102B08004B6813F4803F65D0444A136843EA0E03C8
:102B180013604B6813F4003F62D0404A536843EA9D
:102B28000E0353604B6813F4801F5FD03B4A9368D1
:102B380043EA0E0393604B6813F4001F5CD0374AD6
:102B4800D36843EA0E03D3600CF1010C0A6832FA29
:102B58000CF357D0012303FA0CF302EA030E33EA0D
:102B68000202F1D14A68122A3FF63FAF122A3FF615
:102B78005CAF01A555F822F01B2A0008C72A0008F7
:102B8800D12A0008E32A0008332A0008332A00085B
:102B9800332A0008332A0008332A0008332A000899
:102BA800332A0008332A0008332A0008332A000889
:102BB800332A0008332A0008332A0008CB2A0008E1
:102BC800D72A0008012395E7022393E7032391E717
:102BD80004238FE7114A136823EA0E03136098E76A
:102BE8000E4A536823EA0E0353609BE70B4A936827
:102BF80023EA0E0393609EE7084AD36823EA0E038C
:102C0800D360A1E702B070BD0000221000003110AF
:102C1800001002400000014000080140000401408B
:102C28000AB101617047090401617047C36801EA8C
:102C3800030221EA030141EA0241016170470000F1
:102C480082B0084B1B68084AA2FB03235B0A00FBFF
:102C580003F3019300BF019B5A1E0192002BF9D187
:102C680002B0704700000020D34D6210002800F029
:102C7800F18170B582B00446036813F0010F2CD0BF
:102C8800994B5B6803F00C03042B1DD0964B5B68D3
:102C980003F00C03082B12D06368B3F5803F41D0D2
:102CA800002B55D103F1804303F504331A6822F44D
:102CB80080321A601A6822F480221A6037E08A4B40
:102CC8005B6813F4803FE7D0874B1B6813F4003F21
:102CD80003D06368002B00F0BF81236813F0020F54
:102CE80075D0814B5B6813F00C0F5FD07E4B5B682F
:102CF80003F00C03082B54D02369002B00F08A80C2
:102D08007A4B01221A60FFF74DFB0546764B1B688C
:102D180013F0020F75D1FFF745FB401B0228F5D9C8
:102D280003209EE1704A136843F48033136063689C
:102D380043B3FFF737FB05466B4B1B6813F4003FA3
:102D4800CBD1FFF72FFB401B6428F5D9032088E17E
:102D5800B3F5A02F09D0644B1A6822F480321A60A8
:102D68001A6822F480221A60E1E703F18043A3F590
:102D78003C331A6842F480221A601A6842F480329E
:102D88001A60D4E7FFF70EFB0546574B1B6813F490
:102D9800003FA2D0FFF706FB401B6428F5D90320AB
:102DA8005FE1514B5B6813F4803FA5D14E4B1B6824
:102DB80013F0020F03D02369012B40F04F814A4AD8
:102DC800136823F0F803616943EAC10313602368B9
:102DD80013F0080F33D0A369002B5CD0434B0122BA
:102DE800C3F88024FFF7DEFA05463F4B5B6A13F011
:102DF800020F21D1FFF7D6FA401B0228F5D903208C
:102E08002FE1394A136823F0F803616943EAC103E3
:102E18001360DCE7354B00221A60FFF7C3FA05465A
:102E2800314B1B6813F0020FD1D0FFF7BBFA401BE0
:102E38000228F5D9032014E10120FFF701FF2368D8
:102E480013F0040F00F09680274BDB6913F0805FC6
:102E580034D1254BDA6942F08052DA61DB6903F03C
:102E680080530193019B0125214B1B6813F4807F3C
:102E780026D0E368012B3DD0002B53D103F18043CA
:102E880003F504331A6A22F001021A621A6A22F060
:102E980004021A6233E0154B0022C3F88024FFF7BE
:102EA80081FA0546104B5B6A13F0020FC7D0FFF793
:102EB80079FA401B0228F5D90320D2E00025D3E790
:102EC8000B4A136843F480731360FFF76BFA0646E6
:102ED800074B1B6813F4807FCBD1FFF763FA801B85
:102EE8006428F5D90320BCE00010024000004242EB
:102EF800007000405F4A136A43F001031362E368FD
:102F080033B3FFF74FFA06465A4B1B6A13F0020F0A
:102F18002FD1FFF747FA801B41F288339842F3D943
:102F280003209EE0052B09D0524B1A6A22F00102B9
:102F38001A621A6A22F004021A62E0E74D4B1A6A12
:102F480042F004021A621A6A42F001021A62D6E7D3
:102F5800FFF728FA0646474B1B6A13F0020F08D002
:102F6800FFF720FA801B41F288339842F3D90320F7
:102F780077E0E5B9E369002B72D03E4A526802F067
:102F88000C02082A56D0022B17D03B4B00221A6697
:102F9800FFF708FA0446374B1B6813F0007F47D049
:102FA800FFF700FA001B0228F5D9032059E0314A3F
:102FB800D36923F08053D361DCE72F4B00221A66D4
:102FC800FFF7F0F905462B4B1B6813F0007F06D07E
:102FD800FFF7E8F9401B0228F5D9032041E0236AEE
:102FE800B3F5803F1AD023494B6823F47413226A3F
:102FF800606A024313434B601F4B01221A66FFF7B6
:10300800D1F904461B4B1B6813F0007F0ED1FFF764
:10301800C9F9001B0228F5D9032022E0154A536894
:1030280023F40033A1680B435360DCE7002018E069
:10303800002016E0012B16D00E4B5B6803F480319C
:10304800226A914211D103F47013626A93420ED13D
:10305800002006E001207047012002E0012000E086
:10306800002002B070BD0120FBE70120F9E7012034
:10307800F7E700BF001002400000424286B0174B3D
:103088000FCB0DF1180C0CE90F0040F20123ADF83D
:103098000430134B5B6803F00C02082A02D0114875
:1030A80006B07047C3F3834218326A4412F8100C12
:1030B80013F4803F0DD00A4B5B68C3F340431833C9
:1030C8006B4413F8143C074A02FB00F0B0FBF3F022
:1030D800E6E7054B03FB00F0E2E700BFC0A10008EC
:1030E8000010024000127A0000093D00002800F09C
:1030F800A08070B50D460446524B1B6803F00703C9
:103108008B420BD24F4A136823F007030B4313601B
:10311800136803F007038B4240F08D80236813F097
:10312800020F17D013F0040F04D0474A536843F432
:10313800E0635360236813F0080F04D0424A5368D1
:1031480043F460535360404A536823F0F003A16886
:103158000B435360236813F0010F31D06368012BD0
:1031680020D0022B25D0384A126812F0020F64D002
:1031780035494A6822F0030213434B60FFF712F9FE
:103188000646314B5B6803F00C036268B3EB820FB1
:1031980016D0FFF707F9801B41F288339842F0D91F
:1031A800032045E0284A126812F4003FE0D10120CC
:1031B8003EE0254A126812F0007FD9D1012037E09D
:1031C800204B1B6803F00703AB420AD91D4A13685A
:1031D80023F007032B431360136803F00703AB4284
:1031E8002DD1236813F0040F06D0174A536823F42F
:1031F800E063E1680B435360236813F0080F07D0BE
:10320800114A536823F46053216943EAC1035360A8
:10321800FFF734FF0C4B5B68C3F303130B4AD35C13
:10322800D8400B4B18600B4B1868FFF777F8002055
:1032380070BD012070470120FAE70120F8E701205E
:10324800F6E700BF0020024000100240A8A10008D5
:103258000000002008000020014B1868704700BFDC
:103268000000002008B5FFF7F7FF044B5B68C3F3C5
:103278000223034AD35CD84008BD00BF00100240B7
:10328800B8A1000808B5FFF7E7FF044B5B68C3F374
:10329800C223034AD35CD84008BD00BF00100240D7
:1032A800B8A1000810B4036A046A24F00104046297
:1032B800846924F0F00C4CEA021223F00A030B4351
:1032C8008261036210BC704710B4046A24F01004D1
:1032D80004628469036A24F4704C4CEA023223F0D5
:1032E800A00343EA01138261036210BC704783683C
:1032F80023F070030B4343F0070383607047704764
:10330800704770477047704710B5044603681A69DC
:1033180012F0020F11D0DA6812F0020F0DD06FF020
:1033280002021A610123037703689B6913F0030FF4
:1033380070D0FFF7E6FF0023237723681A6912F09D
:10334800040F12D0DA6812F0040F0ED06FF00402E6
:103358001A610223237723689B6913F4407F5FD0A7
:103368002046FFF7CEFF0023237723681A6912F05F
:10337800080F12D0DA6812F0080F0ED06FF00802AA
:103388001A61042323772368DB6913F0030F4ED0F7
:103398002046FFF7B6FF0023237723681A6912F047
:1033A800100F12D0DA6812F0100F0ED06FF0100262
:1033B8001A61082323772368DB6913F4407F3DD023
:1033C8002046FFF79EFF0023237723681A6912F02F
:1033D800010F03D0DA6812F0010F36D123681A6999
:1033E80012F0800F03D0DA6812F0800F34D123680E
:1033F8001A6912F0400F03D0DA6812F0400F32D188
:1034080023681A6912F0200F03D0DA6812F0200F2F
:1034180030D110BDFFF774FF2046FFF773FF8AE72E
:103428002046FFF76DFF2046FFF76CFF9BE720461D
:10343800FFF766FF2046FFF765FFACE72046FFF77A
:103448005FFF2046FFF75EFFBDE76FF001021A61DC
:103458002046FFF754FFC1E76FF080021A6120464B
:1034680000F041F9C3E76FF040021A612046FFF708
:103478004AFFC5E76FF020021A61204600F032F9D2
:10348800C7E700000368244A904212D002F50062A0
:1034980090420ED0B0F1804F0BD0A2F598329042F6
:1034A80007D002F58062904203D002F58062904214
:1034B80003D123F070034A681343174A904212D08D
:1034C80002F5006290420ED0B0F1804F0BD0A2F509
:1034D8009832904207D002F58062904203D002F5FC
:1034E8008062904203D123F44073CA68134323F0E7
:1034F80080034A69134303608B68C3620B68836265
:10350800054B984203D003F50063984201D10B693B
:103518000363012343617047002C014040B310B599
:10352800044690F83D30F3B1022384F83D3021463B
:1035380051F8040BFFF7A6FF012384F8463084F8FE
:103548003E3084F83F3084F8403084F8413084F8C5
:10355800423084F8433084F8443084F8453084F8A5
:103568003D30002010BD80F83C30FEF7FDFDDBE764
:103578000120704710B4846824F47F4C42EA032287
:103588000A4342EA0C02826010BC704790F83C3053
:10359800012B66D010B50446012380F83C30022385
:1035A80080F83D300268936823F47F4323F0770363
:1035B80093600B68602B40D022D8402B47D00BD9A2
:1035C800502B0ED1CA6849680068FFF76BFE50217E
:1035D8002068FFF78CFE04E0202B0CD008D9302B94
:1035E80009D0012384F83D30002084F83C0010BD48
:1035F8000BB1102BF5D119462068FFF778FEF0E7DC
:10360800702B0ED0B3F5005FEBD1CB684A688968A0
:103618000068FFF7AFFF2268936843F48043936024
:10362800DFE7CB684A6889680068FFF7A3FF22686C
:10363800936843F077039360D3E7CA6849680068E2
:10364800FFF742FE60212068FFF751FEC9E7CA680C
:1036580049680068FFF726FE40212068FFF747FE0B
:10366800BFE702207047000090F83C30012B34D0AF
:1036780010B4012380F83C30022380F83D30036801
:103688005A689C6822F0700C0A6842EA0C025A6078
:103698000368134A934212D002F5006293420ED097
:1036A800B3F1804F0BD0A2F59832934207D002F5C0
:1036B8008062934203D002F58062934204D124F0E1
:1036C80080044A6814439C60012380F83D3000233D
:1036D80080F83C30184610BC70470220704700BF85
:1036E800002C0140704770470268D36823F4907338
:1036F800D3600268536923F001035361036B012B04
:1037080005D0202380F83E30002303637047026809
:10371800D36823F01003D360F3E790F83D30DBB2B1
:10372800212B01D0022070478368B3F5805F17D042
:10373800036A5A1C02621A7803685A60C38C9BB2E7
:10374800013B9BB2C3844BB90268D36823F0800362
:10375800D3600268D36843F04003D3600020704709
:103768000369002BE4D1036A1B880268C3F30803CA
:103778005360036A02330362E0E7000010B50446B1
:103788000268136923F44053C1680B4313618368CB
:103798000269134342691A430168CB6823F4B053A2
:1037A80023F00C031343CB600268536923F440737E
:1037B80081690B4353610268134B9A4220D0FFF78B
:1037C80051FD024602EB820202EB820263689B0013
:1037D800B2FBF3F20D48A0FB02314909642303FB55
:1037E80011231B013233A0FB03235B0903F0F00212
:1037F80002EB011203F00F03216813448B6010BD24
:10380800FFF740FD0246DDE7003801401F85EB5118
:103818002DE9F84305460F4616469946DDF82080FF
:103828002C68246837EA04030CBF4FF0010C4FF0F2
:10383800000CB4451FD1B8F1FF3FF1D0B8F1000F2B
:1038480005D0FEF7AFFDA0EB09004045E8D92A688E
:10385800D36823F4D073D3602A68536923F0010333
:103868005361202385F83D3085F83E30002385F8E4
:103878003C30032000E00020BDE8F88358B310B5C1
:10388800044690F83D300BB3242384F83D30226879
:10389800D36823F40053D3602046FFF76FFF2268F4
:1038A800136923F4904313612268536923F02A03B0
:1038B80053612268D36843F40053D3600020206426
:1038C800202384F83D3084F83E3010BD80F83C3029
:1038D800FEF76AFCD8E7012070472DE9F04182B075
:1038E8001E4690F83D30DBB2202B54D104460D46DD
:1038F8009046002953D0002A53D090F83C30012B31
:1039080051D0012380F83C3000230364212380F840
:103918003D30FEF747FD0746A4F82480A4F826802A
:10392800A368B3F5805F05D04FF00008002384F842
:103938003C3012E0236913B14FF00008F6E7A846BF
:103948000025F3E738F8023B2268C3F30803536005
:10395800E28C92B2013A92B2E284E38C9BB273B1E8
:1039680000963B46002280212046FFF751FFE0B930
:10397800002DE7D015F8012B23685A60E8E7009678
:103988003B46002240212046FFF742FF78B920231A
:1039980084F83D3000E0022002B0BDE8F08101204B
:1039A800FAE70120F8E70220F6E70320F4E703200E
:1039B800F2E72DE9F04182B01E4690F83E30DBB2C6
:1039C800202B5CD104460D46904600295BD0002A86
:1039D8005BD090F83C30012B59D0012380F83C3063
:1039E80000230364222280F83E200363FEF7DAFCFA
:1039F8000746A4F82C80A4F82E80A368B3F5805F4E
:103A080005D04FF00008002384F83C3017E0236904
:103A180013B14FF00008F6E7A8460025F3E723683E
:103A28005B68C3F3080328F8023B03E023685B687C
:103A38002B700135E28D92B2013A92B2E285E38DA4
:103A48009BB2BBB100963B46002220212046FFF7DF
:103A5800DFFEF0B9002DE2D0A368B3F5805FE5D0B2
:103A680013B92369002BE1D023685B6803F07F0357
:103A78002B70DEE7202384F83E30002000E002208F
:103A880002B0BDE8F0810120FAE70120F8E7022042
:103A9800F6E70320F4E7704708B50168CA6822F022
:103AA8004002CA60202280F83D20FFF7F4FF002082
:103AB80008BD7047704708B5406A0023C385C384B2
:103AC800FFF7F8FF08BD704790F83E30DBB2222BB5
:103AD80060D18368B3F5805F46D0826AB3F5805FB2
:103AE80004D0002B4DD10369002B4AD103685B68D1
:103AF8001370836A01338362C38D9BB2013B9BB20F
:103B0800C385002B48D100B583B00268D36823F081
:103B18002003D3600268D36823F48073D3600268FB
:103B2800536923F001035361202380F83E30036B6F
:103B3800012B2CD1002303630268D36823F0100300
:103B4800D36003681A6812F0100F06D000220192A1
:103B58001A6801925B680193019B818DFFF7B3FF9F
:103B6800002003B05DF804FB0269002AB5D1826A1F
:103B780003685B68C3F308031380836A02338362B4
:103B8800BAE703685B6803F07F031370B1E7FFF7D8
:103B980090FFE5E7022070470020704730B583B0FA
:103BA800044602681368D068516913F00F0505D1FF
:103BB80013F0200F02D010F0200F19D12DB111F001
:103BC800010119D110F4907F16D1216B012975D00C
:103BD80013F0800F03D010F0800F40F0D78013F05F
:103BE800400F03D010F0400F40F0D48003B030BD38
:103BF8002046FFF769FFF9E713F0010F06D010F42C
:103C0800807F03D0226C42F00102226413F0040F7B
:103C180004D019B1226C42F00202226413F0020FA0
:103C280004D019B1226C42F00402226413F0080F88
:103C380007D010F0200F00D119B1226C42F0080211
:103C48002264226C002AD1D013F0200F02D010F089
:103C5800200F21D123685B6903F04003226C12F026
:103C6800080F00D123B32046FFF73EFD23685A69A9
:103C780012F0400F18D05A6922F040025A61A36B23
:103C880073B1464A5A63A06BFEF780FC0028ADD09A
:103C9800A06B436B9847A9E72046FFF715FFD9E7C4
:103CA8002046FFF707FFA1E72046FFF703FF9DE740
:103CB8002046FFF7FFFE0023236497E713F0100F59
:103CC80086D010F0100F83D000230193136801935E
:103CD80053680193019B536913F0400F32D0A16BD5
:103CE8000B685B689BB2002B80D0A08D98427FF652
:103CF8007DAFE3858B69202B08D1A18DE38D9BB225
:103D0800C91A89B22046FFF7DEFE6FE7D36823F4AD
:103D18008073D3602268536923F0010353612268DA
:103D2800536923F040035361202384F83E30002375
:103D380023632268D36823F01003D360A06BFEF7D7
:103D480003FCDAE7A18DE38D9BB2C91A89B2E38D32
:103D58009BB2002B3FF44AAF00293FF447AFD3682A
:103D680023F49073D3602268536923F001035361ED
:103D7800202384F83E30002323632268D36823F08D
:103D88001003D3602046FFF79EFE2FE72046FFF77B
:103D9800C4FC2BE72046FFF77FFE27E7BF3A000861
:103DA80070B588B005460C4616462B4B994223D071
:103DB8002A4B9C422CD02A4B9C4235D0294B9C4202
:103DC8003ED0002231462046FEF72AFF2C606E6066
:103DD8000121A9600023EB6002222A610493059364
:103DE8000693079304960591079204A92046FEF7C7
:103DF800F7FD284608B070BD03F584339A6942F090
:103E080004029A619B6903F004030093009BCFE7C7
:103E180003F582339A6942F008029A619B6903F0BC
:103E280008030193019BC6E703F580339A6942F0C2
:103E380010029A619B6903F010030293029BBDE78D
:103E480003F57C439A6942F020029A619B6903F06A
:103E580020030393039BB4E700080140000C0140D2
:103E6800001001400014014008B581880068FEF781
:103E7800DDFE08BD10B58AB0124800F0D3F812482C
:103E880000F0D0F8114C0422214605A8FFF788FF5E
:103E9800082221466846FFF783FF05A8FFF7E4FFDD
:103EA8006846FFF7E1FF4FF47A70FEF781FA05A83C
:103EB800FFF7DAFF6846FFF7D7FF4FF47A70FEF78F
:103EC80077FAEAE7D4A10008D8A100080010014059
:103ED8000C480D490D4A002302E0D458C45004335D
:103EE800C4188C42F9D30A4A0A4C002301E0136033
:103EF8000432A242FBD3FEF70FFA00F01DF8FEF7DA
:103F08008BF8704700000020B8090020E8A60008D8
:103F1800B8090020F80A0020FEE70000062008B5CE
:103F280000F06CF90120FEF7D3F900BF014B1868C7
:103F3800704700BF0C00002070B50D4E0D4D761B6C
:103F4800B61006D0002455F8043B01349847A64221
:103F5800F9D1094E094D06F015F9761BB61006D0B1
:103F6800002455F8043B01349847A642F9D170BDA6
:103F7800DCA60008DCA60008E4A60008DCA6000809
:103F8800830730B548D0541E002A3FD00346CAB232
:103F980001E0013C3AD303F8012B9D07F9D1032C2A
:103FA8002DD9CDB245EA05250F2C45EA054536D968
:103FB800A4F1100222F00F0C03F1200EE6444FEAA0
:103FC800121C03F1100242E9045542E9025510326D
:103FD8007245F8D10CF1010214F00C0F03EB021238
:103FE80004F00F0C13D0ACF1040323F003030433E3
:103FF800134442F8045B9342FBD10CF003042CB148
:10400800CAB21C4403F8012B9C42FBD130BD644664
:104018001346002CF4D1F9E703461446BFE71A46C5
:10402800A446E0E70FB400B5074A83B004AB1068B4
:1040380053F8042B8168019300F024F903B05DF86C
:1040480004EB04B0704700BF0C0000202DE9F043DA
:10405800694C0E46D4F80080174604461D4683B0C6
:10406800B8F1000F03D0D8F83830002B77D0022FE2
:1040780005D0012F00F2AC80002DC0F2A980636E3C
:10408800DA0752D52146404602F0F2FF216B41B1D2
:1040980004F14003994202D0404603F015F9002389
:1040A80023630023B4F90CC0A3611CF0800F636084
:1040B80064D12CF44A6C2CF0030C022FA4F80CC029
:1040C8006AD001AB214640466A4603F09DFAA389AF
:1040D8001843A081002D2FD0002E2ED0D8F83830CC
:1040E800002B38D0009BC4E90465AB42B4F90C300E
:1040F80026601CBF43F40063A381012F04BF43F073
:104108000103A3819AB213F008032CD0D1075DD51F
:1041180000216D42A561656EA16015F0010527D0EB
:104128000025284603B0BDE8F083A3899B05A9D4E0
:10413800A06D03F0F5F9A5E7009D284603F094FA71
:104148000646002847D0A38943F08003A381D8F806
:104158003830002BC6D1404602F0BEFFC2E74046C9
:1041680002F0BAFF83E7A360656E15F00105D7D1A9
:10417800930524D5284603B0BDE8F083404621695D
:1041880003F0A2F8B4F90CC0022F2CF44A6C2CF0FE
:10419800030CA4F80CC094D100250021012204F1DD
:1041A800430323602361636E4CF0020CD807A4F824
:1041B8000CC0A1606261DDD41CF4007FDAD1A06D6F
:1041C80003F0B0F9284603B0BDE8F083A560CBE75B
:1041D8004FF0FF35CEE7DDF80090A94504D04846FA
:1041E80003F042FA064620B94FF0FF35B4F90CC087
:1041F800D3E74D46A7E700BF0C00002038B5154BA4
:104208001F281D6820D8D5F8DC22044662B152F870
:1042180020304BB1012B15D0591C0FD0002542F886
:1042280020509847284638BD284600F029F82246ED
:1042380001462846BDE8384000F00EB81623012094
:104248002B6038BD002038BD16234FF0FF302B609F
:1042580038BD00BF0C00002070B50026074D04468D
:10426800084611462E60FEF72BF8431C00D070BD9F
:104278002B68002BFBD0236070BD00BFF40A002020
:10428800FEF71CB82DE9F04FD5B01C4691460791B2
:104298000546099003F03CF902680E9410461792FF
:1042A80004F01EF916901DB1AB6B002B00F01D82B7
:1042B800079A536EDD0740F12D81B2F90C2091B2B7
:1042C8008F0409D4079B42F400529A8191B21A468E
:1042D8005B6E23F4005353660E0740F1C080079BC2
:1042E8001B69002B00F0BB8001F01A030A2B00F0B9
:1042F800C48000242BAB224698464D46CDE929447C
:104308002893129400230024CDE914342B78CDE9A6
:104318001922CDE91B2218920B92002B00F08F81F5
:10432800AA4604E01AF8013F002B00F0BB80252BB9
:10433800F8D1BAEB050640F0B9809AF80030002BA6
:1043480000F07D8100234FF0FF324FF02B0920242D
:104358001F469AF8016008920AF1010A8DF8833025
:104368000A930AF1010AA6F120035A2B00F2E18010
:10437800DFE813F00503DF00DF000003DF00DF00E4
:10438800DF00DE02DF00DF006A006E02DF00550298
:104398007802DF0073025B005B005B005B005B0080
:1043A8005B005B005B005B00DF00DF00DF00DF001D
:1043B800DF00DF00DF006C01DF00EA01C4016C01EF
:1043C8006C016C01DF00DF00DF00DF00D002DF00DE
:1043D800DF002302DF00DF00DF00F801DF009202C8
:1043E800DF00DF008707DF00DF00DF00DF00DF001E
:1043F800DF00DF00DF006C01DF00EA01C6016C01AD
:104408006C016C01B602C601BF01DF00C302DF0008
:104418005A022502A402BF01DF00F80172008407D6
:10442800DF00DF006507DF0072000022A6F130031D
:104438001AF8016B02EB820203EB4202A6F1300389
:10444800092BF5D90A928EE70E9B53F8042B002A04
:104458000A920E93C0F2E0819AF8006081E7079D06
:104468000998294601F0FCFC002841F04D83A989F0
:1044780001F01A030A2B7FF43CAF079AB2F90E3009
:10448800002BFFF636AF536ED80702D4890541F1E9
:10449800488123464A460799099855B0BDE8F04F28
:1044A80001F09CBCBAEB050600F0C9802A9BC8E95C
:1044B800005633442A93299B0133072B299305DCA3
:1044C80008F108080B9B33440B9336E707990998C2
:1044D80028AA04F0A3F880B90DF1AC08F2E707990F
:1044E800099828AA04F09AF8002800F099800D9BF2
:1044F8001BB11946099802F0E7FE079A536ED907CF
:1045080040F1E88093895B0601F10A830B9855B066
:10451800BDE8F08F079BB3F90C20900591B23FF5E9
:10452800CFAE1D46986D02F0FBFFB5F90C2091B295
:10453800C6E6002E00F08380012300228DF8EC608F
:1045480006933BAD8DF883200C930D9208920F9241
:104558001392109217F0020302D0069902310691C5
:1045680017F0840B07D10A990698A1EB0009B9F155
:10457800000F00F390832A9C82B10122C8F804201E
:10458800299A013401320DF18301072A2A942992CC
:10459800C8F8001000F3D88308F108087BB102239B
:1045A800C8F80430299B0234013321AA072B2A9426
:1045B8002993C8F8002000F3D58308F10808BBF157
:1045C800800F00F08882089B0C9AA3EB020BBBF1CA
:1045D800000F00F3CB82FB0500F11F820C9BC8F88B
:1045E80000501C44C8F80430299B2A940133072B37
:1045F800299300F3448308F10808780705D50A9B36
:10460800069A9D1A002D00F3B983DDE90A2306995D
:104618008A42ACBF9B185B180B93002C7FF45FAFEA
:10462800002329930D9B1BB10D99099802F04CFEAC
:1046380055460DF1AC082B78002B7FF471AE2A9B00
:10464800002B41F010820023299356E70E9B073375
:1046580023F00702F2E80234CDE91434DDE914341A
:1046680024F00044994618460E9221464FF0FF3236
:10467800AB4BFDF72FFA002840F018854846214635
:104688004FF0FF32A64BFDF707FA002840F00E85E1
:10469800DDE9140100220023FDF7F4F9002840F0B9
:1046A80065879DF88320002103209E4D9E4B27F0AF
:1046B80080070D910690472EC8BF1D4608910C90A3
:1046C8000F9113911091002A3FF444AF069B0133D8
:1046D80006933FE7079B9B899A053FF514AF079C14
:1046E800A06D02F01FFFA3890DE7099802F0F4FC02
:1046F800DEE59AF8006047F0200732E647F0100739
:10470800BA060E9B40F16E84073323F007031A465E
:104718005B6852F8084B99460E92002BC0F26F84E2
:10472800089B013300F0FB8254EA090327F0800B51
:1047380040F0F682089B002B40F0F7825F4600238A
:1047480054AD08930C933DE1012000220E9B069086
:1047580053F8041B3BAD8DF883208DF8EC100E93B5
:104768000C90F2E64FF000090E9C089B54F8045B8D
:104778008DF88390002D00F0A1855A1C00F0A586C5
:104788001A464946284603F023FA0D90002801F0FE
:1047980050810D9B9DF883205B1B0C9323EAE373E8
:1047A800CDF820900E940693CDF83490CDF83C9037
:1047B800CDF84C90CDF8409085E747F0100717F0FA
:1047C800200900F0F2830E9B073323F00703D3F888
:1047D800049053F8084B0E93002327F4806B0022B3
:1047E8008DF88320089A511C00F0D48054EA0901FE
:1047F8002BF0800740F0CD80002A40F00486002B83
:104808009DD11BF001030C9300F0308430230DF28E
:104818004F158DF84F31D5E00A9B5B420A939AF801
:10482800006047F004079CE5BD0600F1FD84FC0626
:1048380000F1EE85780600F1B286B90540F1E88509
:104848000E9B0B9953F8042B554611700E93F2E604
:104858009AF800608DF8839083E59AF8006047F035
:1048680080077EE5524612F8016B2A2E01F08D82F0
:10487800A6F13003092B924698BF002201F2E58089
:104888001AF8016B02EB820203EB4202A6F1300335
:10489800092BF5D9089266E547F0100B1BF02009A3
:1048A80000F091830E9B073323F007031A4652F852
:1048B800084BD3F804900E92012390E73022782613
:1048C8000E9B8DF8842053F8044B184A0E934FF032
:1048D8000009022347F0020B8DF8856018927EE7E5
:1048E8009AF80060682E03BF9AF8016047F40077D1
:1048F8000AF1010A47F0400733E59AF800606C2E88
:1049080003BF9AF8016047F020070AF1010A47F04F
:10491800100726E59AF8006047F0080721E500BF70
:10492800FFFFEF7FE8A10008ECA10008F8A100084C
:10493800099E304602F0ECFD436818461B9303F0CD
:10494800CFFD034630461C931E4602F0E1FD836806
:104958001993002E3FF480AD199B002B3FF47CADDA
:10496800199B1B78002B3FF477AD9AF8006047F449
:104978008067F6E49AF8006047F00107F1E49DF8D3
:104988008330002B7FF468AD9AF800608DF883407F
:10499800E7E4BB46012B00F0C381022B54AD1FD1C5
:1049A800189A04F00F03D35C240944EA09744FEA07
:1049B800191905F8013D54EA0903F2D15F4654ABD1
:1049C8005B1B0C93089A0C9900238A42B8BF0A46CD
:1049D8000D9306920F939DF883201393109372E61C
:1049E80004F00703E40844EA49744FEAD90930336C
:1049F80054EA09012A4605F8013DF1D11BF0010FDF
:104A0800DCD0302BDAD03023023A05F8013C54AB25
:104A18009B1A5F4615460C93D4E7652E40F3E98050
:104A2800DDE9140100220023FDF722F8002800F038
:104A3800E1810123C8F80430299BC04A01330134BD
:104A4800072B2A942993C8F8002000F3BF8408F1A3
:104A58000808229B129A934280F2DC82169B179ACE
:104A68001C44C8E90023299B2A940133072B299366
:104A780000F3178408F10808129B5D1E002D7FF7CC
:104A8800BCAD102D41F35D81DFF8B4922246494652
:104A98001026B946299B0F46DDF824B0079C05E08F
:104AA80008F10808103D102D40F39D8401331032A1
:104AB800072BC8E90076CDE92932F1DD21465846B1
:104AC80028AA03F0ABFD00287FF411ADDDE92932F7
:104AD8000DF1AC08E6E70A9B069AA3EB020BBBF1C3
:104AE800000F7FF770ADBBF1100F41F35280DFF874
:104AF800509241462046A8464C461023299A079DC5
:104B0800DDF8249006E0ABF1100BBBF1100F01F1BA
:104B1800080119DD01321030072AC1E90043CDE947
:104B28002920F0DD2946484628AA03F077FD002809
:104B38007FF4DDACDDE92920ABF1100BBBF1100FE0
:104B48004FF010032BA9E5DC4546A14688460446EC
:104B580001325C44072ACDE92924C8F80090C8F836
:104B680004B000F3918308F108082CE5BBF1100F9D
:104B780040F3E384DFF8C89141462046A8464C46F6
:104B88001023299A079DDDF8249006E0ABF1100B5D
:104B9800BBF1100F01F1080119DD01321030072AAD
:104BA800C1E90043CDE92920F0DD2946484628AA75
:104BB80003F034FD00287FF49AACDDE92920ABF13D
:104BC800100BBBF1100F4FF010032BA9E5DC454685
:104BD800A1468846044601325C44072ACDE92924C7
:104BE800C8F80090C8F804B000F3D28108F10808AA
:104BF800F1E4129B012B40F382810123299E0134A9
:104C08001E44072EC8F800502A94C8F80430299684
:104C180000F36C8308F10808169B0136179A1C44A8
:104C2800072EC8E90023CDE9296400F36C8308F155
:104C380008080022DDE914010023FCF719FF002809
:104C480040F07A81129B0136013B01351C44072E46
:104C5800C8F800502996C8F804302A9400F35F81F8
:104C680008F108081A9B01361C44C8F80430072EBE
:104C780024ABCDE92964C8F800307FF7BCAC0799AC
:104C8800099828AA03F0CAFC00287FF430AC2A9CB3
:104C98000DF1AC08B1E4B9F1100F40F3C686DDE9B7
:104CA80029214046CDE91D36B84610244F46079EB7
:104CB800A946099D04E0103F102F00F1080016DDF9
:104CC8000132204B1031072AC0E90034CDE92921EF
:104CD800F1DD3146284628AA03F0A0FC00287FF41D
:104CE80006ACDDE92921103F102F2BA8E8DC4D4642
:104CF800DDE91D36B9464746804609EB0104013215
:104D08001049072ACDE92924C8F80490C8F80010EA
:104D180000F340839DF8832008F108082CE4BB4683
:104D28000A2C79F1000380F0FB82012330345F46BE
:104D38008DF84F410C930DF24F1543E628A2000859
:104D48003CA200082CA200080799099828AA1D93DC
:104D580003F064FC00287FF4CAAB2A9C1D9B0DF16C
:104D6800AC081BE40799099828AA03F057FC002807
:104D78007FF4BDAB2A9C0DF1AC0820E4102D40F364
:104D8800BE861026299B099FDDF81C9004E0103D83
:104D9800102D08F1080817DD0133BA4A1034072B23
:104DA800C8E90026CDE92934F1DD4946384628AA64
:104DB80003F034FC00287FF49AABDDE92934103D78
:104DC800102D0DF1AC08E7DC0133AE4A2C44072B5B
:104DD800CDE92934C8F80450C8F800207FF715AC8D
:104DE8000799099828AA03F019FC00287FF47FABDB
:104DF8002A9C0AE42299002940F31081DDF84090AA
:104E0800129B9945A8BF9946B9F1000F0BDD299B64
:104E18004C440133072BC8E900592A94299300F31D
:104E2800818508F10808109EB9F1000FA8BFA6EB0C
:104E38000906002E00F3F582DDF840B07905AB4491
:104E480000F1AC84229B129A934202DBFA0740F1EC
:104E58009283169A17991444C8E90012299A2A9439
:104E68000132072A299200F3A88508F10808129A46
:104E7800AE18A6EB0B06D51AAE42A8BF2E46002EDA
:104E88000DDD299B34440133072BC8F800B0C8F85E
:104E980004602A94299300F3FC8508F10808002E81
:104EA800A8BFAD1B002D7FF7A8AB102D40F3498795
:104EB800DFF8D491224649461026B946299B0F4669
:104EC800DDF824B0079C05E008F10808103D102D16
:104ED80040F3898201331032072BC8E90076CDE907
:104EE8002932F1DD2146584628AA03F097FB00280D
:104EF8007FF4FDAADDE929320DF1AC08E6E7FE07EB
:104F08003FF57BAE0123299E01341E44072EC8F8C5
:104F180000502A94C8F8043029967FF7A1AE079963
:104F2800099828AA03F07AFB00287FF4E0AADDE9B3
:104F380029640DF1AC0895E6129B5D1E002D7FF7E4
:104F480091AE102D40F31987224608974FF0100BA9
:104F5800DFF83491099C079F05E008F10808103D27
:104F6800102D40F3C78201361032072EC8E9009B86
:104F7800CDE92962F1DD3946204628AA03F04EFB27
:104F880000287FF4B4AADDE929620DF1AC08E6E750
:104F98000799099828AA03F041FB00287FF4A7AADB
:104FA8002A9C0DF1AC08FFF716BB17F0100377D158
:104FB80017F0400200F0AC820E9A994652F8044B62
:104FC8000E92A4B208E41BF010030E9A54D11BF001
:104FD80040014DD052F8044B99460E920123A4B2D9
:104FE800FFF7FDBB53F8044B0E93FB0653D47D0625
:104FF8004ED544F3C0394B4624B2FFF78EBB2D2360
:1050080064428DF88330BB464FF0010369EB4909D0
:10501800FFF7E8BBF8077FF5F0AA1FE50123C8F8FA
:105028000430299B194A01330134072B2A94299308
:10503800C8F8002000F3688408F10808002940F047
:105048002582129A07F0010313433FF4D6AA169B50
:105058001799E218C8E90013299B2A920133072BF4
:10506800299300F3508308F1080820E254ADA9E41D
:105078001BF4007940F0A08252F8044B01230E92F1
:10508800FFF7ADBB2CA200083CA2000828A200082C
:10509800B80500F179824FEAE4794B46FFF73DBB4A
:1050A8000E9B53F8044B0E93FFF796BBDDE91401F2
:1050B80002460B46FCF70EFD002840F0F785612EEE
:1050C80000F06C85412E00F07F82089B013300F0D0
:1050D800948526F02003472B069300F07B85DDE9B5
:1050E800141247F480730F931346002BC0F2F48513
:1050F8000C9300238B461D930D93069B462B00F0C3
:105108002B84452B00F0148508990C9B01910221F2
:10511800009126A9049123A9039122A95A46099826
:10512800029100F0ADFF069B0546472B40F04486F0
:1051380017F0010FB9460F9F40F0F784269B5B1BC1
:105148001293069B472B00F0F182069B462B00F03A
:105158004284229B1093109B069A013B412A22937A
:1051680000F08A850021F2B2002B8DF89020B6BF9E
:105178002D222B22109B8DF89120B8BFC3F101037B
:10518800092B40F381850DF19F0C6246BA4F1C46EE
:10519800104687FB0312D917C1EBA20101EB81026C
:1051A800A3EB42023032632C00F8012C0B4600F1CD
:1051B800FF32ECDC3033811EDBB28C4502F8013C57
:1051C80040F2FF850DF1920101E012F8013B944590
:1051D80001F8013BF9D10DF1A1030DF192021B1A5F
:1051E800134424AA9B1A1A93129B1A9A012B1A4445
:1051F8000C9240F39E850C9B169A13440C93002343
:105208000C9A29F4806722EAE27247F480770F93B8
:105218000692139310931D9B002B40F0B0829DF8CB
:1052280083200893FFF74FBA0E9B0B9853F8041B83
:10523800C2175546C1E900020E93FFF7FCB98F4B20
:10524800189317F0200949D00E9B073323F0070362
:10525800D3F8049053F8084B0E93F80709D554EA8D
:10526800090306D030238DF8856047F002078DF8D2
:105278008430022327F4806BFFF7B1BABB46FFF7EF
:105288000DBB7F4B1893DCE70799099828AA03F010
:10529800C5F900287FF42BA92A9C0DF1AC08FFF76B
:1052A80092B90799099828AA03F0B8F900287FF459
:1052B8001EA92A9C0DF1AC08FFF7DEBB062B294678
:1052C80028BF06232A4608950D9506936D4D0E9422
:1052D8000C930F9113911091FFF7F5B917F0100384
:1052E80069D00E9B53F8044B0E93B6E707990998BB
:1052F80028AA03F093F900287FF4F9A8DDE92964C6
:105308000DF1AC0888E40799099828AA03F086F9F2
:1053180000287FF4ECA8DDE929640DF1AC0888E4E5
:1053280000230BF48062CDE90CA8069692461E462F
:10533800DDF8648054AF0CE00023204649460A2279
:10534800FCF706FC0A2C79F100031BD304468946B6
:105358002F4620460A2200234946FCF7F9FB303243
:105368007D1E013607F8012CBAF1000FE4D098F839
:1053780000309E42E0D1FF2EDED00A2C79F10003E6
:1053880080F0E080CDF864801296DDE90CA8069ED6
:10539800FFF714BB0799099828AA1D9303F03EF953
:1053A80000287FF4A4A89DF883202A9C1D9B0DF15A
:1053B800AC08FFF7E1B817F0400200F0B4800E9A8D
:1053C800994652F8044B0E92A4B246E707990998F9
:1053D80028AA03F023F900287FF489A82A9C0DF154
:1053E800AC08FFF736BB14463A464F4691460133A0
:1053F8002C44072BC8F80090C8F80450CDE929348C
:105408007FF7F9A83BE4012BBB467FF4C6AA8CE4DE
:105418000E9B0B9953F8042B554611600E93FFF71A
:105428000AB9102E40F3AD84DFF85C904246484636
:105438002146A846B9464FF0100B0746299B099C00
:10544800079D04E00832103E102E40F348820133D5
:105458001031072BC2E9007BCDE92931F2DD29465D
:10546800204628AA03F0DAF800287FF440A8DDE9EE
:1054780029312BAAE7E700BF67666666F8A100082E
:105488000CA2000820A200083CA20008169B17984E
:10549800E218C8E90003299B2A920133072B2993B4
:1054A80000F3318108F108080029C0F2028312993B
:1054B80001338C18072BCDE92934C8F80050C8F8F7
:1054C80004107FF798A8FFF7DABB2846CDF820909C
:1054D8000E9403F005F820EAE073CDE90C099DF875
:1054E8008320CDF83C90CDF84C90CDF840900693B1
:1054F800FFF7E9B81446089F01362C44072ECDE97A
:105508002964C8F80090C8F804507FF7A9AB06E5ED
:1055180017F400790E9B3DD053F8044B91460E9337
:10552800E4B2FFF759B917F400790E9B40D053F84D
:10553800044B91460E93E4B28FE6299ADFF84C9219
:10554800FFF749BB1C9B1B99ED1A1A46284602F027
:10555800F5FF98F801300BB108F1010820464946DB
:105568000A2200230026FCF7F3FAEFE62D228DF835
:105578008320FFF798B8129AAE18A6EB0B06D51A37
:10558800AE42A8BF2E468AE444F3C0194B4664B223
:10559800FFF7C3B853F8044B0E93FFF71DB90E9BE2
:1055A8000B9953F8042B554611800E93FFF743B817
:1055B80053F8044B0E9350E652F8044B89460123E6
:1055C8000E92E4B2FFF70BB930238DF884305823DC
:1055D8008DF88530089B47F00204632B00F3E382C3
:1055E80000233BAD0D9347F481730F93DDE914124B
:1055F8001346002B2746C0F240820C9300238B46AB
:105608001D9326F020030693612E00F01783412E88
:105618007FF473AD22AA58460C9902F0D1FE0022FD
:105628004FF07F53FBF7BCFF02460B46CDE9102332
:1056380000220023FCF71CFA08B101232293544BE3
:105648000C93089BCDE912A6CDE91E78DDE9106719
:10565800AB46DDF830A003F1FF39109506E00022D3
:10566800002309F1FF39FCF703FAE8B90022494B96
:1056780030463946FBF794FF0F460646FCF740FADA
:105688000446FBF723FF0B46024639463046FBF734
:10569800CFFD1AF80430B9F1FF3FD8464D4606460B
:1056A8000F460BF8013BDAD13046394600223A4B17
:1056B800A946DDF848A0109DCDF84880CDE9100135
:1056C800DDF87C80139E1E9FFCF7FAF9002840F055
:1056D8004482DDE9100100222F4BFCF7C9F910B113
:1056E800E10700F13A824B46002B06DB30220133FA
:1056F8005B440BF8012B5B45FBD1ABEB0503B946CB
:1057080012930F9F1DE50799099828AA02F086FFB2
:1057180000287EF4ECAEDDE9293222990DF1AC08BF
:10572800C2E6906D01F0FEFEFEF7B3BE229BDA1CC6
:10573800109302DB089A934204DD023E26F0200310
:10574800069308E5109B129A9342C0F2828119F0E1
:10575800010F00F0A882169A13440C9319F4806F75
:1057680000F09082109B6726002B00F346810C9B6B
:1057780023EAE373069300230F9313934BE52D223B
:1057880000238DF883200893FEF7A0BF3CA20008F1
:105798000CA20008000030400000E03F129B424687
:1057A800DDF84C80EB185E460893CDF830A01097D2
:1057B8002146199FDDF87090DDF824A0DDF81CB0B3
:1057C8000F9B1395B8F1000F2ED0002B6CD1013F21
:1057D80008F1FF381B9B4944C2E90039299B2A91EB
:1057E8000133072B299363DC0832089B38789B1B0D
:1057F8008342A8BF0346002B1C460ADD299819449A
:1058080001300728C2E900632A9129905BDC3878C7
:105818000832002CB4BF0546051B002D15DC0644D4
:105828000F9BB8F1000FD0D1002B3DD1DDE9123527
:10583800EB189E42B346199790460C4628BF9B46E4
:10584800DDF830A0109FFFF7FDBA102D40F36F82EE
:105858001024299804E0103D102D02F1080216DDED
:105868000130A84B10310728C2E90034CDE92901DD
:10587800F1DD5946504628AA02F0D0FE00287EF4F1
:1058880036AEDDE92901103D102D2BAAE8DC0130E8
:105898009C4B29440728CDE92901556013604EDC4B
:1058A800387808320644BBE70F9B013B0F9391E71A
:1058B8005946504628AA02F0B1FE00287EF417AED9
:1058C8002A992BAA91E75946504628AA02F0A6FE23
:1058D80000287EF40CAE38782A992BAA99E7454619
:1058E80090463A460C464F46914601333444072BBE
:1058F800CDE92934C8F80090C8F8046000F35D8148
:1059080008F10808FFF798BA0799099828AA02F039
:1059180085FE00287EF4EBAD22992A9C0DF1AC0897
:10592800FFF78CBB0799099828AA02F077FE002890
:105938007EF4DDAD2A9C0DF1AC08FFF774BA594628
:10594800504628AA02F06AFE00287EF4D0AD3878C6
:105958002A992BAA064463E708990C9B0191032115
:10596800009126A9049123A9039122A95A460998CE
:10597800029100F085FB03780546302B00F0C081CA
:10598800229B089AB94613440F9FEC1858460022E8
:1059980000230C99FCF76CF810B12346FFF7CFBB36
:1059A800269BA342BFF4CBAB30215A1C2692197018
:1059B800269B9C42F9D8FFF7C2BB0799099828AAE9
:1059C80002F02CFE00287EF492AD229B2A9C0DF159
:1059D800AC08FFF74CBA229A002A109240F3B9811A
:1059E800089909F001030B4340F040816626109B9B
:1059F8000C9319F4806F3FF4BAAE19990B78FF2B0A
:105A080000F0D6810024109A204604E001300131CC
:105A1800FF2B00F06481934280F26181D21A4B78A7
:105A2800002BF3D10B780134F2E7DDE92921FFF7E8
:105A380064B9089B9DF883200E9406930C930890F4
:105A48000F9013901090FEF73EBE00230893FEF7C8
:105A58008ABC129B169A9A18109B0C92002B40F342
:105A68005D816726C5E70799099828AA02F0D6FD3F
:105A780000283EF4E8ADFEF740BD26F0200306936B
:105A88002D22DDE914349B4604F100431D920C934A
:105A9800BAE50799099828AA02F0C0FD00287EF403
:105AA80026AD229D129B2A9C0DF1AC085D1BFFF7C9
:105AB800F6B94E42103180F2818141461024A84641
:105AC800DFF84090DDF824B0079D04E00831103E6F
