:020000040800F2
:1000000000C0002075300008E5050008E70500087D
:10001000E9050008EB050008ED05000800000000F8
:100020000000000000000000000000005117000860
:10003000EF05000800000000F1170008F1050008B6
:10004000BD300008BD300008BD300008BD300008DC
:10005000BD300008BD300008BD300008BD300008CC
:10006000BD300008BD300008BD300008BD300008BC
:10007000BD300008BD300008BD300008BD300008AC
:10008000BD300008BD300008BD300008BD3000089C
:10009000BD300008BD300008BD300008BD3000088C
:1000A000BD300008BD300008BD300008BD3000087C
:1000B000BD300008BD300008BD300008BD3000086C
:1000C000BD300008BD300008BD300008BD3000085C
:1000D000BD300008BD300008BD300008BD3000084C
:1000E000BD300008BD300008BD300008BD3000083C
:1000F000BD300008BD300008BD300008BD3000082C
:10010000BD300008BD300008BD300008BD3000081B
:10011000BD300008BD300008BD300008BD3000080B
:10012000BD300008BD300008BD300008BD300008FB
:1001300000000000000000000000000000000000BF
:1001400000000000000000000000000000000000AF
:10015000000000000000000000000000000000009F
:10016000000000000000000000000000000000008F
:10017000000000000000000000000000000000007F
:10018000000000000000000000000000000000006F
:10019000000000000000000000000000000000005F
:1001A000000000000000000000000000000000004F
:1001B000000000000000000000000000000000003F
:1001C000000000000000000000000000000000002F
:1001D000000000000000000000000000000000001F
:0401E0005FF8E0F1F3
:1001F00010B5054C237833B9044B13B10448AFF361
:1002000000800123237010BD54080020000000006E
:10021000484D000808B5034B1BB103490348AFF331
:10022000008008BD0000000058080020484D00086C
:10023000844641EA000313F0030349D1403A23D333
:100240000B6803604B6843608B688360CB68C36056
:100250000B6903614B6943618B698361CB69C3613E
:100260000B6A03624B6A43628B6A8362CB6AC36226
:100270000B6B03634B6B43638B6B8363CB6BC3630E
:1002800040304031403ADBD230320BD30B68036050
:100290004B6843608B688360CB68C360103010315B
:1002A000103AF3D20C3205D351F8043B40F8043B2A
:1002B000043AF9D2043208D0D2071CBF11F8013B2E
:1002C00000F8013B01D30B8803806046704700BFF4
:1002D000082A13D38B07B1D010F00303AED0C3F1BB
:1002E0000403D21ADB071CBF11F8013B00F8013BE5
:1002F000A4D331F8023B20F8023B9FE7043AD9D35C
:10030000013A11F8013B00F8013BF9D20B78037078
:100310004B7843708B7883706046704708B5012036
:1003200001F052F9FBE7000008B50421054800F090
:10033000C3FB4FF47A7000F027FA012001F044F972
:10034000F3E700BF0014014008B5054802F082FF42
:100350004FF47A7000F018FA012001F035F9F4E753
:10036000604D000808B50B4A00210B4801F0B6F8B3
:100370000A4B18600A4A00210A4801F0AFF80A4BFC
:1003800018600A4A00210A4801F0A8F8094B1860D1
:1003900008BD00BFD04D00081D03000878080020EC
:1003A000884D00082903000870080020AC4D0008A3
:1003B000490300087408002030B587B00024029477
:1003C000039404940594134B9A6942F020029A61B5
:1003D0009A6902F020020092009A9A6942F004029F
:1003E0009A619B6903F004030193019B0A4D224625
:1003F0000421284600F05AFB0423029301230393AF
:1004000004940223059302A9284600F02FFA07B0AE
:1004100030BD00BF001002400014014072B6FEE77C
:1004200000B591B02822002106A802F073FE002337
:1004300001930293039304930593012206924FF4D0
:10044000803307930A9202220D920E934FF4E01329
:100450000F9306A800F050FB80B90F2301930221EF
:100460000291002303934FF480620492059301A844
:1004700000F082FD20B911B05DF804FBFFF7CEFF5C
:10048000FFF7CCFF08B500F05BF9084800F010F862
:10049000FFF7C6FFFFF790FF00F0D6F800F0D6FF99
:1004A000FFF760FF00F0F4FFFEE700BF84080020C4
:1004B00008B5054B1860054B186800230222194641
:1004C000806802F0CFFE08BD7C08002010000020EC
:1004D000022801D80120704708B502F0F1FD092378
:1004E0000360002008BD000010B5013801280AD8BB
:1004F00014464FF0FF3392B20748006800F0C7FE81
:1005000040B9204610BD02F0DBFD092303604FF027
:10051000FF30F7E70520F5E77C080020022801D826
:100520000020704708B502F0CBFD092303604FF0AF
:10053000FF3008BD08B502F0C3FD092303604FF08A
:10054000FF3008BD08B548B94FF0FF330122084815
:10055000006800F008FF40B9012008BD02F0B0FDBE
:10056000092303604FF0FF30F7E70520F5E700BFF0
:100570007C08002008B5022804D84FF400534B60D3
:10058000002008BD02F09CFD09230360F8E700008D
:1005900000B583B0114B9A6942F001029A619A69E1
:1005A00002F001020092009ADA6942F08052DA61A8
:1005B000DB6903F080530193019B00220F216FF050
:1005C000010000F007F9064A536823F0E06343F0A6
:1005D0000073536003B05DF804FB00BF00100240DD
:1005E00000000140FEE7FEE7FEE7FEE7FEE770479A
:1005F00008B500F0B7F802F0CDFA012800D108BD27
:1006000001F018F9FBE7000008B503460B4A126831
:1006100042B10A4A106803446A46934206D8074A20
:10062000136008BD054A06491160F2E702F048FD73
:100630000C2303604FF0FF30F3E700BF8008002079
:10064000602200207047000008B50A480A4B03608A
:100650004FF4E133436000238360C36003610C22E5
:1006600042618361C36100F0E3FD00B908BDFFF79B
:10067000D5FEFBE7840800200038014010B586B0A5
:10068000002302930393049305930268174B9A4245
:1006900001D006B010BD03F558439A6942F4804278
:1006A0009A619A6902F480420092009A9A6942F033
:1006B00004029A619B6903F004030193019B4FF4C8
:1006C000007302930223039303230593084C02A9AA
:1006D000204600F0CBF84FF480630293002303938D
:1006E000049302A9204600F0C1F8D2E70038014087
:1006F0000008014010B504460E4B18784FF47A7389
:10070000B3FBF0F30C4A1068B0FBF3F000F09AF87A
:1007100068B90F2C01D901200AE0002221464FF0D0
:10072000FF3000F057F8054B1C60002000E001206E
:1007300010BD00BF040000200000002008000020C1
:1007400008B5074A136843F010031360032000F054
:100750002FF80F20FFF7CEFFFFF71AFF002008BD8C
:1007600000200240034A1168034B1B780B441360BE
:10077000704700BFC808002004000020014B186823
:10078000704700BFC808002038B50446FFF7F6FFE1
:100790000546B4F1FF3F02D0044B1B781C44FFF721
:1007A000EDFF401BA042FAD338BD00BF040000207B
:1007B000074AD36823F4E0631B041B0C000200F417
:1007C000E060034343F0BF6343F40033D3607047FA
:1007D00000ED00E000B5194BDB68C3F30223C3F161
:1007E000070CBCF1040F28BF4FF0040C03F1040EFA
:1007F000BEF1060F18D9033B4FF0FF3E0EFA0CFC7A
:1008000021EA0C0199400EFA03F322EA030319438B
:1008100000280BDB0901C9B200F1604000F561401E
:1008200080F800135DF804FB0023E5E700F00F00FB
:100830000901C9B2024B1954F4E700BF00ED00E012
:1008400014ED00E00138B0F1807F0BD24FF0E023CF
:100850005861054AF02182F8231000209861072290
:100860001A6170470120704700ED00E070B582B05A
:100870000024A446B0E0874DAA4210D007D9864D87
:10088000AA420CD005F58035AA4208D013E0A5F5A0
:100890008015AA4203D005F57025AA4207D18A68BF
:1008A000002A62D0012A5BD04361082403E0A5F549
:1008B0008015AA42F3D0BEF1FF0F58D80646BEF10C
:1008C000FF0F56D84FEA8C0233680F25954023EA74
:1008D000050304FA02F2134333604B6813F0805FA0
:1008E00078D06E4B9A6942F001029A619B6903F0DD
:1008F00001030193019B4FEA9C02951C684B53F83E
:1009000025600CF003039D000F23AB4026EA03068D
:10091000644B984233D003F58063984200F098808E
:1009200003F58063984200F0958003F58063984258
:1009300000F0928003F58063984200F08F8003F509
:100940008063984219D006231AE0CC68B3E7CC68DC
:100950000434B0E7CC680834ADE7CC680C34AAE7BF
:1009600003610824A7E70024A5E70424A3E7061DE4
:10097000A5E7ACF108029200A6E7052300E00023FA
:10098000AB4033430232464D45F822304B6813F4F6
:10099000803F65D0444A136843EA0E0313604B68F6
:1009A00013F4003F62D0404A536843EA0E03536099
:1009B0004B6813F4801F5FD03B4A936843EA0E03F1
:1009C00093604B6813F4001F5CD0374AD36843EA46
:1009D0000E03D3600CF1010C0A6832FA0CF357D005
:1009E000012303FA0CF302EA030E33EA0202F1D107
:1009F0004A68122A3FF63FAF122A3FF65CAF01A5C4
:100A000055F822F09F0800084B0900085509000816
:100A100067090008B7080008B7080008B708000809
:100A2000B7080008B7080008B7080008B7080008AA
:100A3000B7080008B7080008B7080008B70800089A
:100A4000B7080008B70800084F0900085B0900084C
:100A5000012395E7022393E7032391E704238FE71C
:100A6000114A136823EA0E03136098E70E4A53688D
:100A700023EA0E0353609BE70B4A936823EA0E03B5
:100A800093609EE7084AD36823EA0E03D360A1E788
:100A900002B070BD000022100000311000100240B2
:100AA0000000014000080140000401400AB101615A
:100AB0007047090401617047C36801EA030221EA33
:100AC000030141EA024101617047000082B0084B16
:100AD0001B68084AA2FB03235B0A00FB03F3019394
:100AE00000BF019B5A1E0192002BF9D102B0704742
:100AF00000000020D34D6210002800F0F18170B595
:100B000082B00446036813F0010F2CD0994B5B6848
:100B100003F00C03042B1DD0964B5B6803F00C0311
:100B2000082B12D06368B3F5803F41D0002B55D11C
:100B300003F1804303F504331A6822F480321A600B
:100B40001A6822F480221A6037E08A4B5B6813F43B
:100B5000803FE7D0874B1B6813F4003F03D06368E6
:100B6000002B00F0BF81236813F0020F75D0814B7A
:100B70005B6813F00C0F5FD07E4B5B6803F00C03D7
:100B8000082B54D02369002B00F08A807A4B012275
:100B90001A60FFF7F3FD0546764B1B6813F0020F52
:100BA00075D1FFF7EBFD401B0228F5D903209EE12C
:100BB000704A136843F480331360636843B3FFF7EC
:100BC000DDFD05466B4B1B6813F4003FCBD1FFF7EF
:100BD000D5FD401B6428F5D9032088E1B3F5A02F8B
:100BE00009D0644B1A6822F480321A601A6822F421
:100BF00080221A60E1E703F18043A3F53C331A68D1
:100C000042F480221A601A6842F480321A60D4E7F3
:100C1000FFF7B4FD0546574B1B6813F4003FA2D005
:100C2000FFF7ACFD401B6428F5D903205FE1514B71
:100C30005B6813F4803FA5D14E4B1B6813F0020F85
:100C400003D02369012B40F04F814A4A136823F0F7
:100C5000F803616943EAC1031360236813F0080FC6
:100C600033D0A369002B5CD0434B0122C3F880240E
:100C7000FFF784FD05463F4B5B6A13F0020F21D15D
:100C8000FFF77CFD401B0228F5D903202FE1394AEC
:100C9000136823F0F803616943EAC1031360DCE7DA
:100CA000354B00221A60FFF769FD0546314B1B6882
:100CB00013F0020FD1D0FFF761FD401B0228F5D9D8
:100CC000032014E10120FFF701FF236813F0040F54
:100CD00000F09680274BDB6913F0805F34D1254B01
:100CE000DA6942F08052DA61DB6903F080530193E4
:100CF000019B0125214B1B6813F4807F26D0E368FC
:100D0000012B3DD0002B53D103F1804303F5043375
:100D10001A6A22F001021A621A6A22F004021A62A6
:100D200033E0154B0022C3F88024FFF727FD05466A
:100D3000104B5B6A13F0020FC7D0FFF71FFD401B7B
:100D40000228F5D90320D2E00025D3E70B4A136827
:100D500043F480731360FFF711FD0646074B1B68D1
:100D600013F4807FCBD1FFF709FD801B6428F5D9F0
:100D70000320BCE00010024000004242007000402E
:100D80005F4A136A43F001031362E36833B3FFF76A
:100D9000F5FC06465A4B1B6A13F0020F2FD1FFF7E2
:100DA000EDFC801B41F288339842F3D903209EE08A
:100DB000052B09D0524B1A6A22F001021A621A6AF4
:100DC00022F004021A62E0E74D4B1A6A42F0040274
:100DD0001A621A6A42F001021A62D6E7FFF7CEFCE5
:100DE0000646474B1B6A13F0020F08D0FFF7C6FCFC
:100DF000801B41F288339842F3D9032077E0E5B9AC
:100E0000E369002B72D03E4A526802F00C02082AB5
:100E100056D0022B17D03B4B00221A66FFF7AEFCD0
:100E20000446374B1B6813F0007F47D0FFF7A6FC42
:100E3000001B0228F5D9032059E0314AD36923F079
:100E40008053D361DCE72F4B00221A66FFF796FC34
:100E500005462B4B1B6813F0007F06D0FFF78EFC76
:100E6000401B0228F5D9032041E0236AB3F5803FF7
:100E70001AD023494B6823F47413226A606A024330
:100E800013434B601F4B01221A66FFF777FC0446A1
:100E90001B4B1B6813F0007F0ED1FFF76FFC001B8C
:100EA0000228F5D9032022E0154A536823F40033C1
:100EB000A1680B435360DCE7002018E0002016E037
:100EC000012B16D00E4B5B6803F48031226A9142ED
:100ED00011D103F47013626A93420ED1002006E030
:100EE00001207047012002E0012000E0002002B054
:100EF00070BD0120FBE70120F9E70120F7E700BF03
:100F0000001002400000424286B0174B0FCB0DF19B
:100F1000180C0CE90F0040F20123ADF80430134B1C
:100F20005B6803F00C02082A02D0114806B0704733
:100F3000C3F3834218326A4412F8100C13F4803F52
:100F40000DD00A4B5B68C3F3404318336B4413F86E
:100F5000143C074A02FB00F0B0FBF3F0E6E7054B58
:100F600003FB00F0E2E700BF0C4E00080010024057
:100F700000127A0000093D00002800F0A08070B542
:100F80000D460446524B1B6803F007038B420BD2FD
:100F90004F4A136823F007030B431360136803F0F1
:100FA00007038B4240F08D80236813F0020F17D0A7
:100FB00013F0040F04D0474A536843F4E0635360CE
:100FC000236813F0080F04D0424A536843F4605377
:100FD0005360404A536823F0F003A1680B43536009
:100FE000236813F0010F31D06368012B20D0022B4E
:100FF00025D0384A126812F0020F64D035494A6889
:1010000022F0030213434B60FFF7B8FB0646314B57
:101010005B6803F00C036268B3EB820F16D0FFF736
:10102000ADFB801B41F288339842F0D9032045E0A4
:10103000284A126812F4003FE0D101203EE0254A20
:10104000126812F0007FD9D1012037E0204B1B68D5
:1010500003F00703AB420AD91D4A136823F00703C4
:101060002B431360136803F00703AB422DD12368B1
:1010700013F0040F06D0174A536823F4E063E168C5
:101080000B435360236813F0080F07D0114A5368CD
:1010900023F46053216943EAC1035360FFF734FF2F
:1010A0000C4B5B68C3F303130B4AD35CD8400B4B68
:1010B00018600B4B1868FFF71DFB002070BD012066
:1010C00070470120FAE70120F8E70120F6E700BFAA
:1010D0000020024000100240F44D000800000020F3
:1010E00008000020014B1868704700BF0000002076
:1010F00008B5FFF7F7FF044B5B68C3F30223034A0D
:10110000D35CD84008BD00BF00100240044E000868
:1011100008B5FFF7E7FF044B5B68C3F3C223034A3C
:10112000D35CD84008BD00BF00100240044E000848
:1011300010B504460268136923F44053C1680B4399
:10114000136183680269134342691A430168CB68DB
:1011500023F4B05323F00C031343CB6002685369AC
:1011600023F4407381690B4353610268134B9A4225
:1011700020D0FFF7BDFF024602EB820202EB8202A3
:1011800063689B00B2FBF3F20D48A0FB02314909F2
:10119000642303FB11231B013233A0FB03235B09F0
:1011A00003F0F00202EB011203F00F032168134475
:1011B0008B6010BDFFF7ACFF0246DDE70038014051
:1011C0001F85EB512DE9F84305460F461646994613
:1011D000DDF820802C68246837EA04030CBF4FF048
:1011E000010C4FF0000CB4451FD1B8F1FF3FF1D016
:1011F000B8F1000F05D0FFF7C1FAA0EB0900404598
:10120000E8D92A68D36823F4D073D3602A68536975
:1012100023F001035361202385F83D3085F83E30EB
:10122000002385F83C30032000E00020BDE8F8836F
:1012300058B310B5044690F83D300BB3242384F81E
:101240003D302268D36823F40053D3602046FFF773
:101250006FFF2268136923F4904313612268536976
:1012600023F02A0353612268D36843F40053D36008
:1012700000202064202384F83D3084F83E3010BDE7
:1012800080F83C30FFF7FAF9D8E7012070472DE9E4
:10129000F04182B01E4690F83D30DBB2202B54D195
:1012A00004460D469046002953D0002A53D090F8AA
:1012B0003C30012B51D0012380F83C3000230364E3
:1012C000212380F83D30FFF759FA0746A4F824801F
:1012D000A4F82680A368B3F5805F05D04FF000081E
:1012E000002384F83C3012E0236913B14FF000086A
:1012F000F6E7A8460025F3E738F8023B2268C3F377
:1013000008035360E28C92B2013A92B2E284E38C19
:101310009BB273B100963B46002280212046FFF726
:1013200051FFE0B9002DE7D015F8012B23685A6072
:10133000E8E700963B46002240212046FFF742FFA7
:1013400078B9202384F83D3000E0022002B0BDE8E7
:10135000F0810120FAE70120F8E70220F6E70320F8
:10136000F4E70320F2E72DE9F04182B01E4690F841
:101370003E30DBB2202B5CD104460D46904600295E
:101380005BD0002A5BD090F83C30012B59D0012370
:1013900080F83C3000230364222280F83E2003635F
:1013A000FFF7ECF90746A4F82C80A4F82E80A36878
:1013B000B3F5805F05D04FF00008002384F83C307F
:1013C00017E0236913B14FF00008F6E7A84600259F
:1013D000F3E723685B68C3F3080328F8023B03E0E4
:1013E00023685B682B700135E28D92B2013A92B2AC
:1013F000E285E38D9BB2BBB100963B4600222021E3
:101400002046FFF7DFFEF0B9002DE2D0A368B3F568
:10141000805FE5D013B92369002BE1D023685B68B6
:1014200003F07F032B70DEE7202384F83E3000209A
:1014300000E0022002B0BDE8F0810120FAE70120BF
:10144000F8E70220F6E70320F4E70000EFF3058356
:1014500093B9EFF3108393B90C4B1868022804D0AA
:1014600080B90A4B01221A607047EFF31183002BF9
:10147000F6D06FF0050070476FF0050070476FF011
:10148000050070474FF0FF30704700BF280B002069
:1014900008B5EFF30583B3B9EFF31083B3B90E4B7F
:1014A0001B68022B08D0012B13D10B4B02221A60B0
:1014B00001F0CEF8002008BDEFF31182002AF2D02F
:1014C0006FF00500F7E76FF00500F4E76FF0050037
:1014D000F1E74FF0FF30EEE7280B0020F0B587B0C2
:1014E00000240494EFF30584002C43D1EFF3108320
:1014F000002B3FD1334B1B68022B16D0002839D06C
:1015000000238DF8173062B3156895B1936903B95C
:1015100018235C1E372C51D8546814F0010F4FD19A
:1015200056694EB14FEA960C08E0EFF311830BBBFE
:10153000E4E70DF11705E9E74FF0800C94682CB152
:10154000D7685B2F02D9176907B1B6B914B14FF04C
:10155000FF340CE0D46894B914699CB14FF0FF34A7
:1015600005E0002418234FF0800C0DF11705012C25
:101570000AD0ACB1049807B0F0BD0124F7E74FF0F2
:10158000FF34F4E70024F2E71469926802920194B0
:1015900000930B466246294600F0ECFF0490E9E711
:1015A00004AA019200930B461FFA8CF2294601F01F
:1015B0001BF80128DED000230493DBE70020DAE7E4
:1015C0000020D8E7280B002008B5EFF30583A3B966
:1015D000EFF31083A3B90C4B1B68022B02D040B968
:1015E000002008BDEFF31183002BF8D06FF0050049
:1015F000F7E701F091F90020F3E76FF00500F0E75D
:101600006FF00500EDE700BF280B0020034B0360DF
:10161000034B0B6080231360704700BFCC0A00208F
:10162000CC080020034B0360034B0B604FF4807326
:10163000136070472C0F00202C0B002000F10803D2
:1016400043604FF0FF328260C36003610023036098
:10165000704700230361704743684B609A688A6053
:10166000516099600861036801330360704730B4CA
:101670000D68B5F1FF3F11D000F108031C465B680F
:101680001A68AA42FAD963684B6099608C606160FD
:10169000086103680133036030BC70470469F2E7F6
:1016A0000369416882688A60416851605A68824271
:1016B00006D0002202611A68013A1A601868704761
:1016C00082685A60F5E7000082B0002301930D4B59
:1016D0001B68B3F1FF3F08D04FF0500383F311882C
:1016E000BFF36F8FBFF34F8FFEE74FF0500383F3CD
:1016F0001188BFF36F8FBFF34F8F019B002BFCD07E
:1017000002B070470C00002006480068006880F3B3
:10171000088862B661B6BFF34F8FBFF36F8F00DFEB
:1017200000BF000008ED00E04FF0807340F8043C7B
:1017300021F0010140F8081C034B40F80C3C40F834
:10174000202C4038704700BFC91600080000000078
:10175000074B19680868B0E8F00F80F30988BFF3F9
:101760006F8F4FF0000080F311884EF00D0E704720
:10177000E81B00204FF0500383F31188BFF36F8FF5
:10178000BFF34F8F0B4A136801331360012B00D056
:1017900070474FF0E023D3F8043D13F0FF0FF7D06C
:1017A0004FF0500383F31188BFF36F8FBFF34F8F58
:1017B000FEE700BF0C000020094B1B6843B94FF047
:1017C000500383F31188BFF36F8FBFF34F8FFEE792
:1017D000013B034A13600BB983F31188704700BFC4
:1017E0000C000020000000000000000000000000CD
:1017F000EFF30980BFF36F8F0D4B1A6820E9F00FEC
:1018000010602DE908404FF0500080F3118801F07E
:10181000A9F84FF0000080F31188BDE8084019686E
:101820000868B0E8F00F80F30988BFF36F8F704746
:10183000E81B002008B54FF0500383F31188BFF375
:101840006F8FBFF34F8F00F05FFF28B14FF0E023A1
:101850004FF08052C3F8042D002383F3118808BD94
:101860004FF0E022002313619361054B1B6805498B
:10187000A1FB03139B09013B5361072313617047CD
:1018800000000020D34D621010B582B02A4B1A78A8
:10189000D2B20192FF221A701B78DBB28DF80330AE
:1018A0009DF8033003F05003244A1370244B0722A1
:1018B0001A6009E0224A1368013B13609DF8033067
:1018C0005B00DBB28DF803309DF8033013F0800F1E
:1018D000F0D11B4B1B68032B08D04FF0500383F350
:1018E0001188BFF36F8FBFF34F8FFEE71B02144ABF
:1018F000136003F4E0631360019BDBB20E4A1370C4
:101900004FF0E023D3F8202D42F47002C3F8202DCD
:10191000D3F8202D42F07042C3F8202DFFF7A0FF2E
:101920000024084B1C60FFF7EFFE01F01BF8FFF7E7
:10193000CBFE204602B010BD00E400E0880F00207E
:101940008C0F00200C000020EFF305830F2B0FD924
:10195000114A9B5CDBB2114A12789A4208D94FF0C7
:10196000500383F31188BFF36F8FBFF34F8FFEE7F0
:101970004FF0E023D3F80C3D03F4E063084A12680B
:10198000934208D94FF0500383F31188BFF36F8F50
:10199000BFF34F8FFEE77047F0E300E0880F0020B1
:1019A0008C0F0020124A12F0070F1ED0D11D21F01B
:1019B0000701C1F5406313440A460E480260002146
:1019C00041601344083B23F007030B480360596050
:1019D0001960991A51601360084B1960084B19601F
:1019E000084B4FF000421A6070474FF44063E4E741
:1019F000940F0020A01B0020900F00209C1B0020B3
:101A0000981B0020941B0020154B1A461B6883422C
:101A1000FBD3516802EB010C844509D0416800EB0F
:101A2000010C634509D00360904218D010607047E4
:101A30004068014451601046F0E710B4094C246836
:101A4000A3420AD05B681944416013681B680360B5
:101A5000904200D0106010BC70470460F8E77047F7
:101A6000A01B0020900F002070B5054600F03EFE40
:101A7000344B1B68A3B1344B1B681D424AD135B1AE
:101A8000083515F0070F02D025F007050835002DA1
:101A900042D02E4B1B68AB424DD32D4A146804E054
:101AA000FFF780FFE7E722461C466368AB4202D29D
:101AB0002368002BF7D1234B1B68A3423DD0166847
:101AC00008362368136063685B1B102B10D96019FC
:101AD00010F0070F08D04FF0500383F31188BFF3C5
:101AE0006F8FBFF34F8FFEE743606560FFF78CFF9A
:101AF000626816490B689B1A0B60164909688B428D
:101B000001D214490B60104B1B6813436360002320
:101B1000236002E0002600E0002600F081FE16F0BF
:101B2000070F0CD04FF0500383F31188BFF36F8F72
:101B3000BFF34F8FFEE70026EFE70026EDE73046C4
:101B400070BD00BF900F0020941B0020981B002048
:101B5000A01B00209C1B002080B338B50446A0F1D8
:101B6000080550F8043C164A1268134208D14FF099
:101B7000500383F31188BFF36F8FBFF34F8FFEE7DE
:101B800050F8081C41B14FF0500383F31188BFF3A4
:101B90006F8FBFF34F8FFEE723EA020340F8043C48
:101BA00000F0A4FD54F8041C064A13680B441360AB
:101BB0002846FFF729FF00F033FE38BD704700BF0D
:101BC000941B0020981B002010B50446FFF7D2FD9F
:101BD000A26BE36B9A4204D00024FFF7EDFD204690
:101BE00010BD0124F9E710B50446FFF7C3FDA36B50
:101BF00023B90124FFF7E0FD204610BD0024F9E7DA
:101C000070B504461546866B026C5AB903681BB161
:101C100000200136A66370BD406800F0CBFF0023B2
:101C20006360F6E76DB98068FEF702FB226CA3687B
:101C30001344A3606268934219D32368A3602846C3
:101C4000E7E7C068FEF7F4FA226C5142E3689B1A9A
:101C5000E3602268934202D263680B44E360022D82
:101C600001D00020D5E726B1013E0020D1E728466B
:101C7000CFE70020CDE708B50346026C62B1084605
:101C8000D9681144D960D3F804C0614501D31968FB
:101C9000D960D968FEF7CCFA08BD38B50546FFF71C
:101CA00069FD95F8454064B201E0013C64B2002C46
:101CB0000ADD6B6A43B105F1240000F0D1FE002873
:101CC000F3D000F061FFF0E7FF2385F84530FFF720
:101CD00073FDFFF74FFD95F8444064B201E0013C0D
:101CE00064B2002C0ADD2B6943B105F1100000F04D
:101CF000B7FE0028F3D000F047FFF0E7FF2385F898
:101D00004430FFF759FD38BD38B5E0B10D46044603
:101D1000FFF730FD2368E26B216C01FB023060604D
:101D20000020A063A360013A02FB0133E360FF23BC
:101D300084F8443084F84530FDB9236963B9FFF76E
:101D40003BFD012038BD4FF0500383F31188BFF3F2
:101D50006F8FBFF34F8FFEE704F1100000F080FE9D
:101D60000028ECD04FF0E0234FF08052C3F8042D50
:101D7000BFF34F8FBFF36F8FE1E704F11000FFF760
:101D80005DFC04F12400FFF759FCD8E738B51D4687
:101D9000049C0B4649B92460E0632364012120467A
:101DA000FFF7B2FF84F84C5038BD2260F4E740B929
:101DB0004FF0500383F31188BFF36F8FBFF34F8F42
:101DC000FEE710B584B01C46844653B192B189B980
:101DD0004FF0500383F31188BFF36F8FBFF34F8F22
:101DE000FEE74FF0500383F31188BFF36F8FBFF30B
:101DF0004F8FFEE76AB150230393039B502B13D000
:101E00004FF0500383F31188BFF36F8FBFF34F8FF1
:101E1000FEE70029EFD04FF0500383F31188BFF3A2
:101E20006F8FBFF34F8FFEE7012384F84630009495
:101E30009DF818306046FFF7A9FF204604B010BD9A
:101E4000F0B585B0019288B10F461D460446B1B188
:101E5000022D20D1E36B012B1DD04FF0500383F3F3
:101E60001188BFF36F8FBFF34F8FFEE74FF0500322
:101E700083F31188BFF36F8FBFF34F8FFEE7036CBF
:101E8000002BE5D04FF0500383F31188BFF36F8F21
:101E9000BFF34F8FFEE700F07DFE064658B9019B69
:101EA000002B48D04FF0500383F31188BFF36F8F9E
:101EB000BFF34F8FFEE700263DE02A463946204615
:101EC000FFF79EFE636A7BB948B14FF0E0234FF005
:101ED0008052C3F8042DBFF34F8FBFF36F8FFFF70E
:101EE0006BFC012005B0F0BD04F1240000F0B8FD4A
:101EF0000028F4D04FF0E0234FF08052C3F8042DB7
:101F0000BFF34F8FBFF36F8FE9E7FFF755FC00205A
:101F1000E8E702A800F0EAFD012619E0002384F8B2
:101F2000443021E0002384F8453023E02046FFF7C9
:101F3000B4FE00F075FCFFF71DFCA26BE36B9A4248
:101F4000BBD3022DB9D0019B002BDED0002EE0D0F8
:101F5000FFF732FC00F0CAFBFFF70CFC94F84420BA
:101F600052B2B2F1FF3FD9D094F8452052B2B2F14B
:101F7000FF3FD7D0FFF720FC01A902A800F0C2FD67
:101F8000D8B92046FFF720FE0028CFD0019904F1F0
:101F9000100000F031FD2046FFF77FFE00F040FC0E
:101FA0000028C8D14FF0E0234FF08052C3F8042D31
:101FB000BFF34F8FBFF36F8FBDE72046FFF76DFE76
:101FC00000F02EFC00208DE72DE9F84390B10F467C
:101FD00016461C460546B1B1022C20D1EB6B012BF5
:101FE0001DD04FF0500383F31188BFF36F8FBFF301
:101FF0004F8FFEE74FF0500383F31188BFF36F8FCD
:10200000BFF34F8FFEE7036C002BE5D04FF050037A
:1020100083F31188BFF36F8FBFF34F8FFEE7FFF796
:1020200093FCEFF311894FF0500383F31188BFF352
:102030006F8FBFF34F8FAA6BEB6B9A4206D3022CC4
:1020400004D0002089F31188BDE8F88395F8458015
:102050004FFA88F8224639462846FFF7D1FDB8F1F5
:10206000FF3F06D008F101035BB285F8453001203F
:10207000E8E76B6A0BB90120E4E705F1240000F002
:10208000EFFC18B126B101203060DBE70120D9E771
:102090000120D7E7F0B585B0019290B10F46044614
:1020A000C1B100F077FD064600BB019B002B5ED05E
:1020B0004FF0500383F31188BFF36F8FBFF34F8F3F
:1020C000FEE74FF0500383F31188BFF36F8FBFF328
:1020D0004F8FFEE7036C002BE3D04FF0500383F3E8
:1020E0001188BFF36F8FBFF34F8FFEE700263EE0EE
:1020F00039462046FFF7BFFD013DA563236923B99B
:10210000FFF75AFB012005B0F0BD04F1100000F00C
:10211000A7FC0028F4D04FF0E0234FF08052C3F822
:10212000042DBFF34F8FBFF36F8FE9E7FFF744FB39
:102130000020E8E702A800F0D9FC012621E00023F6
:1021400084F8443029E0002384F845302BE0204611
:10215000FFF7A3FD00F064FB09E02046FFF79DFDBB
:1021600000F05EFB2046FFF73EFD00283FD1FFF761
:1021700001FBA56B002DBBD1019B002BD6D0002EFF
:10218000D8D0FFF719FB00F0B1FAFFF7F3FA94F893
:1021900044305BB2B3F1FF3FD1D094F845305BB22D
:1021A000B3F1FF3FCFD0FFF707FB01A902A800F072
:1021B000A9FC0028D1D12046FFF715FD0028C6D084
:1021C000019904F1240000F017FC2046FFF765FD9B
:1021D00000F026FB0028CAD14FF0E0234FF08052D8
:1021E000C3F8042DBFF34F8FBFF36F8FBFE70020FD
:1021F00089E700000023072B0CD8074A52F8332048
:102200000AB10133F7E7044A42F8331002EBC30383
:1022100058607047704700BFA81B002070B5044687
:102220000D461646FFF7A6FA94F844305BB2B3F1B8
:10223000FF3F0DD094F845305BB2B3F1FF3F0BD0B8
:10224000FFF7BAFAA36B5BB12046FFF726FD70BD1E
:10225000002384F84430EDE7002384F84530EFE7AD
:102260003246294604F1240000F0DEFBECE70000D2
:10227000084B1B681B6823B9074B4FF0FF321A60ED
:102280007047044B1B68DB68DB685A68024B1A60B6
:10229000704700BFEC1B0020982000202DE9F0477C
:1022A00080460D4617469946089EDDF824A00A9CF4
:1022B0009200A521206B00F02DFF236B07F18042D7
:1022C000013A03EB820727F007074FF0000CBCF13F
:1022D0000F0F0BD815F80C2004EB0C0383F83420F7
:1022E00015F80C3013B10CF1010CF0E7002384F861
:1022F0004330372E00D93726E662E664002525658F
:10230000201DFFF7A6F904F11800FFF7A2F92461D8
:10231000C6F13806A6616462656584F858504A467D
:1023200041463846FFF700FA2060BAF1000F01D0AD
:10233000CAF80040BDE8F08738B5002407E004EB98
:10234000840293000E481844FFF778F90134372CC3
:10235000F5D90C4D2846FFF771F90B4C2046FFF7D5
:102360006DF90A48FFF76AF90948FFF767F9094864
:10237000FFF764F9084B1D60084B1C6038BD00BFB7
:10238000F41B00206C20002080200020A0200020D2
:10239000CC200020B8200020EC1B0020F01B0020E7
:1023A00010B50446FFF7E6F9224A136801331360BB
:1023B000214B1B685BB1214B1B686BB91E4B1B6823
:1023C000DA6AE36A9A4207D81B4B1C6004E01A4B96
:1023D0001C601368012B29D0194A1368013313605C
:1023E0006364E06A174B1B68984201D9154B18606B
:1023F00000EB8000211D144B03EB8000FFF72CF94C
:10240000FFF7DAF90D4B1B687BB10B4B1B68DA6ADF
:10241000E36A9A4209D24FF0E0234FF08052C3F8AA
:10242000042DBFF34F8FBFF36F8F10BDFFF784FFF5
:10243000D2E700BF54200020E81B0020B420002079
:102440006420002068200020F41B002010B5044602
:1024500090F8593063B1012B11D0022B0ED04FF000
:10246000500383F31188BFF36F8FBFF34F8FFEE7E5
:10247000006BFFF771FB2046FFF76EFB10BDFFF707
:102480006BFBFBE70F4B1B68D3B110B5FFF772F97D
:102490000D4BDB68DC68201DFFF702F90B4A13685F
:1024A000013B1360074A1368013B1360FFF784F98F
:1024B0002046FFF7CBFF034B1B68002BE6D110BD76
:1024C000704700BF58200020CC200020542000205E
:1024D00008B5FFF7D7FF074B1B68012BF9D94FF061
:1024E000E0234FF08052C3F8042DBFF34F8FBFF3AA
:1024F0006F8FEEE7F41B002070B504460D46174BB6
:102500001E68174B18680430FFF7CAF8B4F1FF3F94
:102510000DD03444124B1B685C60A64210D9114B9D
:1025200018680F4B19680431FFF7A1F870BD002D32
:10253000EFD00B4B196804310B48FFF78DF8F5E726
:102540000A4B1868064B19680431FFF790F8084BDE
:102550001B68A342EAD9064B1C60E7E7E020002095
:10256000E81B0020F01B0020B8200020EC1B0020FE
:102570009820002030B587B00B9C7CB10C9DB5B184
:102580005C250495049D5C2D1AD04FF0500383F315
:102590001188BFF36F8FBFF34F8FFEE74FF05003EB
:1025A00083F31188BFF36F8FBFF34F8FFEE74FF0B8
:1025B000500383F31188BFF36F8FBFF34F8FFEE794
:1025C0000C9D2C63022485F8594000240394029545
:1025D00005AC01940A9C0094FFF760FE0C98FFF78D
:1025E000DFFE059807B030BD2DE9F04385B0074602
:1025F000884614461E469000FFF736FA00B381461F
:102600005C20FFF731FA0546B0B1C0F83090E5B173
:10261000002385F85930039302950D9B01930C9B81
:1026200000933346224641463846FFF737FE284698
:10263000FFF7B6FE012005E04846FFF78DFAE6E712
:102640004FF0FF3005B0BDE8F0834FF0FF30F9E701
:1026500010B588B000240594069407AA06A905A819
:10266000FEF7D4FF059B0293069B0193009423463B
:10267000079A18491848FFF77DFF184B186040B1BA
:1026800000F04CFB012806D0B0F1FF3F18D008B095
:1026900010BD0020F6E74FF0500383F31188BFF31D
:1026A0006F8FBFF34F8F0E4B4FF0FF321A600D4B01
:1026B00001221A600C4B00221A60FFF7E5F8E6E7EA
:1026C0004FF0500383F31188BFF36F8FBFF34F8F29
:1026D000FEE700BF204E0008D1240008942000200F
:1026E00098200020B4200020E0200020024A136837
:1026F00001331360704700BF60200020014B186851
:10270000704700BFE0200020F8B53A4B1B68002B53
:1027100064D1394B1D6801351D60C5B9374B1B6845
:102720001B6843B14FF0500383F31188BFF36F8FE1
:10273000BFF34F8FFEE7314A1168314B18681060C4
:102740001960304A136801331360FFF791FD2E4B77
:102750001B68AB4238D900272C4B1B68DB6A03EBA4
:1027600083039A002A4B9B58012B3CD901273AE05E
:102770000127224B1B681B6843B3204B1B68DB6897
:10278000DC6863689D4226D3261D3046FEF788FF2D
:10279000A36A1BB104F11800FEF782FFE36A1D4A29
:1027A0001268934201D91B4A136003EB83039A001A
:1027B000314617481044FEF74FFFE26A134B1B687F
:1027C000DB6A9A42D4D2D4E70027D2E70E4B4FF00F
:1027D000FF321A60C0E70C4A1360BDE70E4A136867
:1027E0000133136000270D4B1B6803B101273846E6
:1027F000F8BD00BF60200020E0200020EC1B00207E
:10280000F01B00209C20002098200020E81B0020C6
:10281000F41B0020682000205C200020E420002021
:1028200038B5354B1B6843B94FF0500383F311881B
:10283000BFF36F8FBFF34F8FFEE7FEF79BFF2E4B6B
:102840001A68013A1A601B68002B4FD12B4B1B688A
:102850000BB900244BE00024294B1B681BB3284B09
:10286000DB68DC6804F11800FEF71AFF251D284616
:10287000FEF716FFE06A234B1B68984201D9214BF3
:10288000186000EB800029461F4B03EB8000FEF729
:10289000E3FEE26A1D4B1B68DB6A9A42DCD31C4BE9
:1028A00001221A60D8E70CB1FFF7E2FC194B1C6853
:1028B00084B9174B1C68D4B14FF0E0234FF080521D
:1028C000C3F8042DBFF34F8FBFF36F8F01240EE0C9
:1028D000013C07D0FFF718FF0028F9D00C4B01226C
:1028E0001A60F5E70B4B00221A60E2E70024FEF7BE
:1028F00063FF204638BD00BF602000205420002028
:10290000A020002068200020F41B0020E81B0020ED
:10291000E42000205C20002010B5A8B10446104B34
:102920001B6843B14FF0500383F31188BFF36F8FDF
:10293000BFF34F8FFEE7FFF7D9FE00212046FFF7D8
:10294000DBFDFFF76DFF48B94FF0E0234FF08052F9
:10295000C3F8042DBFF34F8FBFF36F8F10BD00BFBF
:10296000602000201F4B1B681BB11F4B01221A6007
:1029700070471D4B00221A601C4B1B6803EB830140
:102980008A001B498A585AB90BB1013BF6E74FF050
:10299000500383F31188BFF36F8FBFF34F8FFEE7B0
:1029A00003EB830082000A4450684068506003EBE8
:1029B000830C4FEA8C020832114488420BD003EB9F
:1029C000830291000A4A0A445268D168094A116098
:1029D000064A13607047406862469100044A0A4400
:1029E0005060ECE760200020E420002068200020F8
:1029F000F41B0020E81B002058B110B50C46094A12
:102A000011681831FEF733FE01212046FFF774FDEF
:102A100010BD4FF0500383F31188BFF36F8FBFF3E6
:102A20004F8FFEE7E81B002038B570B10D46144605
:102A30000A4A11681831FEF70FFE0CB14FF0FF354E
:102A400021462846FFF758FD38BD4FF0500383F369
:102A50001188BFF36F8FBFF34F8FFEE7E81B002095
:102A600038B5C368DC6824B304F118052846FEF7BE
:102A700017FE184B1B682BBB251D2846FEF710FEC2
:102A8000E06A154B1B68984201D9134B186000EBA4
:102A900080002946114B03EB8000FEF7DDFDE26A62
:102AA0000F4B1B68DB6A9A4211D901200D4B18604D
:102AB00038BD4FF0500383F31188BFF36F8FBFF31E
:102AC0004F8FFEE729460848FEF7C6FDE7E70020DE
:102AD000EEE700BF6020002068200020F41B0020EB
:102AE000E81B0020E4200020A0200020034B1B68EE
:102AF0000360034B1B684360704700BF9C200020AD
:102B0000E0200020D8B170B50C46054601B3FEF7B1
:102B100031FE1B4B19686B68C81A2268B2F1FF3F7F
:102B200027D0184E3668D5F800C0B44501D08B4286
:102B300024D9824215D80023236001241AE04FF0E3
:102B4000500383F31188BFF36F8FBFF34F8FFEE7FE
:102B50004FF0500383F31188BFF36F8FBFF34F8F94
:102B6000FEE75B1A134423602846FFF7BFFF0024EB
:102B700000E00024FEF720FE204670BD0124F9E7A6
:102B8000E02000209C200020014B01221A607047A9
:102B9000E4200020054B1B6833B1054B1B680BB1CB
:102BA000002070470220704701207047B4200020A9
:102BB0006020002000283BD038B504461E4B1B681F
:102BC000834208D04FF0500383F31188BFF36F8F17
:102BD000BFF34F8FFEE7036D43B94FF0500383F30C
:102BE0001188BFF36F8FBFF34F8FFEE7013B036583
:102BF000C16AC26C91421DD00BB1002038BD051DC9
:102C00002846FEF74DFDE06CE062C0F13803A36199
:102C10000A4B1B68984201D9084B186000EB8000F2
:102C20002946074B03EB8000FEF716FD0120E5E780
:102C3000002070470020E1E7E81B0020682000200A
:102C4000F41B0020064B1A681368B3FA83F35B0980
:102C5000036013B9D368186870470020704700BF3D
:102C6000E820002008B54160006191420CD8D21ADA
:102C700083699A4201D3012008BD011D094B1868E0
:102C8000FEF7F5FC0020F7E79A4201D2994206D2FE
:102C9000011D054B1868FEF7EAFC0020ECE7012057
:102CA000EAE700BFEC200020E820002030B583B028
:102CB000FEF760FD114B1B681BB1FEF77DFD03B0F5
:102CC00030BD0F4D2846FEF7B9FC0E4C2046FEF7EE
:102CD000B5FC0D4B1D600D4B1C60002300930C4B8D
:102CE0000C4A10210A20FFF762F8044B18600028F4
:102CF000E3D00949FFF77EFADFE700BF0C2200208E
:102D000090210020A4210020E8200020EC200020B9
:102D1000BC210020F0200020284E000810B588B00B
:102D2000FFF7C4FF124B1B68CBB100240594069437
:102D300007AA06A905A8FEF775FC059B0293069B4A
:102D40000193022300932346079A0A490A48FFF792
:102D500011FC0A4B186010B1012008B010BD4FF0F3
:102D6000500383F31188BFF36F8FBFF34F8FFEE7DC
:102D70000C220020304E00085D3000081022002098
:102D8000B8B19C4603461848006858B300B585B0F2
:102D900000910192029305291CDCFFF7FBFE02283B
:102DA00010D000231A4669460F480068FFF748F81C
:102DB00015E04FF0500383F31188BFF36F8FBFF31B
:102DC0004F8FFEE70023069A694607480068FFF721
:102DD00037F804E0002362466946FFF7F5F805B0CE
:102DE0005DF804FB002070470C22002070B582B013
:102DF0001A4B1B681A6852B3DB681E68DC68251D15
:102E00002846FEF74DFC636A20469847E369012B8C
:102E1000EED1A36933449E4207D263602461294600
:102E20000E4B1868FEF723FCE2E7002100910B46E9
:102E300032462046FFF7A4FF0028D9D14FF05003B7
:102E400083F31188BFF36F8FBFF34F8FFEE7044A00
:102E5000106802490860136002B070BDE8200020CD
:102E6000EC20002038B50546FFF748FC0446074B28
:102E70001B68834205D800232B60044B1C6020464E
:102E800038BDFFF7B3FF01232B60F6E7B821002020
:102E900070B582B006460D4614490968C968CC6809
:102EA000201DFEF7FDFBE169012904D0636A20467D
:102EB000984702B070BDA16933462A463144204686
:102EC000FFF7D0FE0028F1D0002100910B463246DA
:102ED0002046FFF755FF0028E8D14FF0500383F359
:102EE0001188BFF36F8FBFF34F8FFEE7E8200020FC
:102EF00070B582B006460C46FFF7F8FB01A8FFF755
:102F0000B1FF019B2BBB05460CB9B0421AD22CB1C4
:102F1000124B1B681C68B4FA84F464092246711BC6
:102F20000F4B1868FFF77AF9FFF77AFC98B94FF062
:102F3000E0234FF08052C3F8042DBFF34F8FBFF34F
:102F40006F8F08E0FFF76CFC29463046FFF7A0FFC3
:102F500001E0FFF765FC02B070BD00BFEC2000206F
:102F60000C22002010B588B002E0049B002B0FDA81
:102F7000002204A9384B1868FFF78CF8002869D0A4
:102F8000049B002BF1DA07990698059B9847ECE71C
:102F9000069C636913B1201DFEF782FB03A8FFF7AF
:102FA00061FF049B092BE3D801A252F823F000BF74
:102FB000D92F0008D92F0008D92F0008712F000839
:102FC0001F30000845300008D92F0008D92F00080D
:102FD000712F00081F300008059BA16902461944A3
:102FE0002046FFF73FFE0028C2D0636A204698477C
:102FF000E369012BBCD1A269002100910B46059821
:1030000002442046FFF7BCFE0028B1D14FF0500328
:1030100083F31188BFF36F8FBFF34F8FFEE70599DE
:10302000A16131B10346024601442046FFF71AFE72
:103030009EE74FF0500383F31188BFF36F8FBFF308
:103040004F8FFEE794F82C30002B91D12046FEF7ED
:1030500083FD8DE708B010BD0C22002000B583B0C1
:1030600001A8FFF7EFFD0199FFF742FFFFF77AFF95
:10307000F6E700000C480D490D4A002302E0D45841
:10308000C4500433C4188C42F9D30A4A0A4C0023B2
:1030900001E013600432A242FBD3FDF7D3FA00F043
:1030A00015F8FDF7EFF970470000002054080020E4
:1030B0004C4E0008540800205C220020FEE700006F
:1030C000014B1868704700BF1000002070B50D4E0E
:1030D0000D4D761BB61006D0002455F8043B013484
:1030E0009847A642F9D1094E094D01F02DFE761BF5
:1030F000B61006D0002455F8043B01349847A64288
:10310000F9D170BD404E0008404E0008484E0008FE
:10311000404E0008830730B548D0541E002A3FD0E7
:103120000346CAB201E0013C3AD303F8012B9D07E4
:10313000F9D1032C2DD9CDB245EA05250F2C45EA4E
:10314000054536D9A4F1100222F00F0C03F1200E30
:10315000E6444FEA121C03F1100242E9045542E929
:10316000025510327245F8D10CF1010214F00C0F27
:1031700003EB021204F00F0C13D0ACF1040323F0A4
:1031800003030433134442F8045B9342FBD10CF075
:1031900003042CB1CAB21C4403F8012B9C42FBD19E
:1031A00030BD64461346002CF4D1F9E703461446BB
:1031B000BFE71A46A446E0E730B5054689B00846A1
:1031C0000C4600F027F901210223214A04940692BB
:1031D000AA6B04AC0590084401940791AC68029373
:1031E000039022B3636E13F0010FB4F90C309AB25E
:1031F00001D1980525D5910406D4626E43F400539D
:1032000022F40052A3816266284601AA214600F0FA
:10321000FDFB636E002814BF4FF0FF350A25DA0767
:1032200002D4A3899B0506D5284609B030BD28469F
:1032300000F0F4F9D6E7A06D00F08AFD284609B049
:1032400030BDA06D00F082FDB4F90C309AB2D2E727
:103250003C4E0008024B01461868FFF7ADBF00BFA7
:10326000100000202DE9F043694C0E46D4F8008090
:10327000174604461D4683B0B8F1000F03D0D8F8B6
:103280003830002B77D0022F05D0012F00F2AC8010
:10329000002DC0F2A980636EDA0752D52146404660
:1032A00000F088F9216B41B104F14003994202D04A
:1032B000404600F0ABFA002323630023B4F90CC0AE
:1032C000A3611CF0800F636064D12CF44A6C2CF075
:1032D000030C022FA4F80CC06AD001AB2146404673
:1032E0006A4600F0A7FDA3891843A081002D2FD0C6
:1032F000002E2ED0D8F83830002B38D0009BC4E9EF
:103300000465AB42B4F90C3026601CBF43F4006383
:10331000A381012F04BF43F00103A3819AB213F0EC
:1033200008032CD0D1075DD500216D42A561656EE3
:10333000A16015F0010527D00025284603B0BDE89F
:10334000F083A3899B05A9D4A06D00F0FFFCA5E73D
:10335000009D284600F09EFD0646002847D0A38920
:1033600043F08003A381D8F83830002BC6D1404603
:1033700000F054F9C2E7404600F050F983E7A3603B
:10338000656E15F00105D7D1930524D5284603B005
:10339000BDE8F0834046216900F038FAB4F90CC06A
:1033A000022F2CF44A6C2CF0030CA4F80CC094D11E
:1033B00000250021012204F1430323602361636E91
:1033C0004CF0020CD807A4F80CC0A1606261DDD4F7
:1033D0001CF4007FDAD1A06D00F0BAFC284603B0DF
:1033E000BDE8F083A560CBE74FF0FF35CEE7DDF811
:1033F0000090A94504D0484600F04CFD064620B98F
:103400004FF0FF35B4F90CC0D3E74D46A7E700BF36
:103410001000002020F0030110F00300C0F10000B4
:1034200051F8043B00F1040C4FEACC0C6FF00002A1
:103430001CBF22FA0CF213434FF0010C4CEA0C2C87
:103440004CEA0C4CA3EB0C0222EA030212EACC1267
:1034500004BF51F8043B0430F4D0C2F1000102EA89
:103460000102B2FA82F2C2F11F0200EBD2007047F1
:10347000024B13B1024800F005B87047000000008D
:1034800041370008002301461A46184601F04CBB9C
:10349000B1F90C20F8B50C461107074643D4636810
:1034A00042F40062002BA2815BDDA56A002D56D09C
:1034B00000233E683B6093B212F4805255D1012341
:1034C0003846E169A847421C65D0A389A56A5B0715
:1034D00005D56368C01A236B0BB1E36BC01A0246B3
:1034E000E16900233846A847411C40D13B68002BC6
:1034F0003DD01D2B01D0162B54D10022A38923F4DB
:103500000063A3812369C4E90032216B3E6031B3BB
:1035100004F14003994202D0384600F077F90023C5
:1035200018462363F8BD2669CEB193B29A0718BF37
:103530000023256808BF63692660AD1BA3600CE00B
:103540002B463246D4F824C03846E169E047B0F152
:10355000000CA5EB0C05664416DD002DF0DC002008
:10356000F8BDE36B002BA0DCF9E7206DAFE700228C
:10357000B4F90C30626023F400632269A381DB0498
:103580002260C2D52065C0E7A3894FF0FF3043F029
:103590004003A381F8BD3B68002B96D01D2B06D0BD
:1035A000162B04D0A38943F04003A381F8BD00206B
:1035B0003E60F8BD38B505460C4608B1836BA3B133
:1035C000B4F90C00B8B1636EDB0701D4810515D5E1
:1035D00028462146FFF75CFF636E0546DA0702D4F2
:1035E000A3899B050ED5284638BD00F017F8B4F91D
:1035F0000C000028E7D10546284638BDA06D00F034
:10360000A5FBE5E7A06D00F0A3FB284638BD00BF91
:10361000014900F073BB00BFD94B00082DE9F0470A
:103620008246394800F092FBDAF83840002C66D127
:10363000042303223549DAF80450CAF83C10DFF8B5
:10364000D090DFF8D080344F344E0AF53B71CAE990
:10365000B921CAF8E0422146EB600822C5E90044DE
:10366000C5E904446C66AC60AC6105F15C00FFF731
:1036700051FDC5E90759C5E90987EE6205F1580012
:1036800000F060FBDAF80850254B2146EB60082279
:10369000C5E90044C5E904446C66AC60AC6105F161
:1036A0005C00FFF737FDC5E90759C5E90987EE62F8
:1036B00005F1580000F046FBDAF80C50194B214692
:1036C000EB600822C5E90044C5E904446C66AC60BF
:1036D000AC6105F15C00FFF71DFD05F15800C5E97F
:1036E0000759C5E90A76C5F8248000F02BFB0123B1
:1036F0000548CAF83830BDE8F04700F029BB024859
:10370000BDE8F04700F024BB20220020113600085D
:103710009D490008C1490008014A0008214A0008E3
:103720000900010012000200014800F00FBB00BFB9
:103730001C220020014800F00BBB00BF1C2200200F
:1037400038B5084B084D5B1B9C1007D0043B1D444B
:10375000013C55F804399847002CF9D1BDE83840B0
:1037600001F0F8BA4C4E0008484E0008F8B50C4677
:10377000234F064600F006FFBB685D68C4F57E6314
:1037800025F003050F332B4423F47F6323F00F034D
:10379000A3F58054B4F5805F07DB0021304601F0CB
:1037A000EBF8BB682B44984204D0304600F0F0FEA2
:1037B0000020F8BD3046614201F0DEF801300DD046
:1037C000104ABB682D1B45F001055D60136830464B
:1037D0001B1B136000F0DCFE0120F8BD0021304609
:1037E00001F0CAF8BA68831A0F2BDEDD43F001033B
:1037F0005360054B03491B68C01A0860D5E700BF3A
:1038000044040020242200204C08002000295ED01F
:10381000F8B50C46064600F0B5FE54F8042C784F77
:10382000A4F1080522F001016818D7F808C0436820
:10383000844523F0030300F08780D207436034D42B
:1038400054F8082C07F10804AD1A1144AA68A242E2
:1038500068D000EB030CDCF804E0D5F80CC01EF0D7
:10386000010FC2F80CC0CCF8082000F0918041F0A4
:1038700001036B600160B1F5007F31D24A09CB08CA
:10388000012191407A6801331143796007EBC3024B
:1038900057F83310083AC5E9021247F83350CD60A3
:1038A0003046BDE8F84000F073BEC2185268D20737
:1038B0000ED4194407F108048368A34270D0C2688B
:1038C000DA60936041F001036B606950D3E77047A1
:1038D00041F00103B1F5007F44F8043C0160CDD311
:1038E000B1F5206F4FEA512347D28B0903F139001C
:1038F00003F13802C300F818FB580838984258D032
:103900005A6822F003028A4202D99B689842F7D192
:10391000D868C5E9023085603046DD60BDE8F84012
:1039200000F036BEC2185268D20763D40B44D0E907
:103930000212CA60916043F001026A603046EB50A7
:10394000BDE8F84000F024BE0B44D10707D454F87A
:10395000082CAD1A1344D5E90212CA60916043F0F5
:1039600001026A60274ABD6012689A4298D8264BC5
:1039700030461968FFF7FAFE92E7142B0AD9542B48
:103980001FD80B0B03F16F0003F16E02C300B2E707
:10399000194491E703F15C0003F15B02C300AAE75D
:1039A00041F00103C7E90455C5E902446B60695061
:1039B00076E70121921001FA02F279680A437A60EF
:1039C000A7E7B3F5AA7F06D8CB0B03F1780003F184
:1039D0007702C3008FE740F25452934206D88B0C13
:1039E00003F17D0003F17C02C30084E74FF47E7392
:1039F0007E2280E741F001036B60016050E700BF69
:103A00004404002050080020542200209368002B1A
:103A100000F0B7802DE9F04FB1F90C300C461907D2
:103A20008046174683B098B225D523691BB310F0A2
:103A300002033D682DD04FF0000B5E46DFF8B8A2C0
:103A4000002E00F08B80564533465A4628BF534619
:103A50004046E169D4F824C0E047002840F387805D
:103A6000BB6883441B1A361ABB60002BE8D10020C8
:103A700003B0BDE8F08F2146404600F0EBFF002880
:103A800040F03681B4F90C303D6898B210F0020372
:103A9000D1D110F0010976D14E46002E5AD08205C0
:103AA000D4F808B040F1B580B3455A4600F2CD8055
:103AB00010F4906F00F0CB8023682169A3EB010B19
:103AC000636903EB430A0AEBDA7A0BF101034FEA6D
:103AD0006A0A33445345524684BF9A4652464305C8
:103AE00040F1EA801146404600F0DCF9002800F081
:103AF000F9805A4621690190FCF79AFBA289019B43
:103B000022F4906242F08002A28103EB0B00236159
:103B10003246AAEB0B03B346C4F814A0A36020609E
:103B2000B24600264946019200F0B0FCA368216825
:103B3000019AA3EB0B030A44A3602260B868D14446
:103B4000A0EB0A00B860002891D0B4F90C0080B254
:103B5000002EA4D1D5E9009608359EE7D5E900B638
:103B600008356DE721464046FFF724FD80B3B4F9E0
:103B70000C304FF0FF3043F04003A38103B0BDE8A9
:103B8000F08F002070471E46AA46994618461D46EB
:103B900056B3002832D04A4620682169B24228BF75
:103BA00032468842636904D9A16803EB010B5A4588
:103BB00074DC934265DC2A464046E169D4F824C0AF
:103BC000E047B0F1000BD2DDB9EB0B09CAD0012000
:103BD000BB685D44A3EB0B03A6EB0B06BB60002B9D
:103BE0003FF445AF002ED4D10AF1080353F8046C1A
:103BF0009A4653F8085C0833002EF7D032460A2163
:103C0000284600F0FBFB002869D00130A0EB050935
:103C1000C1E72068236998421BD86369B34218D86A
:103C20006FF0004CB44528BFB4469CFBF3FC4A46F9
:103C300003FB0CF34046E169D4F824C0E047B0F13F
:103C4000000A94DDA6EB0A0678E7B3463246206800
:103C500066E7B345DA4628BFB2464946524600F009
:103C600015FCA3682268A3EB0A035244A3602260F8
:103C7000002BE7D121464046FFF79CFC0028E1D00D
:103C800075E729469346019200F000FCA368019A6B
:103C90009B1AA36023681A44226095E729465A4676
:103CA00000F0F4FB236821465B4440462360FFF7A5
:103CB00081FC002888D05AE7404600F06FFC03469C
:103CC00000287FF422AF40462169FFF79FFD0C22B8
:103CD000B4F90C30C8F8002023F0800349E7721CC7
:103CE000914659E70C22B4F90C30C8F8002040E79F
:103CF0004FF0FF30BCE600BF00FCFF7F2DE9F8432A
:103D00004FF000090746884600F53876D6E9015499
:103D1000013D10D4A389013D012B08D9B4F90E301F
:103D2000013304D021463846C04749EA00096B1CDC
:103D300004F16804EED13668002EE7D14846BDE8AC
:103D4000F88300BF704700BF704700BF704700BFD7
:103D5000704700BF2DE9F0418B890C46990796B05A
:103D600008D5012204F14303C4E90432236016B0EC
:103D7000BDE8F081B4F90E100646002927DB6A463B
:103D800000F090FF002821DB019D4FF4806805F4CE
:103D90007045A5F50055B5FA85F54FF400676D0936
:103DA0004146304600F07EF8B4F90C30F0B1204ABC
:103DB00043F08003F263C4F81480A3812060206183
:103DC00035BB3B43A38116B0BDE8F081A38913F056
:103DD000800519D04FF0400830464146002500F0DC
:103DE00061F82F46B4F90C300028E0D19A05BED412
:103DF000012123F0030304F1430243F00203C4E969
:103E00000421A3812260B2E74FF480682F46C7E700
:103E10003046B4F90E1000F059FF10B9B4F90C3067
:103E2000CFE7A38923F0030343F001031BB2C8E7E4
:103E30001136000870B50C46B1F90E101546002970
:103E40001E4696B014DB6A4600F02CFF00280FDBFC
:103E5000019A4FF4806302F47042A2F50052B2FA64
:103E600082F24FF40060520932602B6016B070BDD0
:103E70000023B4F90C10336011F0800004D040220C
:103E800018462A6016B070BD4FF480632B6016B0E0
:103E900070BD00BF024B0146186800F003B800BFB8
:103EA000100000202DE9F04F01F10B05162D0646FC
:103EB00083B025D8102900F2B88000F063FB1025EC
:103EC00018224FF0020CB54F3A445368A2F1080192
:103ED0008B4200F0B7805A68D96822F003021A4476
:103EE0009C683046E1608C60516803F1080441F041
:103EF0000101516000F04CFB204603B0BDE8F08F9B
:103F000035F0070500F19180A94200F28E8000F0A3
:103F100039FBB5F5FC7FC0F094816B0A00F08C8012
:103F2000042B00F26A81AB0903F1390C03F1380468
:103F30004FEACC00994F384443680838984206D17C
:103F40000CE0002980F22681DB68984206D05A688E
:103F500022F00302511B0F29F3DDA4463C69DFF870
:103F600040E274457AD0626822F00302531B0F2BA3
:103F700000F37681002BC7E904EE80F26781B2F589
:103F8000007F80F019810121D30852090B44914030
:103F90007A6857F833000A4307EBC3010839A06079
:103FA000E1607A6047F83340C46001214FEAAC0316
:103FB0009940914259D8114206D12CF0030C490086
:103FC00011420CF1040CFAD007EBCC0948466446C8
:103FD000D0F80C80404508D11CE1002B80F22181F3
:103FE000D8F80C80404500F01581D8F8042022F064
:103FF0000302531B0F2BF0DD08EB050145F0010513
:10400000C8F804503046D8E90264F460A66043F072
:104010000104C7E904114C60C1E902EE48F802301E
:1040200000F0B6FA08F1080402E00C230024336023
:10403000204603B0BDE8F08F4FF400704FF0400C05
:104040003F2477E7D3689A4208BF0CF1020C7FF453
:1040500042AF3C69DFF848E1744584D101217A68B8
:104060004FEAAC0399409142A5D9BC68636823F03C
:1040700003094D4503D8A9EB05030F2B7ADCDFF8C4
:1040800024B1494BDBF800201B6801322B4404EBC0
:10409000090A00F02F8103F580530F3323F47F6862
:1040A00028F00F084146304600F066FC411C0246ED
:1040B00000F0EF80824500F2EA803C4B19684144F1
:1040C0000846196000F04981DBF8001001930131C6
:1040D0001BBFA2EB0A0A5044CBF80020186012F074
:1040E000070B00F01181CBF108010A44CBF5805198
:1040F00090440831A1EB0801C1F30B0A5146304648
:10410000009200F039FC421CDDE9002300F04B81F5
:10411000801A00EB0A08196848F001005144BC42BB
:10412000BA601960506000F02481B9F10F0F40F2BD
:1041300022814FF0050E6068A9F10C0C2CF0070CE1
:1041400000F0010040EA0C006060BCF10F0F04EBCE
:104150000C00C0E901EE00F22E8114465068144BA9
:104160001A688A4238BF1960124B1A688A4238BFEF
:10417000196090E0621943F0010345F001056560A4
:104180003046BA600834536000F002FA204603B0AB
:10419000BDE8F08FD9681A44A2E600BF44040020AD
:1041A0004C0400204C08002054220020242200202F
:1041B0004C22002050220020B2F5206F4FEA5223FB
:1041C0005FD3142B00F2B18003F15C01C9005B33B3
:1041D000781879580838884200F08F804B6823F0AF
:1041E0000303934202D989688842F7D1C8687A6884
:1041F000C4E902108460CC60D7E6142B59D9542B43
:1042000000F29B802B0B03F16F0C03F16E044FEA5D
:10421000CC008FE60134A30700F108007FF4D8AE8C
:1042200053E0444642445368D8F80C1043F001036D
:10423000536054F8083F3046D9608B6000F0A8F90D
:10424000F6E64FEAD50C05F108023CE62244536835
:10425000304643F00103536000F09AF90834E7E672
:10426000611945F00105656043F00105C7E90411D6
:104270003046C1E902EE4D60A35000F089F90834E0
:10428000D6E6930903F13901C9003833A0E7BC42EF
:104290005ED0BC68606820F003084545A8EB0503C4
:1042A00002D80F2B3FF766AF304600F071F90024BB
:1042B000BEE603F15C0C03F15B044FEACC0039E687
:1042C00059F808394B4540F095801CF0030F0CF16C
:1042D000FF3CF5D17B6823EA01037B6049009942EA
:1042E0003FF6C3AE11B9C0E6490004341942FBD011
:1042F000A44669E603F11008D4E601229B109A4017
:104300007B681A437A6073E702EB08014942C1F304
:104310000B0A51463046009200F02EFB431CDDE9AB
:1043200000237FF4F5AEDA46F5E6542B26D8130BBE
:1043300003F16F01C9006E334AE7B3F5AA7F26D8AF
:10434000EB0B03F1780C03F177044FEACC00F1E5B5
:10435000294B186840441860B6E6CAF30B0CBCF150
:10436000000F7FF4B1AEBC68C84448F00100606043
:10437000F5E61446F3E60123536095E7B3F5AA7F0B
:1043800024D8D30B03F17801C900773320E740F23A
:104390005452934224D8AB0C03F17D0C03F17C04FE
:1043A0004FEACC00C6E5ABF1080BD8444FF0000A49
:1043B000A8EB0208AFE604F1080130460093FFF7CE
:1043C00025FABC68009B60681968C8E640F2545141
:1043D0008B420BD8930C03F17D01C9007C33F7E6C7
:1043E0004FF47E704FF07F0C7E24A3E54FF47E7176
:1043F0007E23EDE67B6871E7242200205FFA81FCD2
:10440000810710D00346511E2AB90AE09A071846C0
:104410000AD0013905D3184613F8012B6245F5D1AE
:10442000704700207047114603290CD80029F8D0A6
:104430000346014401E08B42F3D0184613F8012BE8
:104440006245F8D1ECE7024610B54CEA0C2444EA88
:1044500004441046036804326340A3F1013E2EEA8F
:10446000030313F0803F04D1043903291046F0D828
:1044700051B10346014401E08B4205D0184613F8C0
:10448000012B6245F8D110BD002010BD88420DD926
:104490008B1883420AD900EB020CBAB1624613F8BA
:1044A00001CD994202F801CDF9D170470F2A0ED8FB
:1044B000034602F1FF3C4AB10CF1010C013B8C4474
:1044C00011F8012B614503F8012FF9D1704740EA3B
:1044D00001039B074FD1A2F1100370B501F1200C2D
:1044E00023F00F0501F1100E00F11004AC441B097C
:1044F0005EF8105C0EF1100E44F8105C5EF81C5C67
:10450000103444F81C5C5EF8185C44F8185C5EF8E3
:10451000145CE64544F8145CEAD1013312F00C0F48
:1045200001EB031102F00F0400EB031327D08E46BA
:10453000043C24F003064FEA940C1E441C1F5EF852
:10454000045B44F8045FB442F9D10CF1010402F0B9
:10455000030203EB840301EB840102F1FF3C4AB147
:104560000CF1010C013B8C4411F8012B614503F85F
:10457000012FF9D170BD034602F1FF3C9CE72246B2
:10458000EBE700BF0148FFF7E1BB00BF18220020A6
:104590000148FFF7DDBB00BF182200202DE9F84FCE
:1045A0001646002900F0988006F10B0580460C465F
:1045B000FFF7E8FF162D5DD810252A46AE425ED8DB
:1045C00054F8041CA4F1080921F00307974262DAA9
:1045D000BC4B09EB0700D3F808C0844500F0978076
:1045E000D0F804C02CF0010303445B68DB0768D4F7
:1045F0002CF0030C07EB0C03934247DACB0710D4E3
:1046000054F8083CA9EB030ADAF8043023F003015C
:104610008C44BC44944580F211817B18934280F213
:10462000E88031464046FFF73DFC0646E0B154F8CD
:10463000043CA0F1080223F001034B44934200F034
:10464000D2803A1F242A00F2F580132A00F2AC80AF
:1046500003462246116819605168596092689A6051
:1046600021464046FFF7D2F84046FFF791FF30461B
:10467000BDE8F88F25F00705002D2A469EDA0C23A9
:104680000026C8F800303046BDE8F88F1F46D0E954
:104690000223D3609A607B1B0F2B22D8D9F80430F9
:1046A00003F001033B43C9F804304F447B6843F0F7
:1046B00001037B6026464046FFF76AFF3046BDE8AF
:1046C000F88FC907ADD454F8083CA9EB030ADAF80F
:1046D000041021F00301A0E71146BDE8F84FFFF7F1
:1046E000E1BBD9F8041043F0010301F001012943B3
:1046F000C9F8041009EB05014B604F447B68404644
:1047000043F0010308317B60FFF780F8D2E7DCF863
:10471000040020F0030B07EB0B0C05F1100084459F
:104720004DDAC9073FF57DAF54F8081CA9EB010A23
:10473000DAF8041021F003018B44BB4458453FF7DD
:104740006CAF5646DAF80C1056F8080F3A1F242AB8
:10475000C160886000F2DB80132A40F2D6802168B5
:104760001B2ACAF808106168CAF80C1000F2E08031
:1047700008340AF110022168116061685160A16873
:104780009160ABEB05020AEB050142F00102996072
:104790004A60DAF80430404603F001031D43CAF8CA
:1047A0000450FFF7F5FE6EE723681B2A0360636879
:1047B000436068D804F1080200F108034AE709EBF6
:1047C0000502ACEB050C9A604CF00103536054F801
:1047D000043C404603F001031D4344F8045CFFF72A
:1047E000D7FE26464FE750F8043C23F003031F444E
:1047F00051E75646DAF80C1056F8080F3A1F242AEB
:10480000C16088604CD8132A48D921681B2ACAF88D
:1048100008106168CAF80C1056D808340AF1100262
:104820001F462368D146136063685360A36834460B
:10483000936030E72146FFF729FE11E75646D0E99D
:104840000213CB60996056F8081FDAF80C303A1F53
:10485000242ACB6099602DD8132A29D923681B2AD2
:10486000CAF808306368CAF80C3042D808340AF134
:104870001003226867461A606268D1465A60A268CF
:1048800034469A6007E7A368242A8360E368C3601C
:1048900026D004F1100200F11003DBE63246BFE738
:1048A000214630461F46D146FFF7F0FD3446F2E67A
:1048B0003346DEE7214630466746D146FFF7E6FD40
:1048C0003446E8E644040020A168242ACAF81010FF
:1048D000E168CAF8141020D010340AF118029FE7DA
:1048E000236904F1180203616369436100F118034D
:1048F000B0E6A368242ACAF81030E368CAF8143076
:1049000022D010340AF11803B3E7324633E72146C8
:104910003046FFF7BBFD174B33E722691834CAF85E
:10492000182054F8042CCAF81C200AF1200277E75A
:10493000A168242ACAF81010E168CAF814100ED031
:1049400010340AF1180216E723691834CAF818302F
:1049500054F8043CCAF81C300AF1200389E72269A4
:104960001834CAF8182054F8042CCAF81C200AF18C
:10497000200200E744040020002238B5064D04461A
:1049800008462A60FBF740FE431C00D038BD2B6868
:10499000002BFBD0236038BD5822002010B50C46F8
:1049A000B1F90E1000F0BAF9002803DB236D0344BF
:1049B000236510BDA38923F48053A38110BD00BFDC
:1049C0002DE9F0410C46B1F90C101F46CB05054608
:1049D00016460BD421F48051A1813B46324628462D
:1049E000B4F90E10BDE8F04100F01EB8B4F90E1095
:1049F0000223002200F07CF9B4F90C10EAE700BFB2
:104A000010B50C46B1F90E1000F072F9A389421CE2
:104A10000EBF23F4805343F480532065A38110BD5F
:104A2000B1F90E1000F0C6B838B50C461146002298
:104A30008446074D20462A601A466446FBF754FD1B
:104A4000431C00D038BD2B68002BFBD0236038BD41
:104A50005822002038B5334B05461B680C460BB175
:104A60009A6B12B3B4F90C3018079AB225D52169A4
:104A700000292DD012F0010007D000256069A56043
:104A80004042A06139B1002038BD950758BF606928
:104A9000A0600029F7D1120658BF0846F4D543F0AC
:104AA00040034FF0FF30A38138BD1846FEF7B6FD36
:104AB000B4F90C3018079AB2D9D4D1062AD55207C6
:104AC00014D4216943F00803A3819AB20029D1D1FB
:104AD00002F42070B0F5007FCCD021462846FFF7C5
:104AE00039F9B4F90C3021699AB2C3E7216B51B19D
:104AF00004F14002914204D02846FEF787FEB4F943
:104B00000C30002222630022216923F02403C4E92F
:104B10000012D7E7092243F040032A604FF0FF302C
:104B2000A38138BD100000202DE9F047DFF87CA0FC
:104B30000646DAF8000098460F469146FFF706F958
:104B40001B4B1B68D3F8484124B365681F2D26DC36
:104B50005EB96B1C0235DAF80000636044F825701A
:104B6000FFF7F6F80020BDE8F087012304EB85018C
:104B7000C1F88890D4F88821AB401A43022EC4F8BB
:104B80008821C1F80881E4D1D4F88C211343C4F8FA
:104B90008C31DEE703F5A674C3F84841D5E7DAF8AF
:104BA0000000FFF7D5F84FF0FF30DCE740040020AD
:104BB000384E0008002238B5064D044608462A60E3
:104BC000FBF7ACFC431C00D038BD2B68002BFBD09E
:104BD000236038BD5822002070B500294BD006460E
:104BE0000C4610B1836B002B48D0636ED80734D5C8
:104BF000B4F90C30002B3ED021463046FEF748FC7D
:104C0000E36A054633B13046E16998470028B8BFEA
:104C10004FF0FF35A3891A063BD4216B41B104F153
:104C20004003994202D03046FEF7F0FD0023236393
:104C3000616C21B13046FEF7E9FD00236364FEF7A5
:104C400073FD0022636EA281DB0727D5A06DFFF7FD
:104C50007BF8FEF76FFD284670BDA3899905CBD47C
:104C6000A06DFFF773F8B4F90C30002BC4D1656E5A
:104C700015F0010508D00025284670BDFEF7CEFCD2
:104C8000636ED807B4D4E8E7A06DFFF761F8284653
:104C900070BD30462169FEF7B9FDBEE7A06DFFF794
:104CA00057F8D3E770B50026074D0446084611466D
:104CB0002E60FBF75FFC431C00D070BD2B68002BFF
:104CC000FBD0236070BD00BF58220020002238B501
:104CD000064D044608462A60FBF7FAFB431C00D049
:104CE00038BD2B68002BFBD0236038BD5822002034
:104CF00038B50C46114600228446074D20462A60EE
:104D00001A466446FBF716FC431C00D038BD2B68DE
:104D1000002BFBD0236038BD5822002038B50C464C
:104D2000114600228446074D20462A601A466446F2
:104D3000FBF708FC431C00D038BD2B68002BFBD0D0
:104D4000236038BD58220020F8B500BFF8BC08BC6D
:104D50009E467047F8B500BFF8BC08BC9E46704739
:104D600068656C6C6F206672656572746F730D0098
:104D700055415254000000004C4544006465666192
:104D8000756C745461736B00784D0008000000006E
:104D90000000000000000000000000000002000011
:104DA000080000000000000000000000704D000836
:104DB00000000000000000000000000000000000F3
:104DC00000020000080000000000000000000000D9
:104DD0007C4D000800000000000000000000000002
:104DE00000000000000200001800000000000000A9
:104DF00000000000000000000000000001020304A9
:104E0000060708090000000001020304020304056C
:104E1000060708090A0B0C0D0E0F10100000000009
:104E200049444C4500000000546D725100000000E0
:104E3000546D722053766300180000200A000000B1
:084E400071340008150200089E
:044E4800F10100086C
:104E4C000024F4000100000010000000AAAAAAAA85
:104E5C0018000020000000000000000004030020E7
:104E6C006C030020D40300200000000000000000B0
:104E7C000000000000000000000000000000000026
:104E8C000000000000000000000000000000000016
:104E9C000000000000000000000000000000000006
:104EAC0000000000000000000000000000000000F6
:104EBC0000000000000000000000000000000000E6
:104ECC0000000000000000000000000000000000D6
:104EDC0000000000000000000000000000000000C6
:104EEC0000000000000000000000000000000000B6
:104EFC0000000000000000000000000000000000A6
:104F0C0001000000000000000E33CDAB34126DE642
:104F1C00ECDE05000B0000000000000000000000AB
:104F2C000000000000000000000000000000000075
:104F3C000000000000000000000000000000000065
:104F4C000000000000000000000000000000000055
:104F5C000000000000000000000000000000000045
:10528C001422002000000000000000004404002054
:10529C00440400204C0400204C0400205404002042
:1052AC00540400205C0400205C04002064040020F2
:1052BC00640400206C0400206C04002074040020A2
:1052CC00740400207C0400207C0400208404002052
:1052DC00840400208C0400208C0400209404002002
:1052EC00940400209C0400209C040020A4040020B2
:1052FC00A4040020AC040020AC040020B404002062
:10530C00B4040020BC040020BC040020C404002011
:10531C00C4040020CC040020CC040020D4040020C1
:10532C00D4040020DC040020DC040020E404002071
:10533C00E4040020EC040020EC040020F404002021
:10534C00F4040020FC040020FC04002004050020D0
:10535C00040500200C0500200C050020140500207D
:10536C00140500201C0500201C050020240500202D
:10537C00240500202C0500202C05002034050020DD
:10538C00340500203C0500203C050020440500208D
:10539C00440500204C0500204C050020540500203D
:1053AC00540500205C0500205C05002064050020ED
:1053BC00640500206C0500206C050020740500209D
:1053CC00740500207C0500207C050020840500204D
:1053DC00840500208C0500208C05002094050020FD
:1053EC00940500209C0500209C050020A4050020AD
:1053FC00A4050020AC050020AC050020B40500205D
:10540C00B4050020BC050020BC050020C40500200C
:10541C00C4050020CC050020CC050020D4050020BC
:10542C00D4050020DC050020DC050020E40500206C
:10543C00E4050020EC050020EC050020F40500201C
:10544C00F4050020FC050020FC05002004060020CB
:10545C00040600200C0600200C0600201406002078
:10546C00140600201C0600201C0600202406002028
:10547C00240600202C0600202C06002034060020D8
:10548C00340600203C0600203C0600204406002088
:10549C00440600204C0600204C0600205406002038
:1054AC00540600205C0600205C06002064060020E8
:1054BC00640600206C0600206C0600207406002098
:1054CC00740600207C0600207C0600208406002048
:1054DC00840600208C0600208C06002094060020F8
:1054EC00940600209C0600209C060020A4060020A8
:1054FC00A4060020AC060020AC060020B406002058
:10550C00B4060020BC060020BC060020C406002007
:10551C00C4060020CC060020CC060020D4060020B7
:10552C00D4060020DC060020DC060020E406002067
:10553C00E4060020EC060020EC060020F406002017
:10554C00F4060020FC060020FC06002004070020C6
:10555C00040700200C0700200C0700201407002073
:10556C00140700201C0700201C0700202407002023
:10557C00240700202C0700202C07002034070020D3
:10558C00340700203C0700203C0700204407002083
:10559C00440700204C0700204C0700205407002033
:1055AC00540700205C0700205C07002064070020E3
:1055BC00640700206C0700206C0700207407002093
:1055CC00740700207C0700207C0700208407002043
:1055DC00840700208C0700208C07002094070020F3
:1055EC00940700209C0700209C070020A4070020A3
:1055FC00A4070020AC070020AC070020B407002053
:10560C00B4070020BC070020BC070020C407002002
:10561C00C4070020CC070020CC070020D4070020B2
:10562C00D4070020DC070020DC070020E407002062
:10563C00E4070020EC070020EC070020F407002012
:10564C00F4070020FC070020FC07002004080020C1
:10565C00040800200C0800200C080020140800206E
:10566C00140800201C0800201C080020240800201E
:10567C00240800202C0800202C08002034080020CE
:10568C00340800203C0800203C080020FFFFFFFFEE
:04569C000000020008
:04000005080030754A
:00000001FF
