:020000040800F2
:10000000B806002089010008F70E0008C50D000899
:10001000F50E00088F020008FD1200080000000025
:100020000000000000000000000000009D12000819
:100030009102000800000000991200089F120008B9
:10004000A301000895120008A3010008A3010008FD
:10005000A10300089B12000895020008A5020008F1
:10006000CD020008F50200081D030008A3010008E6
:10007000A3010008A3010008A3010008A3010008D0
:10008000A3010008A3010008A3010008A3010008C0
:10009000A3010008A3010008A3010008450300080C
:1000A000A3010008A3010008A3010008A3010008A0
:1000B000A3010008A301000800000000A30100083C
:1000C000A30100080000000000000000A3010008D8
:1000D00000000000A3010008A301000800000000C8
:1000E000A3010008A3010008A301000800F002F822
:1000F00000F03AF80AA090E8000C82448344AAF188
:100100000107DA4501D100F02FF8AFF2090EBAE885
:100110000F0013F0010F18BFFB1A43F0010318473B
:10012000AC170000CC170000103A24BF78C878C183
:10013000FAD8520724BF30C830C144BF04680C60ED
:10014000704700000023002400250026103A28BF35
:1001500078C1FBD8520728BF30C148BF0B60704739
:100160001FB51FBD10B510BD00F058F81146FFF7C0
:10017000F7FF01F0D5F800F076F803B4FFF7F2FFCF
:1001800003BC00F07DF8000009488047094800479B
:10019000FEE7FEE7FEE7FEE7FEE7FEE7FEE7FEE737
:1001A000FEE7FEE704480549054A064B7047000094
:1001B000FB120008ED000008B8000020B80600207F
:1001C000B8020020B80200204FF0000200B513462C
:1001D00094469646203922BFA0E80C50A0E80C5067
:1001E000B1F12001BFF4F7AF090728BFA0E80C5018
:1001F00048BF0CC05DF804EB890028BF40F8042B11
:1002000008BF704748BF20F8022B11F0804F18BF7D
:1002100000F8012B7047704770477047754600F033
:100220002BF8AE4605006946534620F00700854688
:1002300018B020B5FFF7B6FFBDE820404FF000062C
:100240004FF000074FF000084FF0000B21F00701BE
:10025000AC46ACE8C009ACE8C009ACE8C009ACE801
:10026000C0098D46704710B50446AFF300802046A4
:10027000BDE81040FFF781BF0048704758000020DC
:1002800001491820ABBEFEE7260002007047FEE7DA
:100290007047000002490120087000F06BB90000AF
:1002A0001000002006480078012806D105480168A2
:1002B000491C0160044901200870022000F05AB96D
:1002C00000000020180000201100002006480078DF
:1002D000012806D105480168491C01600449012034
:1002E0000870042000F046B9010000201C00002026
:1002F0001200002006480078012806D10548016850
:10030000491C0160044901200870082000F032B93E
:100310000200002020000020130000200648007882
:10032000012806D105480168491C016004490120E3
:100330000870102000F01EB90300002024000020E7
:1003400014000020114910B5002008601049134C1A
:10035000012208600F4908600F49086040212046CB
:1003600000F0F4F901228021204600F0EFF901228B
:100370001102204600F0EAF901225102204600F065
:10038000E5F9BDE81040202000F0F4B81800002086
:100390001C0000202000002024000020000C014050
:1003A00000F062B8064A0021D16106490A6942F0AC
:1003B00002020A614861086940F040000861704724
:1003C0003800002000200240044B0022DA61044A79
:1003D000136943F001031361018070473800002066
:1003E0000020024014480022C168CB06134904D5FE
:1003F000CA6942F00202CA611022C3685B0705D5D0
:10040000CB6943F00103CB6142F00402C369DB070F
:1004100007D0CB6943F00403CB61C16921F001012E
:10042000C161A2F58071013901D0C2607047C16914
:1004300021F00101C1617047002002403800002016
:1004400070B5044600F088F90546601C02D00448E7
:100450000078044400F080F9401BA042FAD370BD3C
:1004600028000020704700002DE9F0413E4DE8686B
:100470003E4CC0064FF0FF374FF0000602D4E8684C
:10048000400708D5D4F80880A760FFF7ABFF4046C7
:1004900000F06EF82670E868800653D52020E860EA
:1004A0002078F8B1207801281DD02078022833D098
:1004B0006068401E60606068B0B3A068801CA06087
:1004C000A06821696269090C41EA0241120C2161AC
:1004D0006261296921F0010129612169626989B29A
:1004E000FFF772FF2EE06068401E6060606868B1D0
:1004F000A068FFF7B7FFA06800F58060A0602969D9
:1005000021F002012961FFF74DFF1BE03846A7608B
:100510002670FFF7A7FF15E0286920F00400286186
:100520000020FFF79FFF0CE0FFE72078032817D09B
:1005300020780428A06815D0B0F10600FFF792FFDC
:10054000A76026702078002808D1286920F00700CD
:100550002861286920F4A05028612676BDE8F08142
:10056000A068EBE7801EE9E7002002403800002089
:1005700070477047044910B50A68024202D008600B
:10058000FFF7F7FF10BD0000140401402DE9F84FFC
:10059000DFF89C91002409F1040A0AF1040B2346B8
:1005A0000F270BF1040EBBE00125A5402A40AA420B
:1005B00076D1DFF880C14E68A6EB0C0866452BD0DB
:1005C0000DDC032E34D005DC36B3012E19D0022EFB
:1005D0002FD11BE0112E16D0122E2AD119E0B8F51A
:1005E000881F19D006DCB8F5803F15D0B8F5801FFC
:1005F0001FD111E0B8F5001F0ED0B8F5041F18D1B7
:100600000AE0CB6815E0CB681B1D12E0CB6808330D
:100610000FE0CB680C330CE08B682BB1012B4FF053
:10062000080303D0456104E0042302E0056100E013
:100630000023FF2A01D8064601E000F104064FEA34
:10064000840501D9A5F12005D6F8008007FA05FC3C
:1006500028EA0C0803FA05F548EA0508C6F8008000
:100660004D68ED005BD5344DAE6946F00106AE61D4
:10067000AD6924F0030605F0010500952F4D06EB4A
:10068000050CDCF80850A607360F07FA06F825EA2D
:100690000805DFF8AC80404503D14FF0000810E0BA
:1006A0003DE0DFF8A080404502D14FF0010808E0AE
:1006B000DFF89480404502D14FF0020801E04FF08E
:1006C000030808FA06F848EA0508CCF808804D68DF
:1006D000D9F80060ED034D4601D5164300E096437E
:1006E0002E604D68DAF80060AD03554601D516431B
:1006F00000E096432E604D68DBF80060ED025D4639
:1007000001D5164300E096432E604D68DEF8006088
:10071000AD02754601D5164300E096432E60641C79
:100720000A6832FA04F57FF43FAFBDE8F88F0000A5
:1007300000040140000011100010024000000140C0
:1007400000080140000C0140001001400AB10161A5
:1007500070470904FBE7000001488068704700000B
:1007600028000020024881680278114481607047A7
:1007700028000020074810B5016841F01001016011
:10078000032000F08DF80F2000F006F800F024F8A8
:10079000002010BD0020024070B50D4D04464FF4FE
:1007A0007A712878B1FBF0F00A490968B1FBF0F0E2
:1007B00000F0F4FA48B9102C07D200222146501E4E
:1007C00000F04EF800206C6070BD012070BD00008C
:1007D0002800002034000020184808B5816941F045
:1007E00001018161816901F001010091C16941F05C
:1007F0008051C161C069002200F080500090114614
:10080000012000F02DF8012000F01CF80022114614
:10081000042000F025F8042000F014F8002211460E
:10082000052000F01DF8052000F00CF80448416890
:1008300021F0E06141F08061416008BD001002409C
:1008400000000140002809DB00F01F020121914057
:100850004009800000F1E020C0F80011704700005E
:10086000F0B40E4B1B680C46C3F30223C3F107051B
:10087000042D00D90425191D072901D2002300E009
:10088000DB1E012606FA05F1491E214099409E40D3
:10089000761E16403143F0BC00F031BD0CED00E097
:1008A000064900F0070208684FF6FF03184040EAC7
:1008B0000220034A10430860704700000CED00E07E
:1008C0000000FA057047000010B5054C2068C00311
:1008D00004D5FFF7F7FF4FF48030206010BD000013
:1008E000140401402DE9F0470F46050061D0434E46
:1008F000306800F00700B84209D2306820F00700E5
:1009000038433060306800F00700B84251D12868A1
:100910003B4C810712D5400703D5606840F4E06086
:1009200060602878000703D5606840F4605060601C
:100930006068A96820F0F000084360602878C0076C
:1009400028D06868012810D02168022810D08907B3
:1009500000292EDA616821F0030101436160FFF78D
:10096000FBFE804641F288390DE021688903EFE7FC
:100970008901EDE7FFF7F0FEA0EB0801494502D938
:100980000320BDE8F0876068696800F00C00B0EBF8
:10099000810FEFD1306800F00700B8420BD9306802
:1009A00020F0070038433060306800F00700B8429C
:1009B00001D00120E5E72878400705D56068E9689F
:1009C00020F4E060084360602878000706D560687E
:1009D000296920F4605040EAC100606000F018F816
:1009E0006168084AC1F30311515CC84006490860B8
:1009F00006480068FFF7D0FE0020C2E70020024052
:100A000000100240BC180008340000202C00002018
:100A100012A185B00FC98DE80F0014A0144A006818
:100A200004905168134801F00C03042B10D0082BDC
:100A30000ED1C1F38343C9031DF803000AD55168E1
:100A400004AAC1F34041515C0A4A5043B0FBF1F0A3
:100A500005B0704708494843FAE70000020304055F
:100A6000060708090A0B0C0D0E0F101001020000FA
:100A70000010024000127A0000093D002DE9F84FF5
:100A8000040070D02078C04DC00749D06868C0F31A
:100A90008100012807D06868C0F38100022809D1CD
:100AA0006868C00306D52868800339D560680028C7
:100AB000E7D035E06068B0F5803F0BD010B1B0F5FD
:100AC000A02F11D0286820F480302860286820F4F6
:100AD000802002E0286840F480302860606890B18F
:100AE000FFF73AFE06460AE0286840F480202860B6
:100AF000F0E700BFFFF730FE801B642873D828683A
:100B00008003F7D50CE0FFF727FE064605E000BF9F
:100B1000FFF722FE801B6428F0D828688003F7D4F2
:100B200020789A4E80074FF001094FF0000839D520
:100B3000686810F00C0F07D06868C0F381000228C5
:100B400009D16868C00306D42868800714D52069D5
:100B5000012808D110E02069B0B1C6F80090FFF775
:100B6000FBFD074605E00AE1FFF7F6FDC01B022882
:100B7000C4D828688007F7D52868616920F0F80094
:100B800040EAC10028600DE0C6F80080FFF7E4FDF0
:100B9000074604E0FFF7E0FDC01B022823D82868C1
:100BA0008007F7D4207800072CD57948A169D9B1FE
:100BB000C0F80090FFF7D0FD074604E0FFF7CCFD3A
:100BC000C01B02280FD8686A8007F7D571484FF418
:100BD000FA510068B0FBF1F0009000BF0098411E90
:100BE0000091FAD20EE080E0C0F80080FFF7B4FD7B
:100BF000074604E0FFF7B0FDC01B022875D8686AFD
:100C00008007F7D42078400760D5E8690027C00046
:100C100008D4E86940F08050E861E869012700F0F5
:100C2000805000905C480168C90513D40168834670
:100C300041F480710160FFF78FFD824606E000BF3E
:100C4000FFF78AFDA0EB0A0064284ED8DBF800000D
:100C5000C005F5D5E06801280AD008B1052813D0F1
:100C6000286A20F001002862286A20F0040002E0CF
:100C7000286A40F001002862E06841F2883B98B1A0
:100C8000FFF76AFD82460BE0286A40F00400286204
:100C9000EEE700BFFFF760FDA0EB0A0159455AD807
:100CA000286A8007F6D50CE0FFF756FD824605E07E
:100CB000FFF752FDA0EB0A0159454CD8286A80077E
:100CC000F6D41FB1E86920F08050E861E06988B38C
:100CD0006968C1F38101022944D00228C6F8608006
:100CE00004D0FFF739FD044638E034E0FFF734FD67
:100CF000074604E0FFF730FDC01B02282BD8286808
:100D00008001F7D4206AB0F5803F05D16868A168FA
:100D100020F4003008436860D4E90801084369689A
:100D200021F4741108436860C6F86090FFF714FD61
:100D3000044606E025E000BFFFF70EFD001B022879
:100D400009D828688001F7D51BE000BFFFF704FD34
:100D5000001B022802D90320BDE8F88F2868800113
:100D6000F4D40EE00128F7D06868226A00F48031DC
:100D7000914204D1616A00F47010884201D00120D0
:100D8000EAE70020E8E700000010024000004242CD
:100D900080044242340000200070004010B5401E24
:100DA000B0F1807F01D3012010BD4FF0E0246061DD
:100DB0000F21601700F0A3FA0020A0610720206136
:100DC000002010BDFEE700002DE9F04385B00024AF
:100DD00044480094019402940394816941F0100105
:100DE0008161816901F010010491816941F0040180
:100DF0008161816901F004010491816941F0080178
:100E000081618069DFF8E08000F008004FF4FE5552
:100E10000490002229464046FFF798FCDFF8CC906A
:100E200001223F214846FFF791FC4FF470770122E1
:100E300039464846FFF78AFC0095022601250396AD
:100E4000CDE9015469464046FFF7A0FB00970396A1
:100E5000CDE9015469464846FFF798FB3F272448EF
:100E60000097CDE9010469464046FFF78FFB0097E4
:100E70000396CDE9015469464846FFF787FB0022F7
:100E800011460620FFF7ECFC0620FFF7DBFC0022F2
:100E900011460720FFF7E4FC0720FFF7D3FC0022F0
:100EA00011460820FFF7DCFC0820FFF7CBFC0022EE
:100EB00011460920FFF7D4FC0920FFF7C3FC0022EC
:100EC00011460A20FFF7CCFC0A20FFF7BBFC0022EA
:100ED00011461720FFF7C4FC1720FFF7B3FC05B03D
:100EE000BDE8F0830010024000080140000C014002
:100EF00000003110FEE7FEE770B52B4C05462B4E87
:100F0000605DC00701D0012200E000224021304690
:100F1000FFF71CFC605D4008C00701D0012200E023
:100F2000002280213046FFF711FC605D4FF4807194
:100F30008008C00701D0012200E000223046FFF700
:100F400005FC605D4FF40071C008C00701D00122AC
:100F500000E000223046FFF7F9FB605D4FF480614E
:100F60000009C00701D0012200E000223046FFF74F
:100F7000EDFB605D4FF400614009C00701D0012224
:100F800000E000223046FFF7E1FB605D4FF4805146
:100F90008009C00701D0012200E000223046BDE8F0
:100FA0007040FFF7D3BB00000400002000080140A0
:100FB0002DE9F05FC51700EB9578C81701EB907528
:100FC000D017002402EB9076DFF81491D8174FF475
:100FD000807A4FF4007B03EB907700224021484653
:100FE000FFF7B4FB012280214846FFF7AFFB012247
:100FF00051464846FFF7AAFB012259464846FFF7EB
:10100000A5FB4FEAA800FFF777FF0520FFF718FAC6
:10101000012240214846FFF799FB002280214846E3
:10102000FFF794FB012251464846FFF78FFB012250
:1010300059464846FFF78AFBA810FFF75DFF0520D9
:10104000FFF7FEF9012240214846FFF77FFB01220E
:1010500080214846FFF77AFB002251464846FFF7B9
:1010600075FB012259464846FFF770FBB010FFF7A9
:1010700043FF0520FFF7E4F9012240214846FFF72E
:1010800065FB012280214846FFF760FB01225146A3
:101090004846FFF75BFB002259464846FFF756FBE0
:1010A000B810FFF729FF0520FFF7CAF9641C0A2CC6
:1010B00093DB012240214C464846FFF747FB0122C3
:1010C00080212046FFF742FB012251462046FFF7D0
:1010D0003DFB59462046BDE8F05F0122FFF736BBD5
:1010E000000C014070B5194C002240212046FFF74A
:1010F0002DFB012280212046FFF728FB012215024B
:1011000029462046FFF722FB01225602314620469F
:10111000FFF71CFB0A20FFF7EFFEC820FFF790F94E
:10112000012240212046FFF711FB012280212046A9
:10113000FFF70CFB012229462046FFF707FB31464B
:101140002046BDE870400122FFF700BB000C0140C3
:1011500070B5194C012240212046FFF7F7FA012211
:1011600080212046FFF7F2FA012215022946204687
:10117000FFF7ECFA6615002231462046FFF7E6FA43
:101180000A20FFF7B9FEC820FFF75AF901224021D3
:101190002046FFF7DBFA012280212046FFF7D6FA2E
:1011A000012229462046FFF7D1FA31462046BDE804
:1011B00070400122FFF7CABA000C014070B5194C0B
:1011C000012240212046FFF7C1FA0122802120465A
:1011D000FFF7BCFAA515002229462046FFF7B6FA0C
:1011E0000122560231462046FFF7B0FA0A20FFF7E7
:1011F00083FEC820FFF724F9012240212046FFF793
:10120000A5FA012280212046FFF7A0FA01222946F3
:101210002046FFF79BFA31462046BDE87040012288
:10122000FFF794BA000C014070B5194C012240211F
:101230002046FFF78BFA002280212046FFF786FA2E
:101240000122150229462046FFF780FA01225602A4
:1012500031462046FFF77AFA0A20FFF74DFEC820F4
:10126000FFF7EEF8012240212046FFF76FFA012236
:1012700080212046FFF76AFA012229462046FFF71F
:1012800065FA31462046BDE870400122FFF75EBA9C
:10129000000C0140FFF718BB704770477047FFF71D
:1012A00061BA30B58FB028216846FEF78DFF142152
:1012B0000AA8FEF789FF012002250490009510205E
:1012C00005900024CDE9075468460994FFF7D6FB42
:1012D00008B172B6FEE70F20CDE90A054FF4806031
:1012E000CDE90C4000210AA80E94FFF7FBFA002874
:1012F00001D072B6FEE70FB030BD7047FEE70907B8
:10130000090E002804DB00F1E02080F8001470478B
:1013100000F00F0000F1E02080F8141D704700007D
:10132000FFF728FAFFF7BDFFFFF74EFD0025134C2E
:1013300000F06EF96078012802D16570FFF7D2FEE7
:10134000A078012802D1A570FFF76EFFE078012890
:1013500002D1E570FFF732FF2079012802D1257113
:10136000FFF7F6FE20780128E2D104F8085B94E844
:101370000F00083CFFF71CFEDAE700001000002019
:101380002DE9F05F012138480024384F0170417089
:101390008470374EDFF8DC80DFF8DC90DFF8DCA00B
:1013A000DFF8DCB0C4702546012202213846FFF781
:1013B000CDF9012202213846FFF7C8F900220121A8
:1013C0003846FFF7C3F9002201213846FFF7BEF97E
:1013D000012208213846FFF7B9F9012208213846D1
:1013E000FFF7B4F9002220213846FFF7AFF90022B9
:1013F00020213846FFF7AAF93078012802D134704D
:10140000FFF770FE98F80010012903D188F800401A
:10141000FFF70AFF99F80010012903D189F800406D
:10142000FFF7CCFE9AF80010012903D18AF800409A
:10143000FFF78EFE9BF8001001290BD111488BF8A5
:1014400000400368104802681048016810480068AE
:10145000FFF7AEFD0120FEF7F3FF42F210706D1CA6
:101460008542A1DBBDE8F09F00000020000C014098
:1014700011000020120000201300002014000020A2
:101480001000002024000020200000201C0000206C
:10149000180000202DE9F05F52480121002401705E
:1014A00041708470504EC4700A4620213046FFF7C8
:1014B0004DF9012220213046FFF748F9DFF82C8151
:1014C000DFF82C91DFF82CA1DFF82CB100250026E5
:1014D000454F002210213846FFF738F9002210212D
:1014E0003846FFF733F9454F3878012802D13C7070
:1014F000FFF7F8FD98F80000012803D188F80040B4
:10150000FFF792FE99F80000012803D189F8004006
:10151000FFF754FE9AF80000012803D18AF8004032
:10152000FFF716FE9BF8000001280BD134488BF81A
:101530000040036833480268334801683348006854
:10154000FFF736FD0120FEF77BFF761CB6F5FA7F2C
:10155000BEDB0026244F012210213846FFF7F6F8A3
:10156000012210213846FFF7F1F8244801780129BB
:1015700002D10470FFF7B6FD98F80010012903D1DD
:1015800088F80040FFF750FE99F80010012903D1B8
:1015900089F80040FFF712FE9AF80010012903D1E4
:1015A0008AF80040FFF7D4FD9BF8001001290BD109
:1015B00013488BF80040036812480268124801681B
:1015C00012480068FFF7F4FC0120FEF739FF761C93
:1015D000B6F5FA7FBEDB6D1CEDB2032DFFF477AFDD
:1015E000BDE8F09F00000020000C01401200002028
:1015F0001300002014000020100000201100002023
:1016000024000020200000201C00002018000020E2
:1016100010B5FFF7B5FEFFF73DFF00F005F8BDE898
:10162000104000F08BB800002DE9F05F002438482E
:101630000121384F047044708170374EDFF8DC8030
:10164000DFF8DC90DFF8DCA0DFF8DCB0C170254605
:10165000012210213846FFF779F80122102138467F
:10166000FFF774F8002208213846FFF76FF80022D0
:1016700008213846FFF76AF8012211463846FFF77D
:1016800065F8012211463846FFF760F80022042170
:101690003846FFF75BF8002204213846FFF756F87A
:1016A0000120FEF7CDFE3078012802D13470FFF71B
:1016B00019FD98F80010012903D188F80040FFF7C0
:1016C000B3FD99F80010012903D189F80040FFF714
:1016D00075FD9AF80010012903D18AF80040FFF740
:1016E00037FD9BF8001001290BD110488BF8004002
:1016F00003680F4802680F4801680F480068FFF749
:1017000057FC42F210706D1C8542A1DBBDE8F09FD2
:1017100000000020000C01401100002012000020F9
:1017200013000020140000201000002024000020DE
:10173000200000201C000020180000202DE9F05F90
:10174000534800240121047044708170C170514ECF
:101750000A4604213046FEF7F9FF012204213046F3
:10176000FEF7F4FFDFF830A1DFF830910025DFF855
:1017700024B1DFF82C810026002202215F46584662
:10178000FEF7E4FF002202213846FEF7DFFF0120CA
:10179000FEF756FE434F3878012802D13C70FFF720
:1017A000A1FC98F80000012803D188F80040FFF759
:1017B0003BFD9AF80000012803D18AF80040FFF7AA
:1017C000FDFC99F80000012812D189F80040FFF7CC
:1017D000BFFC3548017801290AD1047033480368F9
:1017E000334802683348016833480068FFF7E0FB7C
:1017F000761CB6F5FA7FBFDBC346DFF8AC80002667
:10180000244F012202213846FEF7A0FF01220221C7
:101810003846FEF79BFF23480178012902D1047066
:10182000FFF760FC9BF80010012903D18BF8004002
:10183000FFF7FAFC9AF80010012903D18AF800405A
:10184000FFF7BCFC99F80010012903D189F800408A
:10185000FFF77EFC98F8001001290BD1134888F897
:101860000040036812480268124801681248006884
:10187000FFF79EFB0120FEF7E3FD761CB6F5FA7F2D
:10188000BEDB6D1CEDB2032DFFF471AFBDE8F09F20
:1018900000000020000C0140130000201400002074
:1018A0001200002011000020100000202400002061
:1018B000200000201C000020180000200000000074
:1018C000000000000102030406070809EC180008E4
:1018D000000000203800000028010008241900083A
:1018E00038000020800600004401000800000000CD
:1018F0003F065B4F666D7D077F6F40000000000074
:1019000000000000000000000000000000000000D7
:1019100000000000010000001000000000000000B6
:041920000024F400AB
:04000005080000ED02
:00000001FF
